{
	"contracts/mod3.sol": {
		"TokenContract": {
			"abi": [
				{
					"inputs": [],
					"stateMutability": "nonpayable",
					"type": "constructor"
				},
				{
					"anonymous": false,
					"inputs": [
						{
							"indexed": true,
							"internalType": "address",
							"name": "owner",
							"type": "address"
						},
						{
							"indexed": true,
							"internalType": "address",
							"name": "spender",
							"type": "address"
						},
						{
							"indexed": false,
							"internalType": "uint256",
							"name": "value",
							"type": "uint256"
						}
					],
					"name": "Approval",
					"type": "event"
				},
				{
					"anonymous": false,
					"inputs": [
						{
							"indexed": true,
							"internalType": "address",
							"name": "from",
							"type": "address"
						},
						{
							"indexed": false,
							"internalType": "uint256",
							"name": "amount",
							"type": "uint256"
						}
					],
					"name": "Burn",
					"type": "event"
				},
				{
					"anonymous": false,
					"inputs": [
						{
							"indexed": true,
							"internalType": "address",
							"name": "to",
							"type": "address"
						},
						{
							"indexed": false,
							"internalType": "uint256",
							"name": "amount",
							"type": "uint256"
						}
					],
					"name": "Mint",
					"type": "event"
				},
				{
					"anonymous": false,
					"inputs": [
						{
							"indexed": false,
							"internalType": "string",
							"name": "newFirstName",
							"type": "string"
						},
						{
							"indexed": false,
							"internalType": "string",
							"name": "newLastName",
							"type": "string"
						},
						{
							"indexed": false,
							"internalType": "uint256",
							"name": "newSupply",
							"type": "uint256"
						}
					],
					"name": "TokenMetadataUpdated",
					"type": "event"
				},
				{
					"anonymous": false,
					"inputs": [
						{
							"indexed": true,
							"internalType": "address",
							"name": "from",
							"type": "address"
						},
						{
							"indexed": true,
							"internalType": "address",
							"name": "to",
							"type": "address"
						},
						{
							"indexed": false,
							"internalType": "uint256",
							"name": "value",
							"type": "uint256"
						}
					],
					"name": "Transfer",
					"type": "event"
				},
				{
					"inputs": [
						{
							"internalType": "address",
							"name": "owner",
							"type": "address"
						},
						{
							"internalType": "address",
							"name": "spender",
							"type": "address"
						}
					],
					"name": "allowance",
					"outputs": [
						{
							"internalType": "uint256",
							"name": "",
							"type": "uint256"
						}
					],
					"stateMutability": "view",
					"type": "function"
				},
				{
					"inputs": [
						{
							"internalType": "address",
							"name": "spender",
							"type": "address"
						},
						{
							"internalType": "uint256",
							"name": "amount",
							"type": "uint256"
						}
					],
					"name": "approve",
					"outputs": [
						{
							"internalType": "bool",
							"name": "",
							"type": "bool"
						}
					],
					"stateMutability": "nonpayable",
					"type": "function"
				},
				{
					"inputs": [
						{
							"internalType": "address",
							"name": "account",
							"type": "address"
						}
					],
					"name": "balanceOf",
					"outputs": [
						{
							"internalType": "uint256",
							"name": "",
							"type": "uint256"
						}
					],
					"stateMutability": "view",
					"type": "function"
				},
				{
					"inputs": [
						{
							"internalType": "address",
							"name": "account",
							"type": "address"
						},
						{
							"internalType": "uint256",
							"name": "amount",
							"type": "uint256"
						}
					],
					"name": "burn",
					"outputs": [],
					"stateMutability": "nonpayable",
					"type": "function"
				},
				{
					"inputs": [],
					"name": "contractOwner",
					"outputs": [
						{
							"internalType": "address",
							"name": "",
							"type": "address"
						}
					],
					"stateMutability": "view",
					"type": "function"
				},
				{
					"inputs": [],
					"name": "firstName",
					"outputs": [
						{
							"internalType": "string",
							"name": "",
							"type": "string"
						}
					],
					"stateMutability": "view",
					"type": "function"
				},
				{
					"inputs": [],
					"name": "lastName",
					"outputs": [
						{
							"internalType": "string",
							"name": "",
							"type": "string"
						}
					],
					"stateMutability": "view",
					"type": "function"
				},
				{
					"inputs": [
						{
							"internalType": "address",
							"name": "recipient",
							"type": "address"
						},
						{
							"internalType": "uint256",
							"name": "amount",
							"type": "uint256"
						}
					],
					"name": "mint",
					"outputs": [],
					"stateMutability": "nonpayable",
					"type": "function"
				},
				{
					"inputs": [],
					"name": "supply",
					"outputs": [
						{
							"internalType": "uint256",
							"name": "",
							"type": "uint256"
						}
					],
					"stateMutability": "view",
					"type": "function"
				},
				{
					"inputs": [
						{
							"internalType": "address",
							"name": "recipient",
							"type": "address"
						},
						{
							"internalType": "uint256",
							"name": "amount",
							"type": "uint256"
						}
					],
					"name": "transfer",
					"outputs": [],
					"stateMutability": "nonpayable",
					"type": "function"
				},
				{
					"inputs": [
						{
							"internalType": "address",
							"name": "sender",
							"type": "address"
						},
						{
							"internalType": "address",
							"name": "recipient",
							"type": "address"
						},
						{
							"internalType": "uint256",
							"name": "amount",
							"type": "uint256"
						}
					],
					"name": "transferFrom",
					"outputs": [
						{
							"internalType": "bool",
							"name": "",
							"type": "bool"
						}
					],
					"stateMutability": "nonpayable",
					"type": "function"
				},
				{
					"inputs": [
						{
							"internalType": "string",
							"name": "newFirstName",
							"type": "string"
						},
						{
							"internalType": "string",
							"name": "newLastName",
							"type": "string"
						}
					],
					"name": "updateTokenMetadata",
					"outputs": [],
					"stateMutability": "nonpayable",
					"type": "function"
				}
			],
			"devdoc": {
				"kind": "dev",
				"methods": {},
				"version": 1
			},
			"evm": {
				"assembly": "    /* \"contracts/mod3.sol\":137:4356  contract TokenContract {... */\n  mstore(0x40, 0x80)\n    /* \"contracts/mod3.sol\":192:224  string public firstName = \"yash\" */\n  mload(0x40)\n  dup1\n  0x40\n  add\n  0x40\n  mstore\n  dup1\n  0x04\n  dup2\n  mstore\n  0x20\n  add\n  0x7961736800000000000000000000000000000000000000000000000000000000\n  dup2\n  mstore\n  pop\n  0x00\n  swap1\n  dup2\n  tag_1\n  swap2\n  swap1\n  tag_2\n  jump\t// in\ntag_1:\n  pop\n    /* \"contracts/mod3.sol\":231:263  string public lastName = \"kumar\" */\n  mload(0x40)\n  dup1\n  0x40\n  add\n  0x40\n  mstore\n  dup1\n  0x05\n  dup2\n  mstore\n  0x20\n  add\n  0x6b756d6172000000000000000000000000000000000000000000000000000000\n  dup2\n  mstore\n  pop\n  0x01\n  swap1\n  dup2\n  tag_3\n  swap2\n  swap1\n  tag_2\n  jump\t// in\ntag_3:\n  pop\n    /* \"contracts/mod3.sol\":291:293  10 */\n  0x0a\n    /* \"contracts/mod3.sol\":270:293  uint public supply = 10 */\n  0x02\n  sstore\n    /* \"contracts/mod3.sol\":1071:1130  constructor() {... */\n  callvalue\n  dup1\n  iszero\n  tag_4\n  jumpi\n  0x00\n  dup1\n  revert\ntag_4:\n  pop\n    /* \"contracts/mod3.sol\":1112:1122  msg.sender */\n  caller\n    /* \"contracts/mod3.sol\":1096:1109  contractOwner */\n  0x03\n  0x00\n    /* \"contracts/mod3.sol\":1096:1122  contractOwner = msg.sender */\n  0x0100\n  exp\n  dup2\n  sload\n  dup2\n  0xffffffffffffffffffffffffffffffffffffffff\n  mul\n  not\n  and\n  swap1\n  dup4\n  0xffffffffffffffffffffffffffffffffffffffff\n  and\n  mul\n  or\n  swap1\n  sstore\n  pop\n    /* \"contracts/mod3.sol\":137:4356  contract TokenContract {... */\n  jump(tag_7)\n    /* \"#utility.yul\":7:106   */\ntag_8:\n    /* \"#utility.yul\":59:65   */\n  0x00\n    /* \"#utility.yul\":93:98   */\n  dup2\n    /* \"#utility.yul\":87:99   */\n  mload\n    /* \"#utility.yul\":77:99   */\n  swap1\n  pop\n    /* \"#utility.yul\":7:106   */\n  swap2\n  swap1\n  pop\n  jump\t// out\n    /* \"#utility.yul\":112:292   */\ntag_9:\n    /* \"#utility.yul\":160:237   */\n  0x4e487b7100000000000000000000000000000000000000000000000000000000\n    /* \"#utility.yul\":157:158   */\n  0x00\n    /* \"#utility.yul\":150:238   */\n  mstore\n    /* \"#utility.yul\":257:261   */\n  0x41\n    /* \"#utility.yul\":254:255   */\n  0x04\n    /* \"#utility.yul\":247:262   */\n  mstore\n    /* \"#utility.yul\":281:285   */\n  0x24\n    /* \"#utility.yul\":278:279   */\n  0x00\n    /* \"#utility.yul\":271:286   */\n  revert\n    /* \"#utility.yul\":298:478   */\ntag_10:\n    /* \"#utility.yul\":346:423   */\n  0x4e487b7100000000000000000000000000000000000000000000000000000000\n    /* \"#utility.yul\":343:344   */\n  0x00\n    /* \"#utility.yul\":336:424   */\n  mstore\n    /* \"#utility.yul\":443:447   */\n  0x22\n    /* \"#utility.yul\":440:441   */\n  0x04\n    /* \"#utility.yul\":433:448   */\n  mstore\n    /* \"#utility.yul\":467:471   */\n  0x24\n    /* \"#utility.yul\":464:465   */\n  0x00\n    /* \"#utility.yul\":457:472   */\n  revert\n    /* \"#utility.yul\":484:804   */\ntag_11:\n    /* \"#utility.yul\":528:534   */\n  0x00\n    /* \"#utility.yul\":565:566   */\n  0x02\n    /* \"#utility.yul\":559:563   */\n  dup3\n    /* \"#utility.yul\":555:567   */\n  div\n    /* \"#utility.yul\":545:567   */\n  swap1\n  pop\n    /* \"#utility.yul\":612:613   */\n  0x01\n    /* \"#utility.yul\":606:610   */\n  dup3\n    /* \"#utility.yul\":602:614   */\n  and\n    /* \"#utility.yul\":633:651   */\n  dup1\n    /* \"#utility.yul\":623:704   */\n  tag_33\n  jumpi\n    /* \"#utility.yul\":689:693   */\n  0x7f\n    /* \"#utility.yul\":681:687   */\n  dup3\n    /* \"#utility.yul\":677:694   */\n  and\n    /* \"#utility.yul\":667:694   */\n  swap2\n  pop\n    /* \"#utility.yul\":623:704   */\ntag_33:\n    /* \"#utility.yul\":751:753   */\n  0x20\n    /* \"#utility.yul\":743:749   */\n  dup3\n    /* \"#utility.yul\":740:754   */\n  lt\n    /* \"#utility.yul\":720:738   */\n  dup2\n    /* \"#utility.yul\":717:755   */\n  sub\n    /* \"#utility.yul\":714:798   */\n  tag_34\n  jumpi\n    /* \"#utility.yul\":770:788   */\n  tag_35\n  tag_10\n  jump\t// in\ntag_35:\n    /* \"#utility.yul\":714:798   */\ntag_34:\n    /* \"#utility.yul\":535:804   */\n  pop\n    /* \"#utility.yul\":484:804   */\n  swap2\n  swap1\n  pop\n  jump\t// out\n    /* \"#utility.yul\":810:951   */\ntag_12:\n    /* \"#utility.yul\":859:863   */\n  0x00\n    /* \"#utility.yul\":882:885   */\n  dup2\n    /* \"#utility.yul\":874:885   */\n  swap1\n  pop\n    /* \"#utility.yul\":905:908   */\n  dup2\n    /* \"#utility.yul\":902:903   */\n  0x00\n    /* \"#utility.yul\":895:909   */\n  mstore\n    /* \"#utility.yul\":939:943   */\n  0x20\n    /* \"#utility.yul\":936:937   */\n  0x00\n    /* \"#utility.yul\":926:944   */\n  keccak256\n    /* \"#utility.yul\":918:944   */\n  swap1\n  pop\n    /* \"#utility.yul\":810:951   */\n  swap2\n  swap1\n  pop\n  jump\t// out\n    /* \"#utility.yul\":957:1050   */\ntag_13:\n    /* \"#utility.yul\":994:1000   */\n  0x00\n    /* \"#utility.yul\":1041:1043   */\n  0x20\n    /* \"#utility.yul\":1036:1038   */\n  0x1f\n    /* \"#utility.yul\":1029:1034   */\n  dup4\n    /* \"#utility.yul\":1025:1039   */\n  add\n    /* \"#utility.yul\":1021:1044   */\n  div\n    /* \"#utility.yul\":1011:1044   */\n  swap1\n  pop\n    /* \"#utility.yul\":957:1050   */\n  swap2\n  swap1\n  pop\n  jump\t// out\n    /* \"#utility.yul\":1056:1163   */\ntag_14:\n    /* \"#utility.yul\":1100:1108   */\n  0x00\n    /* \"#utility.yul\":1150:1155   */\n  dup3\n    /* \"#utility.yul\":1144:1148   */\n  dup3\n    /* \"#utility.yul\":1140:1156   */\n  shl\n    /* \"#utility.yul\":1119:1156   */\n  swap1\n  pop\n    /* \"#utility.yul\":1056:1163   */\n  swap3\n  swap2\n  pop\n  pop\n  jump\t// out\n    /* \"#utility.yul\":1169:1562   */\ntag_15:\n    /* \"#utility.yul\":1238:1244   */\n  0x00\n    /* \"#utility.yul\":1288:1289   */\n  0x08\n    /* \"#utility.yul\":1276:1286   */\n  dup4\n    /* \"#utility.yul\":1272:1290   */\n  mul\n    /* \"#utility.yul\":1311:1408   */\n  tag_40\n    /* \"#utility.yul\":1341:1407   */\n  0xffffffffffffffffffffffffffffffffffffffffffffffffffffffffffffffff\n    /* \"#utility.yul\":1330:1339   */\n  dup3\n    /* \"#utility.yul\":1311:1408   */\n  tag_14\n  jump\t// in\ntag_40:\n    /* \"#utility.yul\":1429:1468   */\n  tag_41\n    /* \"#utility.yul\":1459:1467   */\n  dup7\n    /* \"#utility.yul\":1448:1457   */\n  dup4\n    /* \"#utility.yul\":1429:1468   */\n  tag_14\n  jump\t// in\ntag_41:\n    /* \"#utility.yul\":1417:1468   */\n  swap6\n  pop\n    /* \"#utility.yul\":1501:1505   */\n  dup1\n    /* \"#utility.yul\":1497:1506   */\n  not\n    /* \"#utility.yul\":1490:1495   */\n  dup5\n    /* \"#utility.yul\":1486:1507   */\n  and\n    /* \"#utility.yul\":1477:1507   */\n  swap4\n  pop\n    /* \"#utility.yul\":1550:1554   */\n  dup1\n    /* \"#utility.yul\":1540:1548   */\n  dup7\n    /* \"#utility.yul\":1536:1555   */\n  and\n    /* \"#utility.yul\":1529:1534   */\n  dup5\n    /* \"#utility.yul\":1526:1556   */\n  or\n    /* \"#utility.yul\":1516:1556   */\n  swap3\n  pop\n    /* \"#utility.yul\":1245:1562   */\n  pop\n  pop\n    /* \"#utility.yul\":1169:1562   */\n  swap4\n  swap3\n  pop\n  pop\n  pop\n  jump\t// out\n    /* \"#utility.yul\":1568:1645   */\ntag_16:\n    /* \"#utility.yul\":1605:1612   */\n  0x00\n    /* \"#utility.yul\":1634:1639   */\n  dup2\n    /* \"#utility.yul\":1623:1639   */\n  swap1\n  pop\n    /* \"#utility.yul\":1568:1645   */\n  swap2\n  swap1\n  pop\n  jump\t// out\n    /* \"#utility.yul\":1651:1711   */\ntag_17:\n    /* \"#utility.yul\":1679:1682   */\n  0x00\n    /* \"#utility.yul\":1700:1705   */\n  dup2\n    /* \"#utility.yul\":1693:1705   */\n  swap1\n  pop\n    /* \"#utility.yul\":1651:1711   */\n  swap2\n  swap1\n  pop\n  jump\t// out\n    /* \"#utility.yul\":1717:1859   */\ntag_18:\n    /* \"#utility.yul\":1767:1776   */\n  0x00\n    /* \"#utility.yul\":1800:1853   */\n  tag_45\n    /* \"#utility.yul\":1818:1852   */\n  tag_46\n    /* \"#utility.yul\":1827:1851   */\n  tag_47\n    /* \"#utility.yul\":1845:1850   */\n  dup5\n    /* \"#utility.yul\":1827:1851   */\n  tag_16\n  jump\t// in\ntag_47:\n    /* \"#utility.yul\":1818:1852   */\n  tag_17\n  jump\t// in\ntag_46:\n    /* \"#utility.yul\":1800:1853   */\n  tag_16\n  jump\t// in\ntag_45:\n    /* \"#utility.yul\":1787:1853   */\n  swap1\n  pop\n    /* \"#utility.yul\":1717:1859   */\n  swap2\n  swap1\n  pop\n  jump\t// out\n    /* \"#utility.yul\":1865:1940   */\ntag_19:\n    /* \"#utility.yul\":1908:1911   */\n  0x00\n    /* \"#utility.yul\":1929:1934   */\n  dup2\n    /* \"#utility.yul\":1922:1934   */\n  swap1\n  pop\n    /* \"#utility.yul\":1865:1940   */\n  swap2\n  swap1\n  pop\n  jump\t// out\n    /* \"#utility.yul\":1946:2215   */\ntag_20:\n    /* \"#utility.yul\":2056:2095   */\n  tag_50\n    /* \"#utility.yul\":2087:2094   */\n  dup4\n    /* \"#utility.yul\":2056:2095   */\n  tag_18\n  jump\t// in\ntag_50:\n    /* \"#utility.yul\":2117:2208   */\n  tag_51\n    /* \"#utility.yul\":2166:2207   */\n  tag_52\n    /* \"#utility.yul\":2190:2206   */\n  dup3\n    /* \"#utility.yul\":2166:2207   */\n  tag_19\n  jump\t// in\ntag_52:\n    /* \"#utility.yul\":2158:2164   */\n  dup5\n    /* \"#utility.yul\":2151:2155   */\n  dup5\n    /* \"#utility.yul\":2145:2156   */\n  sload\n    /* \"#utility.yul\":2117:2208   */\n  tag_15\n  jump\t// in\ntag_51:\n    /* \"#utility.yul\":2111:2115   */\n  dup3\n    /* \"#utility.yul\":2104:2209   */\n  sstore\n    /* \"#utility.yul\":2022:2215   */\n  pop\n    /* \"#utility.yul\":1946:2215   */\n  pop\n  pop\n  pop\n  jump\t// out\n    /* \"#utility.yul\":2221:2294   */\ntag_21:\n    /* \"#utility.yul\":2266:2269   */\n  0x00\n    /* \"#utility.yul\":2221:2294   */\n  swap1\n  jump\t// out\n    /* \"#utility.yul\":2300:2489   */\ntag_22:\n    /* \"#utility.yul\":2377:2409   */\n  tag_55\n  tag_21\n  jump\t// in\ntag_55:\n    /* \"#utility.yul\":2418:2483   */\n  tag_56\n    /* \"#utility.yul\":2476:2482   */\n  dup2\n    /* \"#utility.yul\":2468:2474   */\n  dup5\n    /* \"#utility.yul\":2462:2466   */\n  dup5\n    /* \"#utility.yul\":2418:2483   */\n  tag_20\n  jump\t// in\ntag_56:\n    /* \"#utility.yul\":2353:2489   */\n  pop\n    /* \"#utility.yul\":2300:2489   */\n  pop\n  pop\n  jump\t// out\n    /* \"#utility.yul\":2495:2681   */\ntag_23:\n    /* \"#utility.yul\":2555:2675   */\ntag_58:\n    /* \"#utility.yul\":2572:2575   */\n  dup2\n    /* \"#utility.yul\":2565:2570   */\n  dup2\n    /* \"#utility.yul\":2562:2576   */\n  lt\n    /* \"#utility.yul\":2555:2675   */\n  iszero\n  tag_60\n  jumpi\n    /* \"#utility.yul\":2626:2665   */\n  tag_61\n    /* \"#utility.yul\":2663:2664   */\n  0x00\n    /* \"#utility.yul\":2656:2661   */\n  dup3\n    /* \"#utility.yul\":2626:2665   */\n  tag_22\n  jump\t// in\ntag_61:\n    /* \"#utility.yul\":2599:2600   */\n  0x01\n    /* \"#utility.yul\":2592:2597   */\n  dup2\n    /* \"#utility.yul\":2588:2601   */\n  add\n    /* \"#utility.yul\":2579:2601   */\n  swap1\n  pop\n    /* \"#utility.yul\":2555:2675   */\n  jump(tag_58)\ntag_60:\n    /* \"#utility.yul\":2495:2681   */\n  pop\n  pop\n  jump\t// out\n    /* \"#utility.yul\":2687:3230   */\ntag_24:\n    /* \"#utility.yul\":2788:2790   */\n  0x1f\n    /* \"#utility.yul\":2783:2786   */\n  dup3\n    /* \"#utility.yul\":2780:2791   */\n  gt\n    /* \"#utility.yul\":2777:3223   */\n  iszero\n  tag_63\n  jumpi\n    /* \"#utility.yul\":2822:2860   */\n  tag_64\n    /* \"#utility.yul\":2854:2859   */\n  dup2\n    /* \"#utility.yul\":2822:2860   */\n  tag_12\n  jump\t// in\ntag_64:\n    /* \"#utility.yul\":2906:2935   */\n  tag_65\n    /* \"#utility.yul\":2924:2934   */\n  dup5\n    /* \"#utility.yul\":2906:2935   */\n  tag_13\n  jump\t// in\ntag_65:\n    /* \"#utility.yul\":2896:2904   */\n  dup2\n    /* \"#utility.yul\":2892:2936   */\n  add\n    /* \"#utility.yul\":3089:3091   */\n  0x20\n    /* \"#utility.yul\":3077:3087   */\n  dup6\n    /* \"#utility.yul\":3074:3092   */\n  lt\n    /* \"#utility.yul\":3071:3120   */\n  iszero\n  tag_66\n  jumpi\n    /* \"#utility.yul\":3110:3118   */\n  dup2\n    /* \"#utility.yul\":3095:3118   */\n  swap1\n  pop\n    /* \"#utility.yul\":3071:3120   */\ntag_66:\n    /* \"#utility.yul\":3133:3213   */\n  tag_67\n    /* \"#utility.yul\":3189:3211   */\n  tag_68\n    /* \"#utility.yul\":3207:3210   */\n  dup6\n    /* \"#utility.yul\":3189:3211   */\n  tag_13\n  jump\t// in\ntag_68:\n    /* \"#utility.yul\":3179:3187   */\n  dup4\n    /* \"#utility.yul\":3175:3212   */\n  add\n    /* \"#utility.yul\":3162:3173   */\n  dup3\n    /* \"#utility.yul\":3133:3213   */\n  tag_23\n  jump\t// in\ntag_67:\n    /* \"#utility.yul\":2792:3223   */\n  pop\n  pop\n    /* \"#utility.yul\":2777:3223   */\ntag_63:\n    /* \"#utility.yul\":2687:3230   */\n  pop\n  pop\n  pop\n  jump\t// out\n    /* \"#utility.yul\":3236:3353   */\ntag_25:\n    /* \"#utility.yul\":3290:3298   */\n  0x00\n    /* \"#utility.yul\":3340:3345   */\n  dup3\n    /* \"#utility.yul\":3334:3338   */\n  dup3\n    /* \"#utility.yul\":3330:3346   */\n  shr\n    /* \"#utility.yul\":3309:3346   */\n  swap1\n  pop\n    /* \"#utility.yul\":3236:3353   */\n  swap3\n  swap2\n  pop\n  pop\n  jump\t// out\n    /* \"#utility.yul\":3359:3528   */\ntag_26:\n    /* \"#utility.yul\":3403:3409   */\n  0x00\n    /* \"#utility.yul\":3436:3487   */\n  tag_71\n    /* \"#utility.yul\":3484:3485   */\n  0x00\n    /* \"#utility.yul\":3480:3486   */\n  not\n    /* \"#utility.yul\":3472:3477   */\n  dup5\n    /* \"#utility.yul\":3469:3470   */\n  0x08\n    /* \"#utility.yul\":3465:3478   */\n  mul\n    /* \"#utility.yul\":3436:3487   */\n  tag_25\n  jump\t// in\ntag_71:\n    /* \"#utility.yul\":3432:3488   */\n  not\n    /* \"#utility.yul\":3517:3521   */\n  dup1\n    /* \"#utility.yul\":3511:3515   */\n  dup4\n    /* \"#utility.yul\":3507:3522   */\n  and\n    /* \"#utility.yul\":3497:3522   */\n  swap2\n  pop\n    /* \"#utility.yul\":3410:3528   */\n  pop\n    /* \"#utility.yul\":3359:3528   */\n  swap3\n  swap2\n  pop\n  pop\n  jump\t// out\n    /* \"#utility.yul\":3533:3828   */\ntag_27:\n    /* \"#utility.yul\":3609:3613   */\n  0x00\n    /* \"#utility.yul\":3755:3784   */\n  tag_73\n    /* \"#utility.yul\":3780:3783   */\n  dup4\n    /* \"#utility.yul\":3774:3778   */\n  dup4\n    /* \"#utility.yul\":3755:3784   */\n  tag_26\n  jump\t// in\ntag_73:\n    /* \"#utility.yul\":3747:3784   */\n  swap2\n  pop\n    /* \"#utility.yul\":3817:3820   */\n  dup3\n    /* \"#utility.yul\":3814:3815   */\n  0x02\n    /* \"#utility.yul\":3810:3821   */\n  mul\n    /* \"#utility.yul\":3804:3808   */\n  dup3\n    /* \"#utility.yul\":3801:3822   */\n  or\n    /* \"#utility.yul\":3793:3822   */\n  swap1\n  pop\n    /* \"#utility.yul\":3533:3828   */\n  swap3\n  swap2\n  pop\n  pop\n  jump\t// out\n    /* \"#utility.yul\":3833:5228   */\ntag_2:\n    /* \"#utility.yul\":3950:3987   */\n  tag_75\n    /* \"#utility.yul\":3983:3986   */\n  dup3\n    /* \"#utility.yul\":3950:3987   */\n  tag_8\n  jump\t// in\ntag_75:\n    /* \"#utility.yul\":4052:4070   */\n  0xffffffffffffffff\n    /* \"#utility.yul\":4044:4050   */\n  dup2\n    /* \"#utility.yul\":4041:4071   */\n  gt\n    /* \"#utility.yul\":4038:4094   */\n  iszero\n  tag_76\n  jumpi\n    /* \"#utility.yul\":4074:4092   */\n  tag_77\n  tag_9\n  jump\t// in\ntag_77:\n    /* \"#utility.yul\":4038:4094   */\ntag_76:\n    /* \"#utility.yul\":4118:4156   */\n  tag_78\n    /* \"#utility.yul\":4150:4154   */\n  dup3\n    /* \"#utility.yul\":4144:4155   */\n  sload\n    /* \"#utility.yul\":4118:4156   */\n  tag_11\n  jump\t// in\ntag_78:\n    /* \"#utility.yul\":4203:4270   */\n  tag_79\n    /* \"#utility.yul\":4263:4269   */\n  dup3\n    /* \"#utility.yul\":4255:4261   */\n  dup3\n    /* \"#utility.yul\":4249:4253   */\n  dup6\n    /* \"#utility.yul\":4203:4270   */\n  tag_24\n  jump\t// in\ntag_79:\n    /* \"#utility.yul\":4297:4298   */\n  0x00\n    /* \"#utility.yul\":4321:4325   */\n  0x20\n    /* \"#utility.yul\":4308:4325   */\n  swap1\n  pop\n    /* \"#utility.yul\":4353:4355   */\n  0x1f\n    /* \"#utility.yul\":4345:4351   */\n  dup4\n    /* \"#utility.yul\":4342:4356   */\n  gt\n    /* \"#utility.yul\":4370:4371   */\n  0x01\n    /* \"#utility.yul\":4365:4983   */\n  dup2\n  eq\n  tag_81\n  jumpi\n    /* \"#utility.yul\":5027:5028   */\n  0x00\n    /* \"#utility.yul\":5044:5050   */\n  dup5\n    /* \"#utility.yul\":5041:5118   */\n  iszero\n  tag_82\n  jumpi\n    /* \"#utility.yul\":5093:5102   */\n  dup3\n    /* \"#utility.yul\":5088:5091   */\n  dup8\n    /* \"#utility.yul\":5084:5103   */\n  add\n    /* \"#utility.yul\":5078:5104   */\n  mload\n    /* \"#utility.yul\":5069:5104   */\n  swap1\n  pop\n    /* \"#utility.yul\":5041:5118   */\ntag_82:\n    /* \"#utility.yul\":5144:5211   */\n  tag_83\n    /* \"#utility.yul\":5204:5210   */\n  dup6\n    /* \"#utility.yul\":5197:5202   */\n  dup3\n    /* \"#utility.yul\":5144:5211   */\n  tag_27\n  jump\t// in\ntag_83:\n    /* \"#utility.yul\":5138:5142   */\n  dup7\n    /* \"#utility.yul\":5131:5212   */\n  sstore\n    /* \"#utility.yul\":5000:5222   */\n  pop\n    /* \"#utility.yul\":4335:5222   */\n  jump(tag_80)\n    /* \"#utility.yul\":4365:4983   */\ntag_81:\n    /* \"#utility.yul\":4417:4421   */\n  0x1f\n    /* \"#utility.yul\":4413:4422   */\n  not\n    /* \"#utility.yul\":4405:4411   */\n  dup5\n    /* \"#utility.yul\":4401:4423   */\n  and\n    /* \"#utility.yul\":4451:4488   */\n  tag_84\n    /* \"#utility.yul\":4483:4487   */\n  dup7\n    /* \"#utility.yul\":4451:4488   */\n  tag_12\n  jump\t// in\ntag_84:\n    /* \"#utility.yul\":4510:4511   */\n  0x00\n    /* \"#utility.yul\":4524:4732   */\ntag_85:\n    /* \"#utility.yul\":4538:4545   */\n  dup3\n    /* \"#utility.yul\":4535:4536   */\n  dup2\n    /* \"#utility.yul\":4532:4546   */\n  lt\n    /* \"#utility.yul\":4524:4732   */\n  iszero\n  tag_87\n  jumpi\n    /* \"#utility.yul\":4617:4626   */\n  dup5\n    /* \"#utility.yul\":4612:4615   */\n  dup10\n    /* \"#utility.yul\":4608:4627   */\n  add\n    /* \"#utility.yul\":4602:4628   */\n  mload\n    /* \"#utility.yul\":4594:4600   */\n  dup3\n    /* \"#utility.yul\":4587:4629   */\n  sstore\n    /* \"#utility.yul\":4668:4669   */\n  0x01\n    /* \"#utility.yul\":4660:4666   */\n  dup3\n    /* \"#utility.yul\":4656:4670   */\n  add\n    /* \"#utility.yul\":4646:4670   */\n  swap2\n  pop\n    /* \"#utility.yul\":4715:4717   */\n  0x20\n    /* \"#utility.yul\":4704:4713   */\n  dup6\n    /* \"#utility.yul\":4700:4718   */\n  add\n    /* \"#utility.yul\":4687:4718   */\n  swap5\n  pop\n    /* \"#utility.yul\":4561:4565   */\n  0x20\n    /* \"#utility.yul\":4558:4559   */\n  dup2\n    /* \"#utility.yul\":4554:4566   */\n  add\n    /* \"#utility.yul\":4549:4566   */\n  swap1\n  pop\n    /* \"#utility.yul\":4524:4732   */\n  jump(tag_85)\ntag_87:\n    /* \"#utility.yul\":4760:4766   */\n  dup7\n    /* \"#utility.yul\":4751:4758   */\n  dup4\n    /* \"#utility.yul\":4748:4767   */\n  lt\n    /* \"#utility.yul\":4745:4924   */\n  iszero\n  tag_88\n  jumpi\n    /* \"#utility.yul\":4818:4827   */\n  dup5\n    /* \"#utility.yul\":4813:4816   */\n  dup10\n    /* \"#utility.yul\":4809:4828   */\n  add\n    /* \"#utility.yul\":4803:4829   */\n  mload\n    /* \"#utility.yul\":4861:4909   */\n  tag_89\n    /* \"#utility.yul\":4903:4907   */\n  0x1f\n    /* \"#utility.yul\":4895:4901   */\n  dup10\n    /* \"#utility.yul\":4891:4908   */\n  and\n    /* \"#utility.yul\":4880:4889   */\n  dup3\n    /* \"#utility.yul\":4861:4909   */\n  tag_26\n  jump\t// in\ntag_89:\n    /* \"#utility.yul\":4853:4859   */\n  dup4\n    /* \"#utility.yul\":4846:4910   */\n  sstore\n    /* \"#utility.yul\":4768:4924   */\n  pop\n    /* \"#utility.yul\":4745:4924   */\ntag_88:\n    /* \"#utility.yul\":4970:4971   */\n  0x01\n    /* \"#utility.yul\":4966:4967   */\n  0x02\n    /* \"#utility.yul\":4958:4964   */\n  dup9\n    /* \"#utility.yul\":4954:4968   */\n  mul\n    /* \"#utility.yul\":4950:4972   */\n  add\n    /* \"#utility.yul\":4944:4948   */\n  dup9\n    /* \"#utility.yul\":4937:4973   */\n  sstore\n    /* \"#utility.yul\":4372:4983   */\n  pop\n  pop\n  pop\n    /* \"#utility.yul\":4335:5222   */\ntag_80:\n  pop\n    /* \"#utility.yul\":3925:5228   */\n  pop\n  pop\n  pop\n    /* \"#utility.yul\":3833:5228   */\n  pop\n  pop\n  jump\t// out\n    /* \"contracts/mod3.sol\":137:4356  contract TokenContract {... */\ntag_7:\n  dataSize(sub_0)\n  dup1\n  dataOffset(sub_0)\n  0x00\n  codecopy\n  0x00\n  return\nstop\n\nsub_0: assembly {\n        /* \"contracts/mod3.sol\":137:4356  contract TokenContract {... */\n      mstore(0x40, 0x80)\n      callvalue\n      dup1\n      iszero\n      tag_1\n      jumpi\n      0x00\n      dup1\n      revert\n    tag_1:\n      pop\n      jumpi(tag_2, lt(calldatasize, 0x04))\n      shr(0xe0, calldataload(0x00))\n      dup1\n      0x9ab03dcb\n      gt\n      tag_15\n      jumpi\n      dup1\n      0x9ab03dcb\n      eq\n      tag_9\n      jumpi\n      dup1\n      0x9dc29fac\n      eq\n      tag_10\n      jumpi\n      dup1\n      0xa9059cbb\n      eq\n      tag_11\n      jumpi\n      dup1\n      0xce606ee0\n      eq\n      tag_12\n      jumpi\n      dup1\n      0xdd62ed3e\n      eq\n      tag_13\n      jumpi\n      dup1\n      0xe5442026\n      eq\n      tag_14\n      jumpi\n      jump(tag_2)\n    tag_15:\n      dup1\n      0x047fc9aa\n      eq\n      tag_3\n      jumpi\n      dup1\n      0x095ea7b3\n      eq\n      tag_4\n      jumpi\n      dup1\n      0x23b872dd\n      eq\n      tag_5\n      jumpi\n      dup1\n      0x40c10f19\n      eq\n      tag_6\n      jumpi\n      dup1\n      0x4589fe0c\n      eq\n      tag_7\n      jumpi\n      dup1\n      0x70a08231\n      eq\n      tag_8\n      jumpi\n    tag_2:\n      0x00\n      dup1\n      revert\n        /* \"contracts/mod3.sol\":270:293  uint public supply = 10 */\n    tag_3:\n      tag_16\n      tag_17\n      jump\t// in\n    tag_16:\n      mload(0x40)\n      tag_18\n      swap2\n      swap1\n      tag_19\n      jump\t// in\n    tag_18:\n      mload(0x40)\n      dup1\n      swap2\n      sub\n      swap1\n      return\n        /* \"contracts/mod3.sol\":2601:2881  function approve(address spender, uint256 amount) public returns (bool) {... */\n    tag_4:\n      tag_20\n      0x04\n      dup1\n      calldatasize\n      sub\n      dup2\n      add\n      swap1\n      tag_21\n      swap2\n      swap1\n      tag_22\n      jump\t// in\n    tag_21:\n      tag_23\n      jump\t// in\n    tag_20:\n      mload(0x40)\n      tag_24\n      swap2\n      swap1\n      tag_25\n      jump\t// in\n    tag_24:\n      mload(0x40)\n      dup1\n      swap2\n      sub\n      swap1\n      return\n        /* \"contracts/mod3.sol\":3165:3867  function transferFrom(address sender, address recipient, uint256 amount) public returns (bool) {... */\n    tag_5:\n      tag_26\n      0x04\n      dup1\n      calldatasize\n      sub\n      dup2\n      add\n      swap1\n      tag_27\n      swap2\n      swap1\n      tag_28\n      jump\t// in\n    tag_27:\n      tag_29\n      jump\t// in\n    tag_26:\n      mload(0x40)\n      tag_30\n      swap2\n      swap1\n      tag_25\n      jump\t// in\n    tag_30:\n      mload(0x40)\n      dup1\n      swap2\n      sub\n      swap1\n      return\n        /* \"contracts/mod3.sol\":1376:1627  function mint(address recipient, uint amount) public onlyContractOwner {... */\n    tag_6:\n      tag_31\n      0x04\n      dup1\n      calldatasize\n      sub\n      dup2\n      add\n      swap1\n      tag_32\n      swap2\n      swap1\n      tag_22\n      jump\t// in\n    tag_32:\n      tag_33\n      jump\t// in\n    tag_31:\n      stop\n        /* \"contracts/mod3.sol\":192:224  string public firstName = \"yash\" */\n    tag_7:\n      tag_34\n      tag_35\n      jump\t// in\n    tag_34:\n      mload(0x40)\n      tag_36\n      swap2\n      swap1\n      tag_37\n      jump\t// in\n    tag_36:\n      mload(0x40)\n      dup1\n      swap2\n      sub\n      swap1\n      return\n        /* \"contracts/mod3.sol\":3925:4032  function balanceOf(address account) public view returns (uint) {... */\n    tag_8:\n      tag_38\n      0x04\n      dup1\n      calldatasize\n      sub\n      dup2\n      add\n      swap1\n      tag_39\n      swap2\n      swap1\n      tag_40\n      jump\t// in\n    tag_39:\n      tag_41\n      jump\t// in\n    tag_38:\n      mload(0x40)\n      tag_42\n      swap2\n      swap1\n      tag_19\n      jump\t// in\n    tag_42:\n      mload(0x40)\n      dup1\n      swap2\n      sub\n      swap1\n      return\n        /* \"contracts/mod3.sol\":231:263  string public lastName = \"kumar\" */\n    tag_9:\n      tag_43\n      tag_44\n      jump\t// in\n    tag_43:\n      mload(0x40)\n      tag_45\n      swap2\n      swap1\n      tag_37\n      jump\t// in\n    tag_45:\n      mload(0x40)\n      dup1\n      swap2\n      sub\n      swap1\n      return\n        /* \"contracts/mod3.sol\":1676:2004  function burn(address account, uint amount) public onlyContractOwner {... */\n    tag_10:\n      tag_46\n      0x04\n      dup1\n      calldatasize\n      sub\n      dup2\n      add\n      swap1\n      tag_47\n      swap2\n      swap1\n      tag_22\n      jump\t// in\n    tag_47:\n      tag_48\n      jump\t// in\n    tag_46:\n      stop\n        /* \"contracts/mod3.sol\":2079:2518  function transfer(address recipient, uint256 amount) public {... */\n    tag_11:\n      tag_49\n      0x04\n      dup1\n      calldatasize\n      sub\n      dup2\n      add\n      swap1\n      tag_50\n      swap2\n      swap1\n      tag_22\n      jump\t// in\n    tag_50:\n      tag_51\n      jump\t// in\n    tag_49:\n      stop\n        /* \"contracts/mod3.sol\":340:368  address public contractOwner */\n    tag_12:\n      tag_52\n      tag_53\n      jump\t// in\n    tag_52:\n      mload(0x40)\n      tag_54\n      swap2\n      swap1\n      tag_55\n      jump\t// in\n    tag_54:\n      mload(0x40)\n      dup1\n      swap2\n      sub\n      swap1\n      return\n        /* \"contracts/mod3.sol\":2943:3077  function allowance(address owner, address spender) public view returns (uint256) {... */\n    tag_13:\n      tag_56\n      0x04\n      dup1\n      calldatasize\n      sub\n      dup2\n      add\n      swap1\n      tag_57\n      swap2\n      swap1\n      tag_58\n      jump\t// in\n    tag_57:\n      tag_59\n      jump\t// in\n    tag_56:\n      mload(0x40)\n      tag_60\n      swap2\n      swap1\n      tag_19\n      jump\t// in\n    tag_60:\n      mload(0x40)\n      dup1\n      swap2\n      sub\n      swap1\n      return\n        /* \"contracts/mod3.sol\":4095:4353  function updateTokenMetadata(string memory newFirstName, string memory newLastName) public onlyContractOwner {... */\n    tag_14:\n      tag_61\n      0x04\n      dup1\n      calldatasize\n      sub\n      dup2\n      add\n      swap1\n      tag_62\n      swap2\n      swap1\n      tag_63\n      jump\t// in\n    tag_62:\n      tag_64\n      jump\t// in\n    tag_61:\n      stop\n        /* \"contracts/mod3.sol\":270:293  uint public supply = 10 */\n    tag_17:\n      sload(0x02)\n      dup2\n      jump\t// out\n        /* \"contracts/mod3.sol\":2601:2881  function approve(address spender, uint256 amount) public returns (bool) {... */\n    tag_23:\n        /* \"contracts/mod3.sol\":2667:2671  bool */\n      0x00\n        /* \"contracts/mod3.sol\":2711:2712  0 */\n      dup1\n        /* \"contracts/mod3.sol\":2692:2713  spender != address(0) */\n      0xffffffffffffffffffffffffffffffffffffffff\n      and\n        /* \"contracts/mod3.sol\":2692:2699  spender */\n      dup4\n        /* \"contracts/mod3.sol\":2692:2713  spender != address(0) */\n      0xffffffffffffffffffffffffffffffffffffffff\n      and\n      sub\n        /* \"contracts/mod3.sol\":2684:2742  require(spender != address(0), \"Invalid spender address.\") */\n      tag_66\n      jumpi\n      mload(0x40)\n      0x08c379a000000000000000000000000000000000000000000000000000000000\n      dup2\n      mstore\n      0x04\n      add\n      tag_67\n      swap1\n      tag_68\n      jump\t// in\n    tag_67:\n      mload(0x40)\n      dup1\n      swap2\n      sub\n      swap1\n      revert\n    tag_66:\n        /* \"contracts/mod3.sol\":2790:2796  amount */\n      dup2\n        /* \"contracts/mod3.sol\":2755:2766  _allowances */\n      0x05\n        /* \"contracts/mod3.sol\":2755:2778  _allowances[msg.sender] */\n      0x00\n        /* \"contracts/mod3.sol\":2767:2777  msg.sender */\n      caller\n        /* \"contracts/mod3.sol\":2755:2778  _allowances[msg.sender] */\n      0xffffffffffffffffffffffffffffffffffffffff\n      and\n      0xffffffffffffffffffffffffffffffffffffffff\n      and\n      dup2\n      mstore\n      0x20\n      add\n      swap1\n      dup2\n      mstore\n      0x20\n      add\n      0x00\n      keccak256\n        /* \"contracts/mod3.sol\":2755:2787  _allowances[msg.sender][spender] */\n      0x00\n        /* \"contracts/mod3.sol\":2779:2786  spender */\n      dup6\n        /* \"contracts/mod3.sol\":2755:2787  _allowances[msg.sender][spender] */\n      0xffffffffffffffffffffffffffffffffffffffff\n      and\n      0xffffffffffffffffffffffffffffffffffffffff\n      and\n      dup2\n      mstore\n      0x20\n      add\n      swap1\n      dup2\n      mstore\n      0x20\n      add\n      0x00\n      keccak256\n        /* \"contracts/mod3.sol\":2755:2796  _allowances[msg.sender][spender] = amount */\n      dup2\n      swap1\n      sstore\n      pop\n        /* \"contracts/mod3.sol\":2835:2842  spender */\n      dup3\n        /* \"contracts/mod3.sol\":2814:2851  Approval(msg.sender, spender, amount) */\n      0xffffffffffffffffffffffffffffffffffffffff\n      and\n        /* \"contracts/mod3.sol\":2823:2833  msg.sender */\n      caller\n        /* \"contracts/mod3.sol\":2814:2851  Approval(msg.sender, spender, amount) */\n      0xffffffffffffffffffffffffffffffffffffffff\n      and\n      0x8c5be1e5ebec7d5bd14f71427d1e84f3dd0314c0f7b2291e5b200ac8c7c3b925\n        /* \"contracts/mod3.sol\":2844:2850  amount */\n      dup5\n        /* \"contracts/mod3.sol\":2814:2851  Approval(msg.sender, spender, amount) */\n      mload(0x40)\n      tag_69\n      swap2\n      swap1\n      tag_19\n      jump\t// in\n    tag_69:\n      mload(0x40)\n      dup1\n      swap2\n      sub\n      swap1\n      log3\n        /* \"contracts/mod3.sol\":2869:2873  true */\n      0x01\n        /* \"contracts/mod3.sol\":2862:2873  return true */\n      swap1\n      pop\n        /* \"contracts/mod3.sol\":2601:2881  function approve(address spender, uint256 amount) public returns (bool) {... */\n      swap3\n      swap2\n      pop\n      pop\n      jump\t// out\n        /* \"contracts/mod3.sol\":3165:3867  function transferFrom(address sender, address recipient, uint256 amount) public returns (bool) {... */\n    tag_29:\n        /* \"contracts/mod3.sol\":3254:3258  bool */\n      0x00\n        /* \"contracts/mod3.sol\":3297:3298  0 */\n      dup1\n        /* \"contracts/mod3.sol\":3279:3299  sender != address(0) */\n      0xffffffffffffffffffffffffffffffffffffffff\n      and\n        /* \"contracts/mod3.sol\":3279:3285  sender */\n      dup5\n        /* \"contracts/mod3.sol\":3279:3299  sender != address(0) */\n      0xffffffffffffffffffffffffffffffffffffffff\n      and\n      sub\n        /* \"contracts/mod3.sol\":3271:3327  require(sender != address(0), \"Invalid sender address.\") */\n      tag_71\n      jumpi\n      mload(0x40)\n      0x08c379a000000000000000000000000000000000000000000000000000000000\n      dup2\n      mstore\n      0x04\n      add\n      tag_72\n      swap1\n      tag_73\n      jump\t// in\n    tag_72:\n      mload(0x40)\n      dup1\n      swap2\n      sub\n      swap1\n      revert\n    tag_71:\n        /* \"contracts/mod3.sol\":3367:3368  0 */\n      0x00\n        /* \"contracts/mod3.sol\":3346:3369  recipient != address(0) */\n      0xffffffffffffffffffffffffffffffffffffffff\n      and\n        /* \"contracts/mod3.sol\":3346:3355  recipient */\n      dup4\n        /* \"contracts/mod3.sol\":3346:3369  recipient != address(0) */\n      0xffffffffffffffffffffffffffffffffffffffff\n      and\n      sub\n        /* \"contracts/mod3.sol\":3338:3400  require(recipient != address(0), \"Invalid recipient address.\") */\n      tag_74\n      jumpi\n      mload(0x40)\n      0x08c379a000000000000000000000000000000000000000000000000000000000\n      dup2\n      mstore\n      0x04\n      add\n      tag_75\n      swap1\n      tag_76\n      jump\t// in\n    tag_75:\n      mload(0x40)\n      dup1\n      swap2\n      sub\n      swap1\n      revert\n    tag_74:\n        /* \"contracts/mod3.sol\":3428:3429  0 */\n      0x00\n        /* \"contracts/mod3.sol\":3419:3425  amount */\n      dup3\n        /* \"contracts/mod3.sol\":3419:3429  amount > 0 */\n      gt\n        /* \"contracts/mod3.sol\":3411:3467  require(amount > 0, \"Transfer amount must be positive.\") */\n      tag_77\n      jumpi\n      mload(0x40)\n      0x08c379a000000000000000000000000000000000000000000000000000000000\n      dup2\n      mstore\n      0x04\n      add\n      tag_78\n      swap1\n      tag_79\n      jump\t// in\n    tag_78:\n      mload(0x40)\n      dup1\n      swap2\n      sub\n      swap1\n      revert\n    tag_77:\n        /* \"contracts/mod3.sol\":3507:3513  amount */\n      dup2\n        /* \"contracts/mod3.sol\":3486:3495  _balances */\n      0x04\n        /* \"contracts/mod3.sol\":3486:3503  _balances[sender] */\n      0x00\n        /* \"contracts/mod3.sol\":3496:3502  sender */\n      dup7\n        /* \"contracts/mod3.sol\":3486:3503  _balances[sender] */\n      0xffffffffffffffffffffffffffffffffffffffff\n      and\n      0xffffffffffffffffffffffffffffffffffffffff\n      and\n      dup2\n      mstore\n      0x20\n      add\n      swap1\n      dup2\n      mstore\n      0x20\n      add\n      0x00\n      keccak256\n      sload\n        /* \"contracts/mod3.sol\":3486:3513  _balances[sender] >= amount */\n      lt\n      iszero\n        /* \"contracts/mod3.sol\":3478:3552  require(_balances[sender] >= amount, \"Insufficient balance for transfer.\") */\n      tag_80\n      jumpi\n      mload(0x40)\n      0x08c379a000000000000000000000000000000000000000000000000000000000\n      dup2\n      mstore\n      0x04\n      add\n      tag_81\n      swap1\n      tag_82\n      jump\t// in\n    tag_81:\n      mload(0x40)\n      dup1\n      swap2\n      sub\n      swap1\n      revert\n    tag_80:\n        /* \"contracts/mod3.sol\":3606:3612  amount */\n      dup2\n        /* \"contracts/mod3.sol\":3571:3582  _allowances */\n      0x05\n        /* \"contracts/mod3.sol\":3571:3590  _allowances[sender] */\n      0x00\n        /* \"contracts/mod3.sol\":3583:3589  sender */\n      dup7\n        /* \"contracts/mod3.sol\":3571:3590  _allowances[sender] */\n      0xffffffffffffffffffffffffffffffffffffffff\n      and\n      0xffffffffffffffffffffffffffffffffffffffff\n      and\n      dup2\n      mstore\n      0x20\n      add\n      swap1\n      dup2\n      mstore\n      0x20\n      add\n      0x00\n      keccak256\n        /* \"contracts/mod3.sol\":3571:3602  _allowances[sender][msg.sender] */\n      0x00\n        /* \"contracts/mod3.sol\":3591:3601  msg.sender */\n      caller\n        /* \"contracts/mod3.sol\":3571:3602  _allowances[sender][msg.sender] */\n      0xffffffffffffffffffffffffffffffffffffffff\n      and\n      0xffffffffffffffffffffffffffffffffffffffff\n      and\n      dup2\n      mstore\n      0x20\n      add\n      swap1\n      dup2\n      mstore\n      0x20\n      add\n      0x00\n      keccak256\n      sload\n        /* \"contracts/mod3.sol\":3571:3612  _allowances[sender][msg.sender] >= amount */\n      lt\n      iszero\n        /* \"contracts/mod3.sol\":3563:3651  require(_allowances[sender][msg.sender] >= amount, \"Transfer amount exceeds allowance.\") */\n      tag_83\n      jumpi\n      mload(0x40)\n      0x08c379a000000000000000000000000000000000000000000000000000000000\n      dup2\n      mstore\n      0x04\n      add\n      tag_84\n      swap1\n      tag_85\n      jump\t// in\n    tag_84:\n      mload(0x40)\n      dup1\n      swap2\n      sub\n      swap1\n      revert\n    tag_83:\n        /* \"contracts/mod3.sol\":3685:3691  amount */\n      dup2\n        /* \"contracts/mod3.sol\":3664:3673  _balances */\n      0x04\n        /* \"contracts/mod3.sol\":3664:3681  _balances[sender] */\n      0x00\n        /* \"contracts/mod3.sol\":3674:3680  sender */\n      dup7\n        /* \"contracts/mod3.sol\":3664:3681  _balances[sender] */\n      0xffffffffffffffffffffffffffffffffffffffff\n      and\n      0xffffffffffffffffffffffffffffffffffffffff\n      and\n      dup2\n      mstore\n      0x20\n      add\n      swap1\n      dup2\n      mstore\n      0x20\n      add\n      0x00\n      keccak256\n      0x00\n        /* \"contracts/mod3.sol\":3664:3691  _balances[sender] -= amount */\n      dup3\n      dup3\n      sload\n      tag_86\n      swap2\n      swap1\n      tag_87\n      jump\t// in\n    tag_86:\n      swap3\n      pop\n      pop\n      dup2\n      swap1\n      sstore\n      pop\n        /* \"contracts/mod3.sol\":3726:3732  amount */\n      dup2\n        /* \"contracts/mod3.sol\":3702:3711  _balances */\n      0x04\n        /* \"contracts/mod3.sol\":3702:3722  _balances[recipient] */\n      0x00\n        /* \"contracts/mod3.sol\":3712:3721  recipient */\n      dup6\n        /* \"contracts/mod3.sol\":3702:3722  _balances[recipient] */\n      0xffffffffffffffffffffffffffffffffffffffff\n      and\n      0xffffffffffffffffffffffffffffffffffffffff\n      and\n      dup2\n      mstore\n      0x20\n      add\n      swap1\n      dup2\n      mstore\n      0x20\n      add\n      0x00\n      keccak256\n      0x00\n        /* \"contracts/mod3.sol\":3702:3732  _balances[recipient] += amount */\n      dup3\n      dup3\n      sload\n      tag_88\n      swap2\n      swap1\n      tag_89\n      jump\t// in\n    tag_88:\n      swap3\n      pop\n      pop\n      dup2\n      swap1\n      sstore\n      pop\n        /* \"contracts/mod3.sol\":3778:3784  amount */\n      dup2\n        /* \"contracts/mod3.sol\":3743:3754  _allowances */\n      0x05\n        /* \"contracts/mod3.sol\":3743:3762  _allowances[sender] */\n      0x00\n        /* \"contracts/mod3.sol\":3755:3761  sender */\n      dup7\n        /* \"contracts/mod3.sol\":3743:3762  _allowances[sender] */\n      0xffffffffffffffffffffffffffffffffffffffff\n      and\n      0xffffffffffffffffffffffffffffffffffffffff\n      and\n      dup2\n      mstore\n      0x20\n      add\n      swap1\n      dup2\n      mstore\n      0x20\n      add\n      0x00\n      keccak256\n        /* \"contracts/mod3.sol\":3743:3774  _allowances[sender][msg.sender] */\n      0x00\n        /* \"contracts/mod3.sol\":3763:3773  msg.sender */\n      caller\n        /* \"contracts/mod3.sol\":3743:3774  _allowances[sender][msg.sender] */\n      0xffffffffffffffffffffffffffffffffffffffff\n      and\n      0xffffffffffffffffffffffffffffffffffffffff\n      and\n      dup2\n      mstore\n      0x20\n      add\n      swap1\n      dup2\n      mstore\n      0x20\n      add\n      0x00\n      keccak256\n      0x00\n        /* \"contracts/mod3.sol\":3743:3784  _allowances[sender][msg.sender] -= amount */\n      dup3\n      dup3\n      sload\n      tag_90\n      swap2\n      swap1\n      tag_87\n      jump\t// in\n    tag_90:\n      swap3\n      pop\n      pop\n      dup2\n      swap1\n      sstore\n      pop\n        /* \"contracts/mod3.sol\":3819:3828  recipient */\n      dup3\n        /* \"contracts/mod3.sol\":3802:3837  Transfer(sender, recipient, amount) */\n      0xffffffffffffffffffffffffffffffffffffffff\n      and\n        /* \"contracts/mod3.sol\":3811:3817  sender */\n      dup5\n        /* \"contracts/mod3.sol\":3802:3837  Transfer(sender, recipient, amount) */\n      0xffffffffffffffffffffffffffffffffffffffff\n      and\n      0xddf252ad1be2c89b69c2b068fc378daa952ba7f163c4a11628f55a4df523b3ef\n        /* \"contracts/mod3.sol\":3830:3836  amount */\n      dup5\n        /* \"contracts/mod3.sol\":3802:3837  Transfer(sender, recipient, amount) */\n      mload(0x40)\n      tag_91\n      swap2\n      swap1\n      tag_19\n      jump\t// in\n    tag_91:\n      mload(0x40)\n      dup1\n      swap2\n      sub\n      swap1\n      log3\n        /* \"contracts/mod3.sol\":3855:3859  true */\n      0x01\n        /* \"contracts/mod3.sol\":3848:3859  return true */\n      swap1\n      pop\n        /* \"contracts/mod3.sol\":3165:3867  function transferFrom(address sender, address recipient, uint256 amount) public returns (bool) {... */\n      swap4\n      swap3\n      pop\n      pop\n      pop\n      jump\t// out\n        /* \"contracts/mod3.sol\":1376:1627  function mint(address recipient, uint amount) public onlyContractOwner {... */\n    tag_33:\n        /* \"contracts/mod3.sol\":1263:1276  contractOwner */\n      0x03\n      0x00\n      swap1\n      sload\n      swap1\n      0x0100\n      exp\n      swap1\n      div\n      0xffffffffffffffffffffffffffffffffffffffff\n      and\n        /* \"contracts/mod3.sol\":1249:1276  msg.sender == contractOwner */\n      0xffffffffffffffffffffffffffffffffffffffff\n      and\n        /* \"contracts/mod3.sol\":1249:1259  msg.sender */\n      caller\n        /* \"contracts/mod3.sol\":1249:1276  msg.sender == contractOwner */\n      0xffffffffffffffffffffffffffffffffffffffff\n      and\n      eq\n        /* \"contracts/mod3.sol\":1241:1312  require(msg.sender == contractOwner, \"Access restricted to the owner.\") */\n      tag_93\n      jumpi\n      mload(0x40)\n      0x08c379a000000000000000000000000000000000000000000000000000000000\n      dup2\n      mstore\n      0x04\n      add\n      tag_94\n      swap1\n      tag_95\n      jump\t// in\n    tag_94:\n      mload(0x40)\n      dup1\n      swap2\n      sub\n      swap1\n      revert\n    tag_93:\n        /* \"contracts/mod3.sol\":1475:1476  0 */\n      0x00\n        /* \"contracts/mod3.sol\":1466:1472  amount */\n      dup2\n        /* \"contracts/mod3.sol\":1466:1476  amount > 0 */\n      gt\n        /* \"contracts/mod3.sol\":1458:1510  require(amount > 0, \"Mint amount must be positive.\") */\n      tag_97\n      jumpi\n      mload(0x40)\n      0x08c379a000000000000000000000000000000000000000000000000000000000\n      dup2\n      mstore\n      0x04\n      add\n      tag_98\n      swap1\n      tag_99\n      jump\t// in\n    tag_98:\n      mload(0x40)\n      dup1\n      swap2\n      sub\n      swap1\n      revert\n    tag_97:\n        /* \"contracts/mod3.sol\":1531:1537  amount */\n      dup1\n        /* \"contracts/mod3.sol\":1521:1527  supply */\n      0x02\n      0x00\n        /* \"contracts/mod3.sol\":1521:1537  supply += amount */\n      dup3\n      dup3\n      sload\n      tag_100\n      swap2\n      swap1\n      tag_89\n      jump\t// in\n    tag_100:\n      swap3\n      pop\n      pop\n      dup2\n      swap1\n      sstore\n      pop\n        /* \"contracts/mod3.sol\":1572:1578  amount */\n      dup1\n        /* \"contracts/mod3.sol\":1548:1557  _balances */\n      0x04\n        /* \"contracts/mod3.sol\":1548:1568  _balances[recipient] */\n      0x00\n        /* \"contracts/mod3.sol\":1558:1567  recipient */\n      dup5\n        /* \"contracts/mod3.sol\":1548:1568  _balances[recipient] */\n      0xffffffffffffffffffffffffffffffffffffffff\n      and\n      0xffffffffffffffffffffffffffffffffffffffff\n      and\n      dup2\n      mstore\n      0x20\n      add\n      swap1\n      dup2\n      mstore\n      0x20\n      add\n      0x00\n      keccak256\n      0x00\n        /* \"contracts/mod3.sol\":1548:1578  _balances[recipient] += amount */\n      dup3\n      dup3\n      sload\n      tag_101\n      swap2\n      swap1\n      tag_89\n      jump\t// in\n    tag_101:\n      swap3\n      pop\n      pop\n      dup2\n      swap1\n      sstore\n      pop\n        /* \"contracts/mod3.sol\":1601:1610  recipient */\n      dup2\n        /* \"contracts/mod3.sol\":1596:1619  Mint(recipient, amount) */\n      0xffffffffffffffffffffffffffffffffffffffff\n      and\n      0x0f6798a560793a54c3bcfe86a93cde1e73087d944c0ea20544137d4121396885\n        /* \"contracts/mod3.sol\":1612:1618  amount */\n      dup3\n        /* \"contracts/mod3.sol\":1596:1619  Mint(recipient, amount) */\n      mload(0x40)\n      tag_102\n      swap2\n      swap1\n      tag_19\n      jump\t// in\n    tag_102:\n      mload(0x40)\n      dup1\n      swap2\n      sub\n      swap1\n      log2\n        /* \"contracts/mod3.sol\":1376:1627  function mint(address recipient, uint amount) public onlyContractOwner {... */\n      pop\n      pop\n      jump\t// out\n        /* \"contracts/mod3.sol\":192:224  string public firstName = \"yash\" */\n    tag_35:\n      0x00\n      dup1\n      sload\n      tag_103\n      swap1\n      tag_104\n      jump\t// in\n    tag_103:\n      dup1\n      0x1f\n      add\n      0x20\n      dup1\n      swap2\n      div\n      mul\n      0x20\n      add\n      mload(0x40)\n      swap1\n      dup2\n      add\n      0x40\n      mstore\n      dup1\n      swap3\n      swap2\n      swap1\n      dup2\n      dup2\n      mstore\n      0x20\n      add\n      dup3\n      dup1\n      sload\n      tag_105\n      swap1\n      tag_104\n      jump\t// in\n    tag_105:\n      dup1\n      iszero\n      tag_106\n      jumpi\n      dup1\n      0x1f\n      lt\n      tag_107\n      jumpi\n      0x0100\n      dup1\n      dup4\n      sload\n      div\n      mul\n      dup4\n      mstore\n      swap2\n      0x20\n      add\n      swap2\n      jump(tag_106)\n    tag_107:\n      dup3\n      add\n      swap2\n      swap1\n      0x00\n      mstore\n      keccak256(0x00, 0x20)\n      swap1\n    tag_108:\n      dup2\n      sload\n      dup2\n      mstore\n      swap1\n      0x01\n      add\n      swap1\n      0x20\n      add\n      dup1\n      dup4\n      gt\n      tag_108\n      jumpi\n      dup3\n      swap1\n      sub\n      0x1f\n      and\n      dup3\n      add\n      swap2\n    tag_106:\n      pop\n      pop\n      pop\n      pop\n      pop\n      dup2\n      jump\t// out\n        /* \"contracts/mod3.sol\":3925:4032  function balanceOf(address account) public view returns (uint) {... */\n    tag_41:\n        /* \"contracts/mod3.sol\":3982:3986  uint */\n      0x00\n        /* \"contracts/mod3.sol\":4006:4015  _balances */\n      0x04\n        /* \"contracts/mod3.sol\":4006:4024  _balances[account] */\n      0x00\n        /* \"contracts/mod3.sol\":4016:4023  account */\n      dup4\n        /* \"contracts/mod3.sol\":4006:4024  _balances[account] */\n      0xffffffffffffffffffffffffffffffffffffffff\n      and\n      0xffffffffffffffffffffffffffffffffffffffff\n      and\n      dup2\n      mstore\n      0x20\n      add\n      swap1\n      dup2\n      mstore\n      0x20\n      add\n      0x00\n      keccak256\n      sload\n        /* \"contracts/mod3.sol\":3999:4024  return _balances[account] */\n      swap1\n      pop\n        /* \"contracts/mod3.sol\":3925:4032  function balanceOf(address account) public view returns (uint) {... */\n      swap2\n      swap1\n      pop\n      jump\t// out\n        /* \"contracts/mod3.sol\":231:263  string public lastName = \"kumar\" */\n    tag_44:\n      0x01\n      dup1\n      sload\n      tag_110\n      swap1\n      tag_104\n      jump\t// in\n    tag_110:\n      dup1\n      0x1f\n      add\n      0x20\n      dup1\n      swap2\n      div\n      mul\n      0x20\n      add\n      mload(0x40)\n      swap1\n      dup2\n      add\n      0x40\n      mstore\n      dup1\n      swap3\n      swap2\n      swap1\n      dup2\n      dup2\n      mstore\n      0x20\n      add\n      dup3\n      dup1\n      sload\n      tag_111\n      swap1\n      tag_104\n      jump\t// in\n    tag_111:\n      dup1\n      iszero\n      tag_112\n      jumpi\n      dup1\n      0x1f\n      lt\n      tag_113\n      jumpi\n      0x0100\n      dup1\n      dup4\n      sload\n      div\n      mul\n      dup4\n      mstore\n      swap2\n      0x20\n      add\n      swap2\n      jump(tag_112)\n    tag_113:\n      dup3\n      add\n      swap2\n      swap1\n      0x00\n      mstore\n      keccak256(0x00, 0x20)\n      swap1\n    tag_114:\n      dup2\n      sload\n      dup2\n      mstore\n      swap1\n      0x01\n      add\n      swap1\n      0x20\n      add\n      dup1\n      dup4\n      gt\n      tag_114\n      jumpi\n      dup3\n      swap1\n      sub\n      0x1f\n      and\n      dup3\n      add\n      swap2\n    tag_112:\n      pop\n      pop\n      pop\n      pop\n      pop\n      dup2\n      jump\t// out\n        /* \"contracts/mod3.sol\":1676:2004  function burn(address account, uint amount) public onlyContractOwner {... */\n    tag_48:\n        /* \"contracts/mod3.sol\":1263:1276  contractOwner */\n      0x03\n      0x00\n      swap1\n      sload\n      swap1\n      0x0100\n      exp\n      swap1\n      div\n      0xffffffffffffffffffffffffffffffffffffffff\n      and\n        /* \"contracts/mod3.sol\":1249:1276  msg.sender == contractOwner */\n      0xffffffffffffffffffffffffffffffffffffffff\n      and\n        /* \"contracts/mod3.sol\":1249:1259  msg.sender */\n      caller\n        /* \"contracts/mod3.sol\":1249:1276  msg.sender == contractOwner */\n      0xffffffffffffffffffffffffffffffffffffffff\n      and\n      eq\n        /* \"contracts/mod3.sol\":1241:1312  require(msg.sender == contractOwner, \"Access restricted to the owner.\") */\n      tag_116\n      jumpi\n      mload(0x40)\n      0x08c379a000000000000000000000000000000000000000000000000000000000\n      dup2\n      mstore\n      0x04\n      add\n      tag_117\n      swap1\n      tag_95\n      jump\t// in\n    tag_117:\n      mload(0x40)\n      dup1\n      swap2\n      sub\n      swap1\n      revert\n    tag_116:\n        /* \"contracts/mod3.sol\":1773:1774  0 */\n      0x00\n        /* \"contracts/mod3.sol\":1764:1770  amount */\n      dup2\n        /* \"contracts/mod3.sol\":1764:1774  amount > 0 */\n      gt\n        /* \"contracts/mod3.sol\":1756:1808  require(amount > 0, \"Burn amount must be positive.\") */\n      tag_119\n      jumpi\n      mload(0x40)\n      0x08c379a000000000000000000000000000000000000000000000000000000000\n      dup2\n      mstore\n      0x04\n      add\n      tag_120\n      swap1\n      tag_121\n      jump\t// in\n    tag_120:\n      mload(0x40)\n      dup1\n      swap2\n      sub\n      swap1\n      revert\n    tag_119:\n        /* \"contracts/mod3.sol\":1849:1855  amount */\n      dup1\n        /* \"contracts/mod3.sol\":1827:1836  _balances */\n      0x04\n        /* \"contracts/mod3.sol\":1827:1845  _balances[account] */\n      0x00\n        /* \"contracts/mod3.sol\":1837:1844  account */\n      dup5\n        /* \"contracts/mod3.sol\":1827:1845  _balances[account] */\n      0xffffffffffffffffffffffffffffffffffffffff\n      and\n      0xffffffffffffffffffffffffffffffffffffffff\n      and\n      dup2\n      mstore\n      0x20\n      add\n      swap1\n      dup2\n      mstore\n      0x20\n      add\n      0x00\n      keccak256\n      sload\n        /* \"contracts/mod3.sol\":1827:1855  _balances[account] >= amount */\n      lt\n      iszero\n        /* \"contracts/mod3.sol\":1819:1889  require(_balances[account] >= amount, \"Insufficient balance to burn.\") */\n      tag_122\n      jumpi\n      mload(0x40)\n      0x08c379a000000000000000000000000000000000000000000000000000000000\n      dup2\n      mstore\n      0x04\n      add\n      tag_123\n      swap1\n      tag_124\n      jump\t// in\n    tag_123:\n      mload(0x40)\n      dup1\n      swap2\n      sub\n      swap1\n      revert\n    tag_122:\n        /* \"contracts/mod3.sol\":1912:1918  amount */\n      dup1\n        /* \"contracts/mod3.sol\":1902:1908  supply */\n      0x02\n      0x00\n        /* \"contracts/mod3.sol\":1902:1918  supply -= amount */\n      dup3\n      dup3\n      sload\n      tag_125\n      swap2\n      swap1\n      tag_87\n      jump\t// in\n    tag_125:\n      swap3\n      pop\n      pop\n      dup2\n      swap1\n      sstore\n      pop\n        /* \"contracts/mod3.sol\":1951:1957  amount */\n      dup1\n        /* \"contracts/mod3.sol\":1929:1938  _balances */\n      0x04\n        /* \"contracts/mod3.sol\":1929:1947  _balances[account] */\n      0x00\n        /* \"contracts/mod3.sol\":1939:1946  account */\n      dup5\n        /* \"contracts/mod3.sol\":1929:1947  _balances[account] */\n      0xffffffffffffffffffffffffffffffffffffffff\n      and\n      0xffffffffffffffffffffffffffffffffffffffff\n      and\n      dup2\n      mstore\n      0x20\n      add\n      swap1\n      dup2\n      mstore\n      0x20\n      add\n      0x00\n      keccak256\n      0x00\n        /* \"contracts/mod3.sol\":1929:1957  _balances[account] -= amount */\n      dup3\n      dup3\n      sload\n      tag_126\n      swap2\n      swap1\n      tag_87\n      jump\t// in\n    tag_126:\n      swap3\n      pop\n      pop\n      dup2\n      swap1\n      sstore\n      pop\n        /* \"contracts/mod3.sol\":1980:1987  account */\n      dup2\n        /* \"contracts/mod3.sol\":1975:1996  Burn(account, amount) */\n      0xffffffffffffffffffffffffffffffffffffffff\n      and\n      0xcc16f5dbb4873280815c1ee09dbd06736cffcc184412cf7a71a0fdb75d397ca5\n        /* \"contracts/mod3.sol\":1989:1995  amount */\n      dup3\n        /* \"contracts/mod3.sol\":1975:1996  Burn(account, amount) */\n      mload(0x40)\n      tag_127\n      swap2\n      swap1\n      tag_19\n      jump\t// in\n    tag_127:\n      mload(0x40)\n      dup1\n      swap2\n      sub\n      swap1\n      log2\n        /* \"contracts/mod3.sol\":1676:2004  function burn(address account, uint amount) public onlyContractOwner {... */\n      pop\n      pop\n      jump\t// out\n        /* \"contracts/mod3.sol\":2079:2518  function transfer(address recipient, uint256 amount) public {... */\n    tag_51:\n        /* \"contracts/mod3.sol\":2179:2180  0 */\n      0x00\n        /* \"contracts/mod3.sol\":2158:2181  recipient != address(0) */\n      0xffffffffffffffffffffffffffffffffffffffff\n      and\n        /* \"contracts/mod3.sol\":2158:2167  recipient */\n      dup3\n        /* \"contracts/mod3.sol\":2158:2181  recipient != address(0) */\n      0xffffffffffffffffffffffffffffffffffffffff\n      and\n      sub\n        /* \"contracts/mod3.sol\":2150:2212  require(recipient != address(0), \"Invalid recipient address.\") */\n      tag_129\n      jumpi\n      mload(0x40)\n      0x08c379a000000000000000000000000000000000000000000000000000000000\n      dup2\n      mstore\n      0x04\n      add\n      tag_130\n      swap1\n      tag_76\n      jump\t// in\n    tag_130:\n      mload(0x40)\n      dup1\n      swap2\n      sub\n      swap1\n      revert\n    tag_129:\n        /* \"contracts/mod3.sol\":2240:2241  0 */\n      0x00\n        /* \"contracts/mod3.sol\":2231:2237  amount */\n      dup2\n        /* \"contracts/mod3.sol\":2231:2241  amount > 0 */\n      gt\n        /* \"contracts/mod3.sol\":2223:2279  require(amount > 0, \"Transfer amount must be positive.\") */\n      tag_131\n      jumpi\n      mload(0x40)\n      0x08c379a000000000000000000000000000000000000000000000000000000000\n      dup2\n      mstore\n      0x04\n      add\n      tag_132\n      swap1\n      tag_79\n      jump\t// in\n    tag_132:\n      mload(0x40)\n      dup1\n      swap2\n      sub\n      swap1\n      revert\n    tag_131:\n        /* \"contracts/mod3.sol\":2323:2329  amount */\n      dup1\n        /* \"contracts/mod3.sol\":2298:2307  _balances */\n      0x04\n        /* \"contracts/mod3.sol\":2298:2319  _balances[msg.sender] */\n      0x00\n        /* \"contracts/mod3.sol\":2308:2318  msg.sender */\n      caller\n        /* \"contracts/mod3.sol\":2298:2319  _balances[msg.sender] */\n      0xffffffffffffffffffffffffffffffffffffffff\n      and\n      0xffffffffffffffffffffffffffffffffffffffff\n      and\n      dup2\n      mstore\n      0x20\n      add\n      swap1\n      dup2\n      mstore\n      0x20\n      add\n      0x00\n      keccak256\n      sload\n        /* \"contracts/mod3.sol\":2298:2329  _balances[msg.sender] >= amount */\n      lt\n      iszero\n        /* \"contracts/mod3.sol\":2290:2368  require(_balances[msg.sender] >= amount, \"Insufficient balance for transfer.\") */\n      tag_133\n      jumpi\n      mload(0x40)\n      0x08c379a000000000000000000000000000000000000000000000000000000000\n      dup2\n      mstore\n      0x04\n      add\n      tag_134\n      swap1\n      tag_82\n      jump\t// in\n    tag_134:\n      mload(0x40)\n      dup1\n      swap2\n      sub\n      swap1\n      revert\n    tag_133:\n        /* \"contracts/mod3.sol\":2406:2412  amount */\n      dup1\n        /* \"contracts/mod3.sol\":2381:2390  _balances */\n      0x04\n        /* \"contracts/mod3.sol\":2381:2402  _balances[msg.sender] */\n      0x00\n        /* \"contracts/mod3.sol\":2391:2401  msg.sender */\n      caller\n        /* \"contracts/mod3.sol\":2381:2402  _balances[msg.sender] */\n      0xffffffffffffffffffffffffffffffffffffffff\n      and\n      0xffffffffffffffffffffffffffffffffffffffff\n      and\n      dup2\n      mstore\n      0x20\n      add\n      swap1\n      dup2\n      mstore\n      0x20\n      add\n      0x00\n      keccak256\n      0x00\n        /* \"contracts/mod3.sol\":2381:2412  _balances[msg.sender] -= amount */\n      dup3\n      dup3\n      sload\n      tag_135\n      swap2\n      swap1\n      tag_87\n      jump\t// in\n    tag_135:\n      swap3\n      pop\n      pop\n      dup2\n      swap1\n      sstore\n      pop\n        /* \"contracts/mod3.sol\":2447:2453  amount */\n      dup1\n        /* \"contracts/mod3.sol\":2423:2432  _balances */\n      0x04\n        /* \"contracts/mod3.sol\":2423:2443  _balances[recipient] */\n      0x00\n        /* \"contracts/mod3.sol\":2433:2442  recipient */\n      dup5\n        /* \"contracts/mod3.sol\":2423:2443  _balances[recipient] */\n      0xffffffffffffffffffffffffffffffffffffffff\n      and\n      0xffffffffffffffffffffffffffffffffffffffff\n      and\n      dup2\n      mstore\n      0x20\n      add\n      swap1\n      dup2\n      mstore\n      0x20\n      add\n      0x00\n      keccak256\n      0x00\n        /* \"contracts/mod3.sol\":2423:2453  _balances[recipient] += amount */\n      dup3\n      dup3\n      sload\n      tag_136\n      swap2\n      swap1\n      tag_89\n      jump\t// in\n    tag_136:\n      swap3\n      pop\n      pop\n      dup2\n      swap1\n      sstore\n      pop\n        /* \"contracts/mod3.sol\":2492:2501  recipient */\n      dup2\n        /* \"contracts/mod3.sol\":2471:2510  Transfer(msg.sender, recipient, amount) */\n      0xffffffffffffffffffffffffffffffffffffffff\n      and\n        /* \"contracts/mod3.sol\":2480:2490  msg.sender */\n      caller\n        /* \"contracts/mod3.sol\":2471:2510  Transfer(msg.sender, recipient, amount) */\n      0xffffffffffffffffffffffffffffffffffffffff\n      and\n      0xddf252ad1be2c89b69c2b068fc378daa952ba7f163c4a11628f55a4df523b3ef\n        /* \"contracts/mod3.sol\":2503:2509  amount */\n      dup4\n        /* \"contracts/mod3.sol\":2471:2510  Transfer(msg.sender, recipient, amount) */\n      mload(0x40)\n      tag_137\n      swap2\n      swap1\n      tag_19\n      jump\t// in\n    tag_137:\n      mload(0x40)\n      dup1\n      swap2\n      sub\n      swap1\n      log3\n        /* \"contracts/mod3.sol\":2079:2518  function transfer(address recipient, uint256 amount) public {... */\n      pop\n      pop\n      jump\t// out\n        /* \"contracts/mod3.sol\":340:368  address public contractOwner */\n    tag_53:\n      0x03\n      0x00\n      swap1\n      sload\n      swap1\n      0x0100\n      exp\n      swap1\n      div\n      0xffffffffffffffffffffffffffffffffffffffff\n      and\n      dup2\n      jump\t// out\n        /* \"contracts/mod3.sol\":2943:3077  function allowance(address owner, address spender) public view returns (uint256) {... */\n    tag_59:\n        /* \"contracts/mod3.sol\":3015:3022  uint256 */\n      0x00\n        /* \"contracts/mod3.sol\":3042:3053  _allowances */\n      0x05\n        /* \"contracts/mod3.sol\":3042:3060  _allowances[owner] */\n      0x00\n        /* \"contracts/mod3.sol\":3054:3059  owner */\n      dup5\n        /* \"contracts/mod3.sol\":3042:3060  _allowances[owner] */\n      0xffffffffffffffffffffffffffffffffffffffff\n      and\n      0xffffffffffffffffffffffffffffffffffffffff\n      and\n      dup2\n      mstore\n      0x20\n      add\n      swap1\n      dup2\n      mstore\n      0x20\n      add\n      0x00\n      keccak256\n        /* \"contracts/mod3.sol\":3042:3069  _allowances[owner][spender] */\n      0x00\n        /* \"contracts/mod3.sol\":3061:3068  spender */\n      dup4\n        /* \"contracts/mod3.sol\":3042:3069  _allowances[owner][spender] */\n      0xffffffffffffffffffffffffffffffffffffffff\n      and\n      0xffffffffffffffffffffffffffffffffffffffff\n      and\n      dup2\n      mstore\n      0x20\n      add\n      swap1\n      dup2\n      mstore\n      0x20\n      add\n      0x00\n      keccak256\n      sload\n        /* \"contracts/mod3.sol\":3035:3069  return _allowances[owner][spender] */\n      swap1\n      pop\n        /* \"contracts/mod3.sol\":2943:3077  function allowance(address owner, address spender) public view returns (uint256) {... */\n      swap3\n      swap2\n      pop\n      pop\n      jump\t// out\n        /* \"contracts/mod3.sol\":4095:4353  function updateTokenMetadata(string memory newFirstName, string memory newLastName) public onlyContractOwner {... */\n    tag_64:\n        /* \"contracts/mod3.sol\":1263:1276  contractOwner */\n      0x03\n      0x00\n      swap1\n      sload\n      swap1\n      0x0100\n      exp\n      swap1\n      div\n      0xffffffffffffffffffffffffffffffffffffffff\n      and\n        /* \"contracts/mod3.sol\":1249:1276  msg.sender == contractOwner */\n      0xffffffffffffffffffffffffffffffffffffffff\n      and\n        /* \"contracts/mod3.sol\":1249:1259  msg.sender */\n      caller\n        /* \"contracts/mod3.sol\":1249:1276  msg.sender == contractOwner */\n      0xffffffffffffffffffffffffffffffffffffffff\n      and\n      eq\n        /* \"contracts/mod3.sol\":1241:1312  require(msg.sender == contractOwner, \"Access restricted to the owner.\") */\n      tag_140\n      jumpi\n      mload(0x40)\n      0x08c379a000000000000000000000000000000000000000000000000000000000\n      dup2\n      mstore\n      0x04\n      add\n      tag_141\n      swap1\n      tag_95\n      jump\t// in\n    tag_141:\n      mload(0x40)\n      dup1\n      swap2\n      sub\n      swap1\n      revert\n    tag_140:\n        /* \"contracts/mod3.sol\":4227:4239  newFirstName */\n      dup2\n        /* \"contracts/mod3.sol\":4215:4224  firstName */\n      0x00\n        /* \"contracts/mod3.sol\":4215:4239  firstName = newFirstName */\n      swap1\n      dup2\n      tag_143\n      swap2\n      swap1\n      tag_144\n      jump\t// in\n    tag_143:\n      pop\n        /* \"contracts/mod3.sol\":4261:4272  newLastName */\n      dup1\n        /* \"contracts/mod3.sol\":4250:4258  lastName */\n      0x01\n        /* \"contracts/mod3.sol\":4250:4272  lastName = newLastName */\n      swap1\n      dup2\n      tag_145\n      swap2\n      swap1\n      tag_144\n      jump\t// in\n    tag_145:\n      pop\n        /* \"contracts/mod3.sol\":4290:4345  TokenMetadataUpdated(newFirstName, newLastName, supply) */\n      0xa53d071ca80001b0fad510bbeff77bca9ac9b36c4b2554b5fa503d25dd6e0cc3\n        /* \"contracts/mod3.sol\":4311:4323  newFirstName */\n      dup3\n        /* \"contracts/mod3.sol\":4325:4336  newLastName */\n      dup3\n        /* \"contracts/mod3.sol\":4338:4344  supply */\n      sload(0x02)\n        /* \"contracts/mod3.sol\":4290:4345  TokenMetadataUpdated(newFirstName, newLastName, supply) */\n      mload(0x40)\n      tag_146\n      swap4\n      swap3\n      swap2\n      swap1\n      tag_147\n      jump\t// in\n    tag_146:\n      mload(0x40)\n      dup1\n      swap2\n      sub\n      swap1\n      log1\n        /* \"contracts/mod3.sol\":4095:4353  function updateTokenMetadata(string memory newFirstName, string memory newLastName) public onlyContractOwner {... */\n      pop\n      pop\n      jump\t// out\n        /* \"#utility.yul\":7:84   */\n    tag_148:\n        /* \"#utility.yul\":44:51   */\n      0x00\n        /* \"#utility.yul\":73:78   */\n      dup2\n        /* \"#utility.yul\":62:78   */\n      swap1\n      pop\n        /* \"#utility.yul\":7:84   */\n      swap2\n      swap1\n      pop\n      jump\t// out\n        /* \"#utility.yul\":90:208   */\n    tag_149:\n        /* \"#utility.yul\":177:201   */\n      tag_216\n        /* \"#utility.yul\":195:200   */\n      dup2\n        /* \"#utility.yul\":177:201   */\n      tag_148\n      jump\t// in\n    tag_216:\n        /* \"#utility.yul\":172:175   */\n      dup3\n        /* \"#utility.yul\":165:202   */\n      mstore\n        /* \"#utility.yul\":90:208   */\n      pop\n      pop\n      jump\t// out\n        /* \"#utility.yul\":214:436   */\n    tag_19:\n        /* \"#utility.yul\":307:311   */\n      0x00\n        /* \"#utility.yul\":345:347   */\n      0x20\n        /* \"#utility.yul\":334:343   */\n      dup3\n        /* \"#utility.yul\":330:348   */\n      add\n        /* \"#utility.yul\":322:348   */\n      swap1\n      pop\n        /* \"#utility.yul\":358:429   */\n      tag_218\n        /* \"#utility.yul\":426:427   */\n      0x00\n        /* \"#utility.yul\":415:424   */\n      dup4\n        /* \"#utility.yul\":411:428   */\n      add\n        /* \"#utility.yul\":402:408   */\n      dup5\n        /* \"#utility.yul\":358:429   */\n      tag_149\n      jump\t// in\n    tag_218:\n        /* \"#utility.yul\":214:436   */\n      swap3\n      swap2\n      pop\n      pop\n      jump\t// out\n        /* \"#utility.yul\":442:517   */\n    tag_150:\n        /* \"#utility.yul\":475:481   */\n      0x00\n        /* \"#utility.yul\":508:510   */\n      0x40\n        /* \"#utility.yul\":502:511   */\n      mload\n        /* \"#utility.yul\":492:511   */\n      swap1\n      pop\n        /* \"#utility.yul\":442:517   */\n      swap1\n      jump\t// out\n        /* \"#utility.yul\":523:640   */\n    tag_151:\n        /* \"#utility.yul\":632:633   */\n      0x00\n        /* \"#utility.yul\":629:630   */\n      dup1\n        /* \"#utility.yul\":622:634   */\n      revert\n        /* \"#utility.yul\":646:763   */\n    tag_152:\n        /* \"#utility.yul\":755:756   */\n      0x00\n        /* \"#utility.yul\":752:753   */\n      dup1\n        /* \"#utility.yul\":745:757   */\n      revert\n        /* \"#utility.yul\":769:895   */\n    tag_153:\n        /* \"#utility.yul\":806:813   */\n      0x00\n        /* \"#utility.yul\":846:888   */\n      0xffffffffffffffffffffffffffffffffffffffff\n        /* \"#utility.yul\":839:844   */\n      dup3\n        /* \"#utility.yul\":835:889   */\n      and\n        /* \"#utility.yul\":824:889   */\n      swap1\n      pop\n        /* \"#utility.yul\":769:895   */\n      swap2\n      swap1\n      pop\n      jump\t// out\n        /* \"#utility.yul\":901:997   */\n    tag_154:\n        /* \"#utility.yul\":938:945   */\n      0x00\n        /* \"#utility.yul\":967:991   */\n      tag_224\n        /* \"#utility.yul\":985:990   */\n      dup3\n        /* \"#utility.yul\":967:991   */\n      tag_153\n      jump\t// in\n    tag_224:\n        /* \"#utility.yul\":956:991   */\n      swap1\n      pop\n        /* \"#utility.yul\":901:997   */\n      swap2\n      swap1\n      pop\n      jump\t// out\n        /* \"#utility.yul\":1003:1125   */\n    tag_155:\n        /* \"#utility.yul\":1076:1100   */\n      tag_226\n        /* \"#utility.yul\":1094:1099   */\n      dup2\n        /* \"#utility.yul\":1076:1100   */\n      tag_154\n      jump\t// in\n    tag_226:\n        /* \"#utility.yul\":1069:1074   */\n      dup2\n        /* \"#utility.yul\":1066:1101   */\n      eq\n        /* \"#utility.yul\":1056:1119   */\n      tag_227\n      jumpi\n        /* \"#utility.yul\":1115:1116   */\n      0x00\n        /* \"#utility.yul\":1112:1113   */\n      dup1\n        /* \"#utility.yul\":1105:1117   */\n      revert\n        /* \"#utility.yul\":1056:1119   */\n    tag_227:\n        /* \"#utility.yul\":1003:1125   */\n      pop\n      jump\t// out\n        /* \"#utility.yul\":1131:1270   */\n    tag_156:\n        /* \"#utility.yul\":1177:1182   */\n      0x00\n        /* \"#utility.yul\":1215:1221   */\n      dup2\n        /* \"#utility.yul\":1202:1222   */\n      calldataload\n        /* \"#utility.yul\":1193:1222   */\n      swap1\n      pop\n        /* \"#utility.yul\":1231:1264   */\n      tag_229\n        /* \"#utility.yul\":1258:1263   */\n      dup2\n        /* \"#utility.yul\":1231:1264   */\n      tag_155\n      jump\t// in\n    tag_229:\n        /* \"#utility.yul\":1131:1270   */\n      swap3\n      swap2\n      pop\n      pop\n      jump\t// out\n        /* \"#utility.yul\":1276:1398   */\n    tag_157:\n        /* \"#utility.yul\":1349:1373   */\n      tag_231\n        /* \"#utility.yul\":1367:1372   */\n      dup2\n        /* \"#utility.yul\":1349:1373   */\n      tag_148\n      jump\t// in\n    tag_231:\n        /* \"#utility.yul\":1342:1347   */\n      dup2\n        /* \"#utility.yul\":1339:1374   */\n      eq\n        /* \"#utility.yul\":1329:1392   */\n      tag_232\n      jumpi\n        /* \"#utility.yul\":1388:1389   */\n      0x00\n        /* \"#utility.yul\":1385:1386   */\n      dup1\n        /* \"#utility.yul\":1378:1390   */\n      revert\n        /* \"#utility.yul\":1329:1392   */\n    tag_232:\n        /* \"#utility.yul\":1276:1398   */\n      pop\n      jump\t// out\n        /* \"#utility.yul\":1404:1543   */\n    tag_158:\n        /* \"#utility.yul\":1450:1455   */\n      0x00\n        /* \"#utility.yul\":1488:1494   */\n      dup2\n        /* \"#utility.yul\":1475:1495   */\n      calldataload\n        /* \"#utility.yul\":1466:1495   */\n      swap1\n      pop\n        /* \"#utility.yul\":1504:1537   */\n      tag_234\n        /* \"#utility.yul\":1531:1536   */\n      dup2\n        /* \"#utility.yul\":1504:1537   */\n      tag_157\n      jump\t// in\n    tag_234:\n        /* \"#utility.yul\":1404:1543   */\n      swap3\n      swap2\n      pop\n      pop\n      jump\t// out\n        /* \"#utility.yul\":1549:2023   */\n    tag_22:\n        /* \"#utility.yul\":1617:1623   */\n      0x00\n        /* \"#utility.yul\":1625:1631   */\n      dup1\n        /* \"#utility.yul\":1674:1676   */\n      0x40\n        /* \"#utility.yul\":1662:1671   */\n      dup4\n        /* \"#utility.yul\":1653:1660   */\n      dup6\n        /* \"#utility.yul\":1649:1672   */\n      sub\n        /* \"#utility.yul\":1645:1677   */\n      slt\n        /* \"#utility.yul\":1642:1761   */\n      iszero\n      tag_236\n      jumpi\n        /* \"#utility.yul\":1680:1759   */\n      tag_237\n      tag_151\n      jump\t// in\n    tag_237:\n        /* \"#utility.yul\":1642:1761   */\n    tag_236:\n        /* \"#utility.yul\":1800:1801   */\n      0x00\n        /* \"#utility.yul\":1825:1878   */\n      tag_238\n        /* \"#utility.yul\":1870:1877   */\n      dup6\n        /* \"#utility.yul\":1861:1867   */\n      dup3\n        /* \"#utility.yul\":1850:1859   */\n      dup7\n        /* \"#utility.yul\":1846:1868   */\n      add\n        /* \"#utility.yul\":1825:1878   */\n      tag_156\n      jump\t// in\n    tag_238:\n        /* \"#utility.yul\":1815:1878   */\n      swap3\n      pop\n        /* \"#utility.yul\":1771:1888   */\n      pop\n        /* \"#utility.yul\":1927:1929   */\n      0x20\n        /* \"#utility.yul\":1953:2006   */\n      tag_239\n        /* \"#utility.yul\":1998:2005   */\n      dup6\n        /* \"#utility.yul\":1989:1995   */\n      dup3\n        /* \"#utility.yul\":1978:1987   */\n      dup7\n        /* \"#utility.yul\":1974:1996   */\n      add\n        /* \"#utility.yul\":1953:2006   */\n      tag_158\n      jump\t// in\n    tag_239:\n        /* \"#utility.yul\":1943:2006   */\n      swap2\n      pop\n        /* \"#utility.yul\":1898:2016   */\n      pop\n        /* \"#utility.yul\":1549:2023   */\n      swap3\n      pop\n      swap3\n      swap1\n      pop\n      jump\t// out\n        /* \"#utility.yul\":2029:2119   */\n    tag_159:\n        /* \"#utility.yul\":2063:2070   */\n      0x00\n        /* \"#utility.yul\":2106:2111   */\n      dup2\n        /* \"#utility.yul\":2099:2112   */\n      iszero\n        /* \"#utility.yul\":2092:2113   */\n      iszero\n        /* \"#utility.yul\":2081:2113   */\n      swap1\n      pop\n        /* \"#utility.yul\":2029:2119   */\n      swap2\n      swap1\n      pop\n      jump\t// out\n        /* \"#utility.yul\":2125:2234   */\n    tag_160:\n        /* \"#utility.yul\":2206:2227   */\n      tag_242\n        /* \"#utility.yul\":2221:2226   */\n      dup2\n        /* \"#utility.yul\":2206:2227   */\n      tag_159\n      jump\t// in\n    tag_242:\n        /* \"#utility.yul\":2201:2204   */\n      dup3\n        /* \"#utility.yul\":2194:2228   */\n      mstore\n        /* \"#utility.yul\":2125:2234   */\n      pop\n      pop\n      jump\t// out\n        /* \"#utility.yul\":2240:2450   */\n    tag_25:\n        /* \"#utility.yul\":2327:2331   */\n      0x00\n        /* \"#utility.yul\":2365:2367   */\n      0x20\n        /* \"#utility.yul\":2354:2363   */\n      dup3\n        /* \"#utility.yul\":2350:2368   */\n      add\n        /* \"#utility.yul\":2342:2368   */\n      swap1\n      pop\n        /* \"#utility.yul\":2378:2443   */\n      tag_244\n        /* \"#utility.yul\":2440:2441   */\n      0x00\n        /* \"#utility.yul\":2429:2438   */\n      dup4\n        /* \"#utility.yul\":2425:2442   */\n      add\n        /* \"#utility.yul\":2416:2422   */\n      dup5\n        /* \"#utility.yul\":2378:2443   */\n      tag_160\n      jump\t// in\n    tag_244:\n        /* \"#utility.yul\":2240:2450   */\n      swap3\n      swap2\n      pop\n      pop\n      jump\t// out\n        /* \"#utility.yul\":2456:3075   */\n    tag_28:\n        /* \"#utility.yul\":2533:2539   */\n      0x00\n        /* \"#utility.yul\":2541:2547   */\n      dup1\n        /* \"#utility.yul\":2549:2555   */\n      0x00\n        /* \"#utility.yul\":2598:2600   */\n      0x60\n        /* \"#utility.yul\":2586:2595   */\n      dup5\n        /* \"#utility.yul\":2577:2584   */\n      dup7\n        /* \"#utility.yul\":2573:2596   */\n      sub\n        /* \"#utility.yul\":2569:2601   */\n      slt\n        /* \"#utility.yul\":2566:2685   */\n      iszero\n      tag_246\n      jumpi\n        /* \"#utility.yul\":2604:2683   */\n      tag_247\n      tag_151\n      jump\t// in\n    tag_247:\n        /* \"#utility.yul\":2566:2685   */\n    tag_246:\n        /* \"#utility.yul\":2724:2725   */\n      0x00\n        /* \"#utility.yul\":2749:2802   */\n      tag_248\n        /* \"#utility.yul\":2794:2801   */\n      dup7\n        /* \"#utility.yul\":2785:2791   */\n      dup3\n        /* \"#utility.yul\":2774:2783   */\n      dup8\n        /* \"#utility.yul\":2770:2792   */\n      add\n        /* \"#utility.yul\":2749:2802   */\n      tag_156\n      jump\t// in\n    tag_248:\n        /* \"#utility.yul\":2739:2802   */\n      swap4\n      pop\n        /* \"#utility.yul\":2695:2812   */\n      pop\n        /* \"#utility.yul\":2851:2853   */\n      0x20\n        /* \"#utility.yul\":2877:2930   */\n      tag_249\n        /* \"#utility.yul\":2922:2929   */\n      dup7\n        /* \"#utility.yul\":2913:2919   */\n      dup3\n        /* \"#utility.yul\":2902:2911   */\n      dup8\n        /* \"#utility.yul\":2898:2920   */\n      add\n        /* \"#utility.yul\":2877:2930   */\n      tag_156\n      jump\t// in\n    tag_249:\n        /* \"#utility.yul\":2867:2930   */\n      swap3\n      pop\n        /* \"#utility.yul\":2822:2940   */\n      pop\n        /* \"#utility.yul\":2979:2981   */\n      0x40\n        /* \"#utility.yul\":3005:3058   */\n      tag_250\n        /* \"#utility.yul\":3050:3057   */\n      dup7\n        /* \"#utility.yul\":3041:3047   */\n      dup3\n        /* \"#utility.yul\":3030:3039   */\n      dup8\n        /* \"#utility.yul\":3026:3048   */\n      add\n        /* \"#utility.yul\":3005:3058   */\n      tag_158\n      jump\t// in\n    tag_250:\n        /* \"#utility.yul\":2995:3058   */\n      swap2\n      pop\n        /* \"#utility.yul\":2950:3068   */\n      pop\n        /* \"#utility.yul\":2456:3075   */\n      swap3\n      pop\n      swap3\n      pop\n      swap3\n      jump\t// out\n        /* \"#utility.yul\":3081:3180   */\n    tag_161:\n        /* \"#utility.yul\":3133:3139   */\n      0x00\n        /* \"#utility.yul\":3167:3172   */\n      dup2\n        /* \"#utility.yul\":3161:3173   */\n      mload\n        /* \"#utility.yul\":3151:3173   */\n      swap1\n      pop\n        /* \"#utility.yul\":3081:3180   */\n      swap2\n      swap1\n      pop\n      jump\t// out\n        /* \"#utility.yul\":3186:3355   */\n    tag_162:\n        /* \"#utility.yul\":3270:3281   */\n      0x00\n        /* \"#utility.yul\":3304:3310   */\n      dup3\n        /* \"#utility.yul\":3299:3302   */\n      dup3\n        /* \"#utility.yul\":3292:3311   */\n      mstore\n        /* \"#utility.yul\":3344:3348   */\n      0x20\n        /* \"#utility.yul\":3339:3342   */\n      dup3\n        /* \"#utility.yul\":3335:3349   */\n      add\n        /* \"#utility.yul\":3320:3349   */\n      swap1\n      pop\n        /* \"#utility.yul\":3186:3355   */\n      swap3\n      swap2\n      pop\n      pop\n      jump\t// out\n        /* \"#utility.yul\":3361:3500   */\n    tag_163:\n        /* \"#utility.yul\":3450:3456   */\n      dup3\n        /* \"#utility.yul\":3445:3448   */\n      dup2\n        /* \"#utility.yul\":3440:3443   */\n      dup4\n        /* \"#utility.yul\":3434:3457   */\n      mcopy\n        /* \"#utility.yul\":3491:3492   */\n      0x00\n        /* \"#utility.yul\":3482:3488   */\n      dup4\n        /* \"#utility.yul\":3477:3480   */\n      dup4\n        /* \"#utility.yul\":3473:3489   */\n      add\n        /* \"#utility.yul\":3466:3493   */\n      mstore\n        /* \"#utility.yul\":3361:3500   */\n      pop\n      pop\n      pop\n      jump\t// out\n        /* \"#utility.yul\":3506:3608   */\n    tag_164:\n        /* \"#utility.yul\":3547:3553   */\n      0x00\n        /* \"#utility.yul\":3598:3600   */\n      0x1f\n        /* \"#utility.yul\":3594:3601   */\n      not\n        /* \"#utility.yul\":3589:3591   */\n      0x1f\n        /* \"#utility.yul\":3582:3587   */\n      dup4\n        /* \"#utility.yul\":3578:3592   */\n      add\n        /* \"#utility.yul\":3574:3602   */\n      and\n        /* \"#utility.yul\":3564:3602   */\n      swap1\n      pop\n        /* \"#utility.yul\":3506:3608   */\n      swap2\n      swap1\n      pop\n      jump\t// out\n        /* \"#utility.yul\":3614:3991   */\n    tag_165:\n        /* \"#utility.yul\":3702:3705   */\n      0x00\n        /* \"#utility.yul\":3730:3769   */\n      tag_256\n        /* \"#utility.yul\":3763:3768   */\n      dup3\n        /* \"#utility.yul\":3730:3769   */\n      tag_161\n      jump\t// in\n    tag_256:\n        /* \"#utility.yul\":3785:3856   */\n      tag_257\n        /* \"#utility.yul\":3849:3855   */\n      dup2\n        /* \"#utility.yul\":3844:3847   */\n      dup6\n        /* \"#utility.yul\":3785:3856   */\n      tag_162\n      jump\t// in\n    tag_257:\n        /* \"#utility.yul\":3778:3856   */\n      swap4\n      pop\n        /* \"#utility.yul\":3865:3930   */\n      tag_258\n        /* \"#utility.yul\":3923:3929   */\n      dup2\n        /* \"#utility.yul\":3918:3921   */\n      dup6\n        /* \"#utility.yul\":3911:3915   */\n      0x20\n        /* \"#utility.yul\":3904:3909   */\n      dup7\n        /* \"#utility.yul\":3900:3916   */\n      add\n        /* \"#utility.yul\":3865:3930   */\n      tag_163\n      jump\t// in\n    tag_258:\n        /* \"#utility.yul\":3955:3984   */\n      tag_259\n        /* \"#utility.yul\":3977:3983   */\n      dup2\n        /* \"#utility.yul\":3955:3984   */\n      tag_164\n      jump\t// in\n    tag_259:\n        /* \"#utility.yul\":3950:3953   */\n      dup5\n        /* \"#utility.yul\":3946:3985   */\n      add\n        /* \"#utility.yul\":3939:3985   */\n      swap2\n      pop\n        /* \"#utility.yul\":3706:3991   */\n      pop\n        /* \"#utility.yul\":3614:3991   */\n      swap3\n      swap2\n      pop\n      pop\n      jump\t// out\n        /* \"#utility.yul\":3997:4310   */\n    tag_37:\n        /* \"#utility.yul\":4110:4114   */\n      0x00\n        /* \"#utility.yul\":4148:4150   */\n      0x20\n        /* \"#utility.yul\":4137:4146   */\n      dup3\n        /* \"#utility.yul\":4133:4151   */\n      add\n        /* \"#utility.yul\":4125:4151   */\n      swap1\n      pop\n        /* \"#utility.yul\":4197:4206   */\n      dup2\n        /* \"#utility.yul\":4191:4195   */\n      dup2\n        /* \"#utility.yul\":4187:4207   */\n      sub\n        /* \"#utility.yul\":4183:4184   */\n      0x00\n        /* \"#utility.yul\":4172:4181   */\n      dup4\n        /* \"#utility.yul\":4168:4185   */\n      add\n        /* \"#utility.yul\":4161:4208   */\n      mstore\n        /* \"#utility.yul\":4225:4303   */\n      tag_261\n        /* \"#utility.yul\":4298:4302   */\n      dup2\n        /* \"#utility.yul\":4289:4295   */\n      dup5\n        /* \"#utility.yul\":4225:4303   */\n      tag_165\n      jump\t// in\n    tag_261:\n        /* \"#utility.yul\":4217:4303   */\n      swap1\n      pop\n        /* \"#utility.yul\":3997:4310   */\n      swap3\n      swap2\n      pop\n      pop\n      jump\t// out\n        /* \"#utility.yul\":4316:4645   */\n    tag_40:\n        /* \"#utility.yul\":4375:4381   */\n      0x00\n        /* \"#utility.yul\":4424:4426   */\n      0x20\n        /* \"#utility.yul\":4412:4421   */\n      dup3\n        /* \"#utility.yul\":4403:4410   */\n      dup5\n        /* \"#utility.yul\":4399:4422   */\n      sub\n        /* \"#utility.yul\":4395:4427   */\n      slt\n        /* \"#utility.yul\":4392:4511   */\n      iszero\n      tag_263\n      jumpi\n        /* \"#utility.yul\":4430:4509   */\n      tag_264\n      tag_151\n      jump\t// in\n    tag_264:\n        /* \"#utility.yul\":4392:4511   */\n    tag_263:\n        /* \"#utility.yul\":4550:4551   */\n      0x00\n        /* \"#utility.yul\":4575:4628   */\n      tag_265\n        /* \"#utility.yul\":4620:4627   */\n      dup5\n        /* \"#utility.yul\":4611:4617   */\n      dup3\n        /* \"#utility.yul\":4600:4609   */\n      dup6\n        /* \"#utility.yul\":4596:4618   */\n      add\n        /* \"#utility.yul\":4575:4628   */\n      tag_156\n      jump\t// in\n    tag_265:\n        /* \"#utility.yul\":4565:4628   */\n      swap2\n      pop\n        /* \"#utility.yul\":4521:4638   */\n      pop\n        /* \"#utility.yul\":4316:4645   */\n      swap3\n      swap2\n      pop\n      pop\n      jump\t// out\n        /* \"#utility.yul\":4651:4769   */\n    tag_166:\n        /* \"#utility.yul\":4738:4762   */\n      tag_267\n        /* \"#utility.yul\":4756:4761   */\n      dup2\n        /* \"#utility.yul\":4738:4762   */\n      tag_154\n      jump\t// in\n    tag_267:\n        /* \"#utility.yul\":4733:4736   */\n      dup3\n        /* \"#utility.yul\":4726:4763   */\n      mstore\n        /* \"#utility.yul\":4651:4769   */\n      pop\n      pop\n      jump\t// out\n        /* \"#utility.yul\":4775:4997   */\n    tag_55:\n        /* \"#utility.yul\":4868:4872   */\n      0x00\n        /* \"#utility.yul\":4906:4908   */\n      0x20\n        /* \"#utility.yul\":4895:4904   */\n      dup3\n        /* \"#utility.yul\":4891:4909   */\n      add\n        /* \"#utility.yul\":4883:4909   */\n      swap1\n      pop\n        /* \"#utility.yul\":4919:4990   */\n      tag_269\n        /* \"#utility.yul\":4987:4988   */\n      0x00\n        /* \"#utility.yul\":4976:4985   */\n      dup4\n        /* \"#utility.yul\":4972:4989   */\n      add\n        /* \"#utility.yul\":4963:4969   */\n      dup5\n        /* \"#utility.yul\":4919:4990   */\n      tag_166\n      jump\t// in\n    tag_269:\n        /* \"#utility.yul\":4775:4997   */\n      swap3\n      swap2\n      pop\n      pop\n      jump\t// out\n        /* \"#utility.yul\":5003:5477   */\n    tag_58:\n        /* \"#utility.yul\":5071:5077   */\n      0x00\n        /* \"#utility.yul\":5079:5085   */\n      dup1\n        /* \"#utility.yul\":5128:5130   */\n      0x40\n        /* \"#utility.yul\":5116:5125   */\n      dup4\n        /* \"#utility.yul\":5107:5114   */\n      dup6\n        /* \"#utility.yul\":5103:5126   */\n      sub\n        /* \"#utility.yul\":5099:5131   */\n      slt\n        /* \"#utility.yul\":5096:5215   */\n      iszero\n      tag_271\n      jumpi\n        /* \"#utility.yul\":5134:5213   */\n      tag_272\n      tag_151\n      jump\t// in\n    tag_272:\n        /* \"#utility.yul\":5096:5215   */\n    tag_271:\n        /* \"#utility.yul\":5254:5255   */\n      0x00\n        /* \"#utility.yul\":5279:5332   */\n      tag_273\n        /* \"#utility.yul\":5324:5331   */\n      dup6\n        /* \"#utility.yul\":5315:5321   */\n      dup3\n        /* \"#utility.yul\":5304:5313   */\n      dup7\n        /* \"#utility.yul\":5300:5322   */\n      add\n        /* \"#utility.yul\":5279:5332   */\n      tag_156\n      jump\t// in\n    tag_273:\n        /* \"#utility.yul\":5269:5332   */\n      swap3\n      pop\n        /* \"#utility.yul\":5225:5342   */\n      pop\n        /* \"#utility.yul\":5381:5383   */\n      0x20\n        /* \"#utility.yul\":5407:5460   */\n      tag_274\n        /* \"#utility.yul\":5452:5459   */\n      dup6\n        /* \"#utility.yul\":5443:5449   */\n      dup3\n        /* \"#utility.yul\":5432:5441   */\n      dup7\n        /* \"#utility.yul\":5428:5450   */\n      add\n        /* \"#utility.yul\":5407:5460   */\n      tag_156\n      jump\t// in\n    tag_274:\n        /* \"#utility.yul\":5397:5460   */\n      swap2\n      pop\n        /* \"#utility.yul\":5352:5470   */\n      pop\n        /* \"#utility.yul\":5003:5477   */\n      swap3\n      pop\n      swap3\n      swap1\n      pop\n      jump\t// out\n        /* \"#utility.yul\":5483:5600   */\n    tag_167:\n        /* \"#utility.yul\":5592:5593   */\n      0x00\n        /* \"#utility.yul\":5589:5590   */\n      dup1\n        /* \"#utility.yul\":5582:5594   */\n      revert\n        /* \"#utility.yul\":5606:5723   */\n    tag_168:\n        /* \"#utility.yul\":5715:5716   */\n      0x00\n        /* \"#utility.yul\":5712:5713   */\n      dup1\n        /* \"#utility.yul\":5705:5717   */\n      revert\n        /* \"#utility.yul\":5729:5909   */\n    tag_169:\n        /* \"#utility.yul\":5777:5854   */\n      0x4e487b7100000000000000000000000000000000000000000000000000000000\n        /* \"#utility.yul\":5774:5775   */\n      0x00\n        /* \"#utility.yul\":5767:5855   */\n      mstore\n        /* \"#utility.yul\":5874:5878   */\n      0x41\n        /* \"#utility.yul\":5871:5872   */\n      0x04\n        /* \"#utility.yul\":5864:5879   */\n      mstore\n        /* \"#utility.yul\":5898:5902   */\n      0x24\n        /* \"#utility.yul\":5895:5896   */\n      0x00\n        /* \"#utility.yul\":5888:5903   */\n      revert\n        /* \"#utility.yul\":5915:6196   */\n    tag_170:\n        /* \"#utility.yul\":5998:6025   */\n      tag_279\n        /* \"#utility.yul\":6020:6024   */\n      dup3\n        /* \"#utility.yul\":5998:6025   */\n      tag_164\n      jump\t// in\n    tag_279:\n        /* \"#utility.yul\":5990:5996   */\n      dup2\n        /* \"#utility.yul\":5986:6026   */\n      add\n        /* \"#utility.yul\":6128:6134   */\n      dup2\n        /* \"#utility.yul\":6116:6126   */\n      dup2\n        /* \"#utility.yul\":6113:6135   */\n      lt\n        /* \"#utility.yul\":6092:6110   */\n      0xffffffffffffffff\n        /* \"#utility.yul\":6080:6090   */\n      dup3\n        /* \"#utility.yul\":6077:6111   */\n      gt\n        /* \"#utility.yul\":6074:6136   */\n      or\n        /* \"#utility.yul\":6071:6159   */\n      iszero\n      tag_280\n      jumpi\n        /* \"#utility.yul\":6139:6157   */\n      tag_281\n      tag_169\n      jump\t// in\n    tag_281:\n        /* \"#utility.yul\":6071:6159   */\n    tag_280:\n        /* \"#utility.yul\":6179:6189   */\n      dup1\n        /* \"#utility.yul\":6175:6177   */\n      0x40\n        /* \"#utility.yul\":6168:6190   */\n      mstore\n        /* \"#utility.yul\":5958:6196   */\n      pop\n        /* \"#utility.yul\":5915:6196   */\n      pop\n      pop\n      jump\t// out\n        /* \"#utility.yul\":6202:6331   */\n    tag_171:\n        /* \"#utility.yul\":6236:6242   */\n      0x00\n        /* \"#utility.yul\":6263:6283   */\n      tag_283\n      tag_150\n      jump\t// in\n    tag_283:\n        /* \"#utility.yul\":6253:6283   */\n      swap1\n      pop\n        /* \"#utility.yul\":6292:6325   */\n      tag_284\n        /* \"#utility.yul\":6320:6324   */\n      dup3\n        /* \"#utility.yul\":6312:6318   */\n      dup3\n        /* \"#utility.yul\":6292:6325   */\n      tag_170\n      jump\t// in\n    tag_284:\n        /* \"#utility.yul\":6202:6331   */\n      swap2\n      swap1\n      pop\n      jump\t// out\n        /* \"#utility.yul\":6337:6645   */\n    tag_172:\n        /* \"#utility.yul\":6399:6403   */\n      0x00\n        /* \"#utility.yul\":6489:6507   */\n      0xffffffffffffffff\n        /* \"#utility.yul\":6481:6487   */\n      dup3\n        /* \"#utility.yul\":6478:6508   */\n      gt\n        /* \"#utility.yul\":6475:6531   */\n      iszero\n      tag_286\n      jumpi\n        /* \"#utility.yul\":6511:6529   */\n      tag_287\n      tag_169\n      jump\t// in\n    tag_287:\n        /* \"#utility.yul\":6475:6531   */\n    tag_286:\n        /* \"#utility.yul\":6549:6578   */\n      tag_288\n        /* \"#utility.yul\":6571:6577   */\n      dup3\n        /* \"#utility.yul\":6549:6578   */\n      tag_164\n      jump\t// in\n    tag_288:\n        /* \"#utility.yul\":6541:6578   */\n      swap1\n      pop\n        /* \"#utility.yul\":6633:6637   */\n      0x20\n        /* \"#utility.yul\":6627:6631   */\n      dup2\n        /* \"#utility.yul\":6623:6638   */\n      add\n        /* \"#utility.yul\":6615:6638   */\n      swap1\n      pop\n        /* \"#utility.yul\":6337:6645   */\n      swap2\n      swap1\n      pop\n      jump\t// out\n        /* \"#utility.yul\":6651:6799   */\n    tag_173:\n        /* \"#utility.yul\":6749:6755   */\n      dup3\n        /* \"#utility.yul\":6744:6747   */\n      dup2\n        /* \"#utility.yul\":6739:6742   */\n      dup4\n        /* \"#utility.yul\":6726:6756   */\n      calldatacopy\n        /* \"#utility.yul\":6790:6791   */\n      0x00\n        /* \"#utility.yul\":6781:6787   */\n      dup4\n        /* \"#utility.yul\":6776:6779   */\n      dup4\n        /* \"#utility.yul\":6772:6788   */\n      add\n        /* \"#utility.yul\":6765:6792   */\n      mstore\n        /* \"#utility.yul\":6651:6799   */\n      pop\n      pop\n      pop\n      jump\t// out\n        /* \"#utility.yul\":6805:7230   */\n    tag_174:\n        /* \"#utility.yul\":6883:6888   */\n      0x00\n        /* \"#utility.yul\":6908:6974   */\n      tag_291\n        /* \"#utility.yul\":6924:6973   */\n      tag_292\n        /* \"#utility.yul\":6966:6972   */\n      dup5\n        /* \"#utility.yul\":6924:6973   */\n      tag_172\n      jump\t// in\n    tag_292:\n        /* \"#utility.yul\":6908:6974   */\n      tag_171\n      jump\t// in\n    tag_291:\n        /* \"#utility.yul\":6899:6974   */\n      swap1\n      pop\n        /* \"#utility.yul\":6997:7003   */\n      dup3\n        /* \"#utility.yul\":6990:6995   */\n      dup2\n        /* \"#utility.yul\":6983:7004   */\n      mstore\n        /* \"#utility.yul\":7035:7039   */\n      0x20\n        /* \"#utility.yul\":7028:7033   */\n      dup2\n        /* \"#utility.yul\":7024:7040   */\n      add\n        /* \"#utility.yul\":7073:7076   */\n      dup5\n        /* \"#utility.yul\":7064:7070   */\n      dup5\n        /* \"#utility.yul\":7059:7062   */\n      dup5\n        /* \"#utility.yul\":7055:7071   */\n      add\n        /* \"#utility.yul\":7052:7077   */\n      gt\n        /* \"#utility.yul\":7049:7161   */\n      iszero\n      tag_293\n      jumpi\n        /* \"#utility.yul\":7080:7159   */\n      tag_294\n      tag_168\n      jump\t// in\n    tag_294:\n        /* \"#utility.yul\":7049:7161   */\n    tag_293:\n        /* \"#utility.yul\":7170:7224   */\n      tag_295\n        /* \"#utility.yul\":7217:7223   */\n      dup5\n        /* \"#utility.yul\":7212:7215   */\n      dup3\n        /* \"#utility.yul\":7207:7210   */\n      dup6\n        /* \"#utility.yul\":7170:7224   */\n      tag_173\n      jump\t// in\n    tag_295:\n        /* \"#utility.yul\":6889:7230   */\n      pop\n        /* \"#utility.yul\":6805:7230   */\n      swap4\n      swap3\n      pop\n      pop\n      pop\n      jump\t// out\n        /* \"#utility.yul\":7250:7590   */\n    tag_175:\n        /* \"#utility.yul\":7306:7311   */\n      0x00\n        /* \"#utility.yul\":7355:7358   */\n      dup3\n        /* \"#utility.yul\":7348:7352   */\n      0x1f\n        /* \"#utility.yul\":7340:7346   */\n      dup4\n        /* \"#utility.yul\":7336:7353   */\n      add\n        /* \"#utility.yul\":7332:7359   */\n      slt\n        /* \"#utility.yul\":7322:7444   */\n      tag_297\n      jumpi\n        /* \"#utility.yul\":7363:7442   */\n      tag_298\n      tag_167\n      jump\t// in\n    tag_298:\n        /* \"#utility.yul\":7322:7444   */\n    tag_297:\n        /* \"#utility.yul\":7480:7486   */\n      dup2\n        /* \"#utility.yul\":7467:7487   */\n      calldataload\n        /* \"#utility.yul\":7505:7584   */\n      tag_299\n        /* \"#utility.yul\":7580:7583   */\n      dup5\n        /* \"#utility.yul\":7572:7578   */\n      dup3\n        /* \"#utility.yul\":7565:7569   */\n      0x20\n        /* \"#utility.yul\":7557:7563   */\n      dup7\n        /* \"#utility.yul\":7553:7570   */\n      add\n        /* \"#utility.yul\":7505:7584   */\n      tag_174\n      jump\t// in\n    tag_299:\n        /* \"#utility.yul\":7496:7584   */\n      swap2\n      pop\n        /* \"#utility.yul\":7312:7590   */\n      pop\n        /* \"#utility.yul\":7250:7590   */\n      swap3\n      swap2\n      pop\n      pop\n      jump\t// out\n        /* \"#utility.yul\":7596:8430   */\n    tag_63:\n        /* \"#utility.yul\":7684:7690   */\n      0x00\n        /* \"#utility.yul\":7692:7698   */\n      dup1\n        /* \"#utility.yul\":7741:7743   */\n      0x40\n        /* \"#utility.yul\":7729:7738   */\n      dup4\n        /* \"#utility.yul\":7720:7727   */\n      dup6\n        /* \"#utility.yul\":7716:7739   */\n      sub\n        /* \"#utility.yul\":7712:7744   */\n      slt\n        /* \"#utility.yul\":7709:7828   */\n      iszero\n      tag_301\n      jumpi\n        /* \"#utility.yul\":7747:7826   */\n      tag_302\n      tag_151\n      jump\t// in\n    tag_302:\n        /* \"#utility.yul\":7709:7828   */\n    tag_301:\n        /* \"#utility.yul\":7895:7896   */\n      0x00\n        /* \"#utility.yul\":7884:7893   */\n      dup4\n        /* \"#utility.yul\":7880:7897   */\n      add\n        /* \"#utility.yul\":7867:7898   */\n      calldataload\n        /* \"#utility.yul\":7925:7943   */\n      0xffffffffffffffff\n        /* \"#utility.yul\":7917:7923   */\n      dup2\n        /* \"#utility.yul\":7914:7944   */\n      gt\n        /* \"#utility.yul\":7911:8028   */\n      iszero\n      tag_303\n      jumpi\n        /* \"#utility.yul\":7947:8026   */\n      tag_304\n      tag_152\n      jump\t// in\n    tag_304:\n        /* \"#utility.yul\":7911:8028   */\n    tag_303:\n        /* \"#utility.yul\":8052:8115   */\n      tag_305\n        /* \"#utility.yul\":8107:8114   */\n      dup6\n        /* \"#utility.yul\":8098:8104   */\n      dup3\n        /* \"#utility.yul\":8087:8096   */\n      dup7\n        /* \"#utility.yul\":8083:8105   */\n      add\n        /* \"#utility.yul\":8052:8115   */\n      tag_175\n      jump\t// in\n    tag_305:\n        /* \"#utility.yul\":8042:8115   */\n      swap3\n      pop\n        /* \"#utility.yul\":7838:8125   */\n      pop\n        /* \"#utility.yul\":8192:8194   */\n      0x20\n        /* \"#utility.yul\":8181:8190   */\n      dup4\n        /* \"#utility.yul\":8177:8195   */\n      add\n        /* \"#utility.yul\":8164:8196   */\n      calldataload\n        /* \"#utility.yul\":8223:8241   */\n      0xffffffffffffffff\n        /* \"#utility.yul\":8215:8221   */\n      dup2\n        /* \"#utility.yul\":8212:8242   */\n      gt\n        /* \"#utility.yul\":8209:8326   */\n      iszero\n      tag_306\n      jumpi\n        /* \"#utility.yul\":8245:8324   */\n      tag_307\n      tag_152\n      jump\t// in\n    tag_307:\n        /* \"#utility.yul\":8209:8326   */\n    tag_306:\n        /* \"#utility.yul\":8350:8413   */\n      tag_308\n        /* \"#utility.yul\":8405:8412   */\n      dup6\n        /* \"#utility.yul\":8396:8402   */\n      dup3\n        /* \"#utility.yul\":8385:8394   */\n      dup7\n        /* \"#utility.yul\":8381:8403   */\n      add\n        /* \"#utility.yul\":8350:8413   */\n      tag_175\n      jump\t// in\n    tag_308:\n        /* \"#utility.yul\":8340:8413   */\n      swap2\n      pop\n        /* \"#utility.yul\":8135:8423   */\n      pop\n        /* \"#utility.yul\":7596:8430   */\n      swap3\n      pop\n      swap3\n      swap1\n      pop\n      jump\t// out\n        /* \"#utility.yul\":8436:8610   */\n    tag_176:\n        /* \"#utility.yul\":8576:8602   */\n      0x496e76616c6964207370656e64657220616464726573732e0000000000000000\n        /* \"#utility.yul\":8572:8573   */\n      0x00\n        /* \"#utility.yul\":8564:8570   */\n      dup3\n        /* \"#utility.yul\":8560:8574   */\n      add\n        /* \"#utility.yul\":8553:8603   */\n      mstore\n        /* \"#utility.yul\":8436:8610   */\n      pop\n      jump\t// out\n        /* \"#utility.yul\":8616:8982   */\n    tag_177:\n        /* \"#utility.yul\":8758:8761   */\n      0x00\n        /* \"#utility.yul\":8779:8846   */\n      tag_311\n        /* \"#utility.yul\":8843:8845   */\n      0x18\n        /* \"#utility.yul\":8838:8841   */\n      dup4\n        /* \"#utility.yul\":8779:8846   */\n      tag_162\n      jump\t// in\n    tag_311:\n        /* \"#utility.yul\":8772:8846   */\n      swap2\n      pop\n        /* \"#utility.yul\":8855:8948   */\n      tag_312\n        /* \"#utility.yul\":8944:8947   */\n      dup3\n        /* \"#utility.yul\":8855:8948   */\n      tag_176\n      jump\t// in\n    tag_312:\n        /* \"#utility.yul\":8973:8975   */\n      0x20\n        /* \"#utility.yul\":8968:8971   */\n      dup3\n        /* \"#utility.yul\":8964:8976   */\n      add\n        /* \"#utility.yul\":8957:8976   */\n      swap1\n      pop\n        /* \"#utility.yul\":8616:8982   */\n      swap2\n      swap1\n      pop\n      jump\t// out\n        /* \"#utility.yul\":8988:9407   */\n    tag_68:\n        /* \"#utility.yul\":9154:9158   */\n      0x00\n        /* \"#utility.yul\":9192:9194   */\n      0x20\n        /* \"#utility.yul\":9181:9190   */\n      dup3\n        /* \"#utility.yul\":9177:9195   */\n      add\n        /* \"#utility.yul\":9169:9195   */\n      swap1\n      pop\n        /* \"#utility.yul\":9241:9250   */\n      dup2\n        /* \"#utility.yul\":9235:9239   */\n      dup2\n        /* \"#utility.yul\":9231:9251   */\n      sub\n        /* \"#utility.yul\":9227:9228   */\n      0x00\n        /* \"#utility.yul\":9216:9225   */\n      dup4\n        /* \"#utility.yul\":9212:9229   */\n      add\n        /* \"#utility.yul\":9205:9252   */\n      mstore\n        /* \"#utility.yul\":9269:9400   */\n      tag_314\n        /* \"#utility.yul\":9395:9399   */\n      dup2\n        /* \"#utility.yul\":9269:9400   */\n      tag_177\n      jump\t// in\n    tag_314:\n        /* \"#utility.yul\":9261:9400   */\n      swap1\n      pop\n        /* \"#utility.yul\":8988:9407   */\n      swap2\n      swap1\n      pop\n      jump\t// out\n        /* \"#utility.yul\":9413:9586   */\n    tag_178:\n        /* \"#utility.yul\":9553:9578   */\n      0x496e76616c69642073656e64657220616464726573732e000000000000000000\n        /* \"#utility.yul\":9549:9550   */\n      0x00\n        /* \"#utility.yul\":9541:9547   */\n      dup3\n        /* \"#utility.yul\":9537:9551   */\n      add\n        /* \"#utility.yul\":9530:9579   */\n      mstore\n        /* \"#utility.yul\":9413:9586   */\n      pop\n      jump\t// out\n        /* \"#utility.yul\":9592:9958   */\n    tag_179:\n        /* \"#utility.yul\":9734:9737   */\n      0x00\n        /* \"#utility.yul\":9755:9822   */\n      tag_317\n        /* \"#utility.yul\":9819:9821   */\n      0x17\n        /* \"#utility.yul\":9814:9817   */\n      dup4\n        /* \"#utility.yul\":9755:9822   */\n      tag_162\n      jump\t// in\n    tag_317:\n        /* \"#utility.yul\":9748:9822   */\n      swap2\n      pop\n        /* \"#utility.yul\":9831:9924   */\n      tag_318\n        /* \"#utility.yul\":9920:9923   */\n      dup3\n        /* \"#utility.yul\":9831:9924   */\n      tag_178\n      jump\t// in\n    tag_318:\n        /* \"#utility.yul\":9949:9951   */\n      0x20\n        /* \"#utility.yul\":9944:9947   */\n      dup3\n        /* \"#utility.yul\":9940:9952   */\n      add\n        /* \"#utility.yul\":9933:9952   */\n      swap1\n      pop\n        /* \"#utility.yul\":9592:9958   */\n      swap2\n      swap1\n      pop\n      jump\t// out\n        /* \"#utility.yul\":9964:10383   */\n    tag_73:\n        /* \"#utility.yul\":10130:10134   */\n      0x00\n        /* \"#utility.yul\":10168:10170   */\n      0x20\n        /* \"#utility.yul\":10157:10166   */\n      dup3\n        /* \"#utility.yul\":10153:10171   */\n      add\n        /* \"#utility.yul\":10145:10171   */\n      swap1\n      pop\n        /* \"#utility.yul\":10217:10226   */\n      dup2\n        /* \"#utility.yul\":10211:10215   */\n      dup2\n        /* \"#utility.yul\":10207:10227   */\n      sub\n        /* \"#utility.yul\":10203:10204   */\n      0x00\n        /* \"#utility.yul\":10192:10201   */\n      dup4\n        /* \"#utility.yul\":10188:10205   */\n      add\n        /* \"#utility.yul\":10181:10228   */\n      mstore\n        /* \"#utility.yul\":10245:10376   */\n      tag_320\n        /* \"#utility.yul\":10371:10375   */\n      dup2\n        /* \"#utility.yul\":10245:10376   */\n      tag_179\n      jump\t// in\n    tag_320:\n        /* \"#utility.yul\":10237:10376   */\n      swap1\n      pop\n        /* \"#utility.yul\":9964:10383   */\n      swap2\n      swap1\n      pop\n      jump\t// out\n        /* \"#utility.yul\":10389:10565   */\n    tag_180:\n        /* \"#utility.yul\":10529:10557   */\n      0x496e76616c696420726563697069656e7420616464726573732e000000000000\n        /* \"#utility.yul\":10525:10526   */\n      0x00\n        /* \"#utility.yul\":10517:10523   */\n      dup3\n        /* \"#utility.yul\":10513:10527   */\n      add\n        /* \"#utility.yul\":10506:10558   */\n      mstore\n        /* \"#utility.yul\":10389:10565   */\n      pop\n      jump\t// out\n        /* \"#utility.yul\":10571:10937   */\n    tag_181:\n        /* \"#utility.yul\":10713:10716   */\n      0x00\n        /* \"#utility.yul\":10734:10801   */\n      tag_323\n        /* \"#utility.yul\":10798:10800   */\n      0x1a\n        /* \"#utility.yul\":10793:10796   */\n      dup4\n        /* \"#utility.yul\":10734:10801   */\n      tag_162\n      jump\t// in\n    tag_323:\n        /* \"#utility.yul\":10727:10801   */\n      swap2\n      pop\n        /* \"#utility.yul\":10810:10903   */\n      tag_324\n        /* \"#utility.yul\":10899:10902   */\n      dup3\n        /* \"#utility.yul\":10810:10903   */\n      tag_180\n      jump\t// in\n    tag_324:\n        /* \"#utility.yul\":10928:10930   */\n      0x20\n        /* \"#utility.yul\":10923:10926   */\n      dup3\n        /* \"#utility.yul\":10919:10931   */\n      add\n        /* \"#utility.yul\":10912:10931   */\n      swap1\n      pop\n        /* \"#utility.yul\":10571:10937   */\n      swap2\n      swap1\n      pop\n      jump\t// out\n        /* \"#utility.yul\":10943:11362   */\n    tag_76:\n        /* \"#utility.yul\":11109:11113   */\n      0x00\n        /* \"#utility.yul\":11147:11149   */\n      0x20\n        /* \"#utility.yul\":11136:11145   */\n      dup3\n        /* \"#utility.yul\":11132:11150   */\n      add\n        /* \"#utility.yul\":11124:11150   */\n      swap1\n      pop\n        /* \"#utility.yul\":11196:11205   */\n      dup2\n        /* \"#utility.yul\":11190:11194   */\n      dup2\n        /* \"#utility.yul\":11186:11206   */\n      sub\n        /* \"#utility.yul\":11182:11183   */\n      0x00\n        /* \"#utility.yul\":11171:11180   */\n      dup4\n        /* \"#utility.yul\":11167:11184   */\n      add\n        /* \"#utility.yul\":11160:11207   */\n      mstore\n        /* \"#utility.yul\":11224:11355   */\n      tag_326\n        /* \"#utility.yul\":11350:11354   */\n      dup2\n        /* \"#utility.yul\":11224:11355   */\n      tag_181\n      jump\t// in\n    tag_326:\n        /* \"#utility.yul\":11216:11355   */\n      swap1\n      pop\n        /* \"#utility.yul\":10943:11362   */\n      swap2\n      swap1\n      pop\n      jump\t// out\n        /* \"#utility.yul\":11368:11588   */\n    tag_182:\n        /* \"#utility.yul\":11508:11542   */\n      0x5472616e7366657220616d6f756e74206d75737420626520706f736974697665\n        /* \"#utility.yul\":11504:11505   */\n      0x00\n        /* \"#utility.yul\":11496:11502   */\n      dup3\n        /* \"#utility.yul\":11492:11506   */\n      add\n        /* \"#utility.yul\":11485:11543   */\n      mstore\n        /* \"#utility.yul\":11577:11580   */\n      0x2e00000000000000000000000000000000000000000000000000000000000000\n        /* \"#utility.yul\":11572:11574   */\n      0x20\n        /* \"#utility.yul\":11564:11570   */\n      dup3\n        /* \"#utility.yul\":11560:11575   */\n      add\n        /* \"#utility.yul\":11553:11581   */\n      mstore\n        /* \"#utility.yul\":11368:11588   */\n      pop\n      jump\t// out\n        /* \"#utility.yul\":11594:11960   */\n    tag_183:\n        /* \"#utility.yul\":11736:11739   */\n      0x00\n        /* \"#utility.yul\":11757:11824   */\n      tag_329\n        /* \"#utility.yul\":11821:11823   */\n      0x21\n        /* \"#utility.yul\":11816:11819   */\n      dup4\n        /* \"#utility.yul\":11757:11824   */\n      tag_162\n      jump\t// in\n    tag_329:\n        /* \"#utility.yul\":11750:11824   */\n      swap2\n      pop\n        /* \"#utility.yul\":11833:11926   */\n      tag_330\n        /* \"#utility.yul\":11922:11925   */\n      dup3\n        /* \"#utility.yul\":11833:11926   */\n      tag_182\n      jump\t// in\n    tag_330:\n        /* \"#utility.yul\":11951:11953   */\n      0x40\n        /* \"#utility.yul\":11946:11949   */\n      dup3\n        /* \"#utility.yul\":11942:11954   */\n      add\n        /* \"#utility.yul\":11935:11954   */\n      swap1\n      pop\n        /* \"#utility.yul\":11594:11960   */\n      swap2\n      swap1\n      pop\n      jump\t// out\n        /* \"#utility.yul\":11966:12385   */\n    tag_79:\n        /* \"#utility.yul\":12132:12136   */\n      0x00\n        /* \"#utility.yul\":12170:12172   */\n      0x20\n        /* \"#utility.yul\":12159:12168   */\n      dup3\n        /* \"#utility.yul\":12155:12173   */\n      add\n        /* \"#utility.yul\":12147:12173   */\n      swap1\n      pop\n        /* \"#utility.yul\":12219:12228   */\n      dup2\n        /* \"#utility.yul\":12213:12217   */\n      dup2\n        /* \"#utility.yul\":12209:12229   */\n      sub\n        /* \"#utility.yul\":12205:12206   */\n      0x00\n        /* \"#utility.yul\":12194:12203   */\n      dup4\n        /* \"#utility.yul\":12190:12207   */\n      add\n        /* \"#utility.yul\":12183:12230   */\n      mstore\n        /* \"#utility.yul\":12247:12378   */\n      tag_332\n        /* \"#utility.yul\":12373:12377   */\n      dup2\n        /* \"#utility.yul\":12247:12378   */\n      tag_183\n      jump\t// in\n    tag_332:\n        /* \"#utility.yul\":12239:12378   */\n      swap1\n      pop\n        /* \"#utility.yul\":11966:12385   */\n      swap2\n      swap1\n      pop\n      jump\t// out\n        /* \"#utility.yul\":12391:12612   */\n    tag_184:\n        /* \"#utility.yul\":12531:12565   */\n      0x496e73756666696369656e742062616c616e636520666f72207472616e736665\n        /* \"#utility.yul\":12527:12528   */\n      0x00\n        /* \"#utility.yul\":12519:12525   */\n      dup3\n        /* \"#utility.yul\":12515:12529   */\n      add\n        /* \"#utility.yul\":12508:12566   */\n      mstore\n        /* \"#utility.yul\":12600:12604   */\n      0x722e000000000000000000000000000000000000000000000000000000000000\n        /* \"#utility.yul\":12595:12597   */\n      0x20\n        /* \"#utility.yul\":12587:12593   */\n      dup3\n        /* \"#utility.yul\":12583:12598   */\n      add\n        /* \"#utility.yul\":12576:12605   */\n      mstore\n        /* \"#utility.yul\":12391:12612   */\n      pop\n      jump\t// out\n        /* \"#utility.yul\":12618:12984   */\n    tag_185:\n        /* \"#utility.yul\":12760:12763   */\n      0x00\n        /* \"#utility.yul\":12781:12848   */\n      tag_335\n        /* \"#utility.yul\":12845:12847   */\n      0x22\n        /* \"#utility.yul\":12840:12843   */\n      dup4\n        /* \"#utility.yul\":12781:12848   */\n      tag_162\n      jump\t// in\n    tag_335:\n        /* \"#utility.yul\":12774:12848   */\n      swap2\n      pop\n        /* \"#utility.yul\":12857:12950   */\n      tag_336\n        /* \"#utility.yul\":12946:12949   */\n      dup3\n        /* \"#utility.yul\":12857:12950   */\n      tag_184\n      jump\t// in\n    tag_336:\n        /* \"#utility.yul\":12975:12977   */\n      0x40\n        /* \"#utility.yul\":12970:12973   */\n      dup3\n        /* \"#utility.yul\":12966:12978   */\n      add\n        /* \"#utility.yul\":12959:12978   */\n      swap1\n      pop\n        /* \"#utility.yul\":12618:12984   */\n      swap2\n      swap1\n      pop\n      jump\t// out\n        /* \"#utility.yul\":12990:13409   */\n    tag_82:\n        /* \"#utility.yul\":13156:13160   */\n      0x00\n        /* \"#utility.yul\":13194:13196   */\n      0x20\n        /* \"#utility.yul\":13183:13192   */\n      dup3\n        /* \"#utility.yul\":13179:13197   */\n      add\n        /* \"#utility.yul\":13171:13197   */\n      swap1\n      pop\n        /* \"#utility.yul\":13243:13252   */\n      dup2\n        /* \"#utility.yul\":13237:13241   */\n      dup2\n        /* \"#utility.yul\":13233:13253   */\n      sub\n        /* \"#utility.yul\":13229:13230   */\n      0x00\n        /* \"#utility.yul\":13218:13227   */\n      dup4\n        /* \"#utility.yul\":13214:13231   */\n      add\n        /* \"#utility.yul\":13207:13254   */\n      mstore\n        /* \"#utility.yul\":13271:13402   */\n      tag_338\n        /* \"#utility.yul\":13397:13401   */\n      dup2\n        /* \"#utility.yul\":13271:13402   */\n      tag_185\n      jump\t// in\n    tag_338:\n        /* \"#utility.yul\":13263:13402   */\n      swap1\n      pop\n        /* \"#utility.yul\":12990:13409   */\n      swap2\n      swap1\n      pop\n      jump\t// out\n        /* \"#utility.yul\":13415:13636   */\n    tag_186:\n        /* \"#utility.yul\":13555:13589   */\n      0x5472616e7366657220616d6f756e74206578636565647320616c6c6f77616e63\n        /* \"#utility.yul\":13551:13552   */\n      0x00\n        /* \"#utility.yul\":13543:13549   */\n      dup3\n        /* \"#utility.yul\":13539:13553   */\n      add\n        /* \"#utility.yul\":13532:13590   */\n      mstore\n        /* \"#utility.yul\":13624:13628   */\n      0x652e000000000000000000000000000000000000000000000000000000000000\n        /* \"#utility.yul\":13619:13621   */\n      0x20\n        /* \"#utility.yul\":13611:13617   */\n      dup3\n        /* \"#utility.yul\":13607:13622   */\n      add\n        /* \"#utility.yul\":13600:13629   */\n      mstore\n        /* \"#utility.yul\":13415:13636   */\n      pop\n      jump\t// out\n        /* \"#utility.yul\":13642:14008   */\n    tag_187:\n        /* \"#utility.yul\":13784:13787   */\n      0x00\n        /* \"#utility.yul\":13805:13872   */\n      tag_341\n        /* \"#utility.yul\":13869:13871   */\n      0x22\n        /* \"#utility.yul\":13864:13867   */\n      dup4\n        /* \"#utility.yul\":13805:13872   */\n      tag_162\n      jump\t// in\n    tag_341:\n        /* \"#utility.yul\":13798:13872   */\n      swap2\n      pop\n        /* \"#utility.yul\":13881:13974   */\n      tag_342\n        /* \"#utility.yul\":13970:13973   */\n      dup3\n        /* \"#utility.yul\":13881:13974   */\n      tag_186\n      jump\t// in\n    tag_342:\n        /* \"#utility.yul\":13999:14001   */\n      0x40\n        /* \"#utility.yul\":13994:13997   */\n      dup3\n        /* \"#utility.yul\":13990:14002   */\n      add\n        /* \"#utility.yul\":13983:14002   */\n      swap1\n      pop\n        /* \"#utility.yul\":13642:14008   */\n      swap2\n      swap1\n      pop\n      jump\t// out\n        /* \"#utility.yul\":14014:14433   */\n    tag_85:\n        /* \"#utility.yul\":14180:14184   */\n      0x00\n        /* \"#utility.yul\":14218:14220   */\n      0x20\n        /* \"#utility.yul\":14207:14216   */\n      dup3\n        /* \"#utility.yul\":14203:14221   */\n      add\n        /* \"#utility.yul\":14195:14221   */\n      swap1\n      pop\n        /* \"#utility.yul\":14267:14276   */\n      dup2\n        /* \"#utility.yul\":14261:14265   */\n      dup2\n        /* \"#utility.yul\":14257:14277   */\n      sub\n        /* \"#utility.yul\":14253:14254   */\n      0x00\n        /* \"#utility.yul\":14242:14251   */\n      dup4\n        /* \"#utility.yul\":14238:14255   */\n      add\n        /* \"#utility.yul\":14231:14278   */\n      mstore\n        /* \"#utility.yul\":14295:14426   */\n      tag_344\n        /* \"#utility.yul\":14421:14425   */\n      dup2\n        /* \"#utility.yul\":14295:14426   */\n      tag_187\n      jump\t// in\n    tag_344:\n        /* \"#utility.yul\":14287:14426   */\n      swap1\n      pop\n        /* \"#utility.yul\":14014:14433   */\n      swap2\n      swap1\n      pop\n      jump\t// out\n        /* \"#utility.yul\":14439:14619   */\n    tag_188:\n        /* \"#utility.yul\":14487:14564   */\n      0x4e487b7100000000000000000000000000000000000000000000000000000000\n        /* \"#utility.yul\":14484:14485   */\n      0x00\n        /* \"#utility.yul\":14477:14565   */\n      mstore\n        /* \"#utility.yul\":14584:14588   */\n      0x11\n        /* \"#utility.yul\":14581:14582   */\n      0x04\n        /* \"#utility.yul\":14574:14589   */\n      mstore\n        /* \"#utility.yul\":14608:14612   */\n      0x24\n        /* \"#utility.yul\":14605:14606   */\n      0x00\n        /* \"#utility.yul\":14598:14613   */\n      revert\n        /* \"#utility.yul\":14625:14819   */\n    tag_87:\n        /* \"#utility.yul\":14665:14669   */\n      0x00\n        /* \"#utility.yul\":14685:14705   */\n      tag_347\n        /* \"#utility.yul\":14703:14704   */\n      dup3\n        /* \"#utility.yul\":14685:14705   */\n      tag_148\n      jump\t// in\n    tag_347:\n        /* \"#utility.yul\":14680:14705   */\n      swap2\n      pop\n        /* \"#utility.yul\":14719:14739   */\n      tag_348\n        /* \"#utility.yul\":14737:14738   */\n      dup4\n        /* \"#utility.yul\":14719:14739   */\n      tag_148\n      jump\t// in\n    tag_348:\n        /* \"#utility.yul\":14714:14739   */\n      swap3\n      pop\n        /* \"#utility.yul\":14763:14764   */\n      dup3\n        /* \"#utility.yul\":14760:14761   */\n      dup3\n        /* \"#utility.yul\":14756:14765   */\n      sub\n        /* \"#utility.yul\":14748:14765   */\n      swap1\n      pop\n        /* \"#utility.yul\":14787:14788   */\n      dup2\n        /* \"#utility.yul\":14781:14785   */\n      dup2\n        /* \"#utility.yul\":14778:14789   */\n      gt\n        /* \"#utility.yul\":14775:14812   */\n      iszero\n      tag_349\n      jumpi\n        /* \"#utility.yul\":14792:14810   */\n      tag_350\n      tag_188\n      jump\t// in\n    tag_350:\n        /* \"#utility.yul\":14775:14812   */\n    tag_349:\n        /* \"#utility.yul\":14625:14819   */\n      swap3\n      swap2\n      pop\n      pop\n      jump\t// out\n        /* \"#utility.yul\":14825:15016   */\n    tag_89:\n        /* \"#utility.yul\":14865:14868   */\n      0x00\n        /* \"#utility.yul\":14884:14904   */\n      tag_352\n        /* \"#utility.yul\":14902:14903   */\n      dup3\n        /* \"#utility.yul\":14884:14904   */\n      tag_148\n      jump\t// in\n    tag_352:\n        /* \"#utility.yul\":14879:14904   */\n      swap2\n      pop\n        /* \"#utility.yul\":14918:14938   */\n      tag_353\n        /* \"#utility.yul\":14936:14937   */\n      dup4\n        /* \"#utility.yul\":14918:14938   */\n      tag_148\n      jump\t// in\n    tag_353:\n        /* \"#utility.yul\":14913:14938   */\n      swap3\n      pop\n        /* \"#utility.yul\":14961:14962   */\n      dup3\n        /* \"#utility.yul\":14958:14959   */\n      dup3\n        /* \"#utility.yul\":14954:14963   */\n      add\n        /* \"#utility.yul\":14947:14963   */\n      swap1\n      pop\n        /* \"#utility.yul\":14982:14985   */\n      dup1\n        /* \"#utility.yul\":14979:14980   */\n      dup3\n        /* \"#utility.yul\":14976:14986   */\n      gt\n        /* \"#utility.yul\":14973:15009   */\n      iszero\n      tag_354\n      jumpi\n        /* \"#utility.yul\":14989:15007   */\n      tag_355\n      tag_188\n      jump\t// in\n    tag_355:\n        /* \"#utility.yul\":14973:15009   */\n    tag_354:\n        /* \"#utility.yul\":14825:15016   */\n      swap3\n      swap2\n      pop\n      pop\n      jump\t// out\n        /* \"#utility.yul\":15022:15203   */\n    tag_189:\n        /* \"#utility.yul\":15162:15195   */\n      0x416363657373207265737472696374656420746f20746865206f776e65722e00\n        /* \"#utility.yul\":15158:15159   */\n      0x00\n        /* \"#utility.yul\":15150:15156   */\n      dup3\n        /* \"#utility.yul\":15146:15160   */\n      add\n        /* \"#utility.yul\":15139:15196   */\n      mstore\n        /* \"#utility.yul\":15022:15203   */\n      pop\n      jump\t// out\n        /* \"#utility.yul\":15209:15575   */\n    tag_190:\n        /* \"#utility.yul\":15351:15354   */\n      0x00\n        /* \"#utility.yul\":15372:15439   */\n      tag_358\n        /* \"#utility.yul\":15436:15438   */\n      0x1f\n        /* \"#utility.yul\":15431:15434   */\n      dup4\n        /* \"#utility.yul\":15372:15439   */\n      tag_162\n      jump\t// in\n    tag_358:\n        /* \"#utility.yul\":15365:15439   */\n      swap2\n      pop\n        /* \"#utility.yul\":15448:15541   */\n      tag_359\n        /* \"#utility.yul\":15537:15540   */\n      dup3\n        /* \"#utility.yul\":15448:15541   */\n      tag_189\n      jump\t// in\n    tag_359:\n        /* \"#utility.yul\":15566:15568   */\n      0x20\n        /* \"#utility.yul\":15561:15564   */\n      dup3\n        /* \"#utility.yul\":15557:15569   */\n      add\n        /* \"#utility.yul\":15550:15569   */\n      swap1\n      pop\n        /* \"#utility.yul\":15209:15575   */\n      swap2\n      swap1\n      pop\n      jump\t// out\n        /* \"#utility.yul\":15581:16000   */\n    tag_95:\n        /* \"#utility.yul\":15747:15751   */\n      0x00\n        /* \"#utility.yul\":15785:15787   */\n      0x20\n        /* \"#utility.yul\":15774:15783   */\n      dup3\n        /* \"#utility.yul\":15770:15788   */\n      add\n        /* \"#utility.yul\":15762:15788   */\n      swap1\n      pop\n        /* \"#utility.yul\":15834:15843   */\n      dup2\n        /* \"#utility.yul\":15828:15832   */\n      dup2\n        /* \"#utility.yul\":15824:15844   */\n      sub\n        /* \"#utility.yul\":15820:15821   */\n      0x00\n        /* \"#utility.yul\":15809:15818   */\n      dup4\n        /* \"#utility.yul\":15805:15822   */\n      add\n        /* \"#utility.yul\":15798:15845   */\n      mstore\n        /* \"#utility.yul\":15862:15993   */\n      tag_361\n        /* \"#utility.yul\":15988:15992   */\n      dup2\n        /* \"#utility.yul\":15862:15993   */\n      tag_190\n      jump\t// in\n    tag_361:\n        /* \"#utility.yul\":15854:15993   */\n      swap1\n      pop\n        /* \"#utility.yul\":15581:16000   */\n      swap2\n      swap1\n      pop\n      jump\t// out\n        /* \"#utility.yul\":16006:16185   */\n    tag_191:\n        /* \"#utility.yul\":16146:16177   */\n      0x4d696e7420616d6f756e74206d75737420626520706f7369746976652e000000\n        /* \"#utility.yul\":16142:16143   */\n      0x00\n        /* \"#utility.yul\":16134:16140   */\n      dup3\n        /* \"#utility.yul\":16130:16144   */\n      add\n        /* \"#utility.yul\":16123:16178   */\n      mstore\n        /* \"#utility.yul\":16006:16185   */\n      pop\n      jump\t// out\n        /* \"#utility.yul\":16191:16557   */\n    tag_192:\n        /* \"#utility.yul\":16333:16336   */\n      0x00\n        /* \"#utility.yul\":16354:16421   */\n      tag_364\n        /* \"#utility.yul\":16418:16420   */\n      0x1d\n        /* \"#utility.yul\":16413:16416   */\n      dup4\n        /* \"#utility.yul\":16354:16421   */\n      tag_162\n      jump\t// in\n    tag_364:\n        /* \"#utility.yul\":16347:16421   */\n      swap2\n      pop\n        /* \"#utility.yul\":16430:16523   */\n      tag_365\n        /* \"#utility.yul\":16519:16522   */\n      dup3\n        /* \"#utility.yul\":16430:16523   */\n      tag_191\n      jump\t// in\n    tag_365:\n        /* \"#utility.yul\":16548:16550   */\n      0x20\n        /* \"#utility.yul\":16543:16546   */\n      dup3\n        /* \"#utility.yul\":16539:16551   */\n      add\n        /* \"#utility.yul\":16532:16551   */\n      swap1\n      pop\n        /* \"#utility.yul\":16191:16557   */\n      swap2\n      swap1\n      pop\n      jump\t// out\n        /* \"#utility.yul\":16563:16982   */\n    tag_99:\n        /* \"#utility.yul\":16729:16733   */\n      0x00\n        /* \"#utility.yul\":16767:16769   */\n      0x20\n        /* \"#utility.yul\":16756:16765   */\n      dup3\n        /* \"#utility.yul\":16752:16770   */\n      add\n        /* \"#utility.yul\":16744:16770   */\n      swap1\n      pop\n        /* \"#utility.yul\":16816:16825   */\n      dup2\n        /* \"#utility.yul\":16810:16814   */\n      dup2\n        /* \"#utility.yul\":16806:16826   */\n      sub\n        /* \"#utility.yul\":16802:16803   */\n      0x00\n        /* \"#utility.yul\":16791:16800   */\n      dup4\n        /* \"#utility.yul\":16787:16804   */\n      add\n        /* \"#utility.yul\":16780:16827   */\n      mstore\n        /* \"#utility.yul\":16844:16975   */\n      tag_367\n        /* \"#utility.yul\":16970:16974   */\n      dup2\n        /* \"#utility.yul\":16844:16975   */\n      tag_192\n      jump\t// in\n    tag_367:\n        /* \"#utility.yul\":16836:16975   */\n      swap1\n      pop\n        /* \"#utility.yul\":16563:16982   */\n      swap2\n      swap1\n      pop\n      jump\t// out\n        /* \"#utility.yul\":16988:17168   */\n    tag_193:\n        /* \"#utility.yul\":17036:17113   */\n      0x4e487b7100000000000000000000000000000000000000000000000000000000\n        /* \"#utility.yul\":17033:17034   */\n      0x00\n        /* \"#utility.yul\":17026:17114   */\n      mstore\n        /* \"#utility.yul\":17133:17137   */\n      0x22\n        /* \"#utility.yul\":17130:17131   */\n      0x04\n        /* \"#utility.yul\":17123:17138   */\n      mstore\n        /* \"#utility.yul\":17157:17161   */\n      0x24\n        /* \"#utility.yul\":17154:17155   */\n      0x00\n        /* \"#utility.yul\":17147:17162   */\n      revert\n        /* \"#utility.yul\":17174:17494   */\n    tag_104:\n        /* \"#utility.yul\":17218:17224   */\n      0x00\n        /* \"#utility.yul\":17255:17256   */\n      0x02\n        /* \"#utility.yul\":17249:17253   */\n      dup3\n        /* \"#utility.yul\":17245:17257   */\n      div\n        /* \"#utility.yul\":17235:17257   */\n      swap1\n      pop\n        /* \"#utility.yul\":17302:17303   */\n      0x01\n        /* \"#utility.yul\":17296:17300   */\n      dup3\n        /* \"#utility.yul\":17292:17304   */\n      and\n        /* \"#utility.yul\":17323:17341   */\n      dup1\n        /* \"#utility.yul\":17313:17394   */\n      tag_370\n      jumpi\n        /* \"#utility.yul\":17379:17383   */\n      0x7f\n        /* \"#utility.yul\":17371:17377   */\n      dup3\n        /* \"#utility.yul\":17367:17384   */\n      and\n        /* \"#utility.yul\":17357:17384   */\n      swap2\n      pop\n        /* \"#utility.yul\":17313:17394   */\n    tag_370:\n        /* \"#utility.yul\":17441:17443   */\n      0x20\n        /* \"#utility.yul\":17433:17439   */\n      dup3\n        /* \"#utility.yul\":17430:17444   */\n      lt\n        /* \"#utility.yul\":17410:17428   */\n      dup2\n        /* \"#utility.yul\":17407:17445   */\n      sub\n        /* \"#utility.yul\":17404:17488   */\n      tag_371\n      jumpi\n        /* \"#utility.yul\":17460:17478   */\n      tag_372\n      tag_193\n      jump\t// in\n    tag_372:\n        /* \"#utility.yul\":17404:17488   */\n    tag_371:\n        /* \"#utility.yul\":17225:17494   */\n      pop\n        /* \"#utility.yul\":17174:17494   */\n      swap2\n      swap1\n      pop\n      jump\t// out\n        /* \"#utility.yul\":17500:17679   */\n    tag_194:\n        /* \"#utility.yul\":17640:17671   */\n      0x4275726e20616d6f756e74206d75737420626520706f7369746976652e000000\n        /* \"#utility.yul\":17636:17637   */\n      0x00\n        /* \"#utility.yul\":17628:17634   */\n      dup3\n        /* \"#utility.yul\":17624:17638   */\n      add\n        /* \"#utility.yul\":17617:17672   */\n      mstore\n        /* \"#utility.yul\":17500:17679   */\n      pop\n      jump\t// out\n        /* \"#utility.yul\":17685:18051   */\n    tag_195:\n        /* \"#utility.yul\":17827:17830   */\n      0x00\n        /* \"#utility.yul\":17848:17915   */\n      tag_375\n        /* \"#utility.yul\":17912:17914   */\n      0x1d\n        /* \"#utility.yul\":17907:17910   */\n      dup4\n        /* \"#utility.yul\":17848:17915   */\n      tag_162\n      jump\t// in\n    tag_375:\n        /* \"#utility.yul\":17841:17915   */\n      swap2\n      pop\n        /* \"#utility.yul\":17924:18017   */\n      tag_376\n        /* \"#utility.yul\":18013:18016   */\n      dup3\n        /* \"#utility.yul\":17924:18017   */\n      tag_194\n      jump\t// in\n    tag_376:\n        /* \"#utility.yul\":18042:18044   */\n      0x20\n        /* \"#utility.yul\":18037:18040   */\n      dup3\n        /* \"#utility.yul\":18033:18045   */\n      add\n        /* \"#utility.yul\":18026:18045   */\n      swap1\n      pop\n        /* \"#utility.yul\":17685:18051   */\n      swap2\n      swap1\n      pop\n      jump\t// out\n        /* \"#utility.yul\":18057:18476   */\n    tag_121:\n        /* \"#utility.yul\":18223:18227   */\n      0x00\n        /* \"#utility.yul\":18261:18263   */\n      0x20\n        /* \"#utility.yul\":18250:18259   */\n      dup3\n        /* \"#utility.yul\":18246:18264   */\n      add\n        /* \"#utility.yul\":18238:18264   */\n      swap1\n      pop\n        /* \"#utility.yul\":18310:18319   */\n      dup2\n        /* \"#utility.yul\":18304:18308   */\n      dup2\n        /* \"#utility.yul\":18300:18320   */\n      sub\n        /* \"#utility.yul\":18296:18297   */\n      0x00\n        /* \"#utility.yul\":18285:18294   */\n      dup4\n        /* \"#utility.yul\":18281:18298   */\n      add\n        /* \"#utility.yul\":18274:18321   */\n      mstore\n        /* \"#utility.yul\":18338:18469   */\n      tag_378\n        /* \"#utility.yul\":18464:18468   */\n      dup2\n        /* \"#utility.yul\":18338:18469   */\n      tag_195\n      jump\t// in\n    tag_378:\n        /* \"#utility.yul\":18330:18469   */\n      swap1\n      pop\n        /* \"#utility.yul\":18057:18476   */\n      swap2\n      swap1\n      pop\n      jump\t// out\n        /* \"#utility.yul\":18482:18661   */\n    tag_196:\n        /* \"#utility.yul\":18622:18653   */\n      0x496e73756666696369656e742062616c616e636520746f206275726e2e000000\n        /* \"#utility.yul\":18618:18619   */\n      0x00\n        /* \"#utility.yul\":18610:18616   */\n      dup3\n        /* \"#utility.yul\":18606:18620   */\n      add\n        /* \"#utility.yul\":18599:18654   */\n      mstore\n        /* \"#utility.yul\":18482:18661   */\n      pop\n      jump\t// out\n        /* \"#utility.yul\":18667:19033   */\n    tag_197:\n        /* \"#utility.yul\":18809:18812   */\n      0x00\n        /* \"#utility.yul\":18830:18897   */\n      tag_381\n        /* \"#utility.yul\":18894:18896   */\n      0x1d\n        /* \"#utility.yul\":18889:18892   */\n      dup4\n        /* \"#utility.yul\":18830:18897   */\n      tag_162\n      jump\t// in\n    tag_381:\n        /* \"#utility.yul\":18823:18897   */\n      swap2\n      pop\n        /* \"#utility.yul\":18906:18999   */\n      tag_382\n        /* \"#utility.yul\":18995:18998   */\n      dup3\n        /* \"#utility.yul\":18906:18999   */\n      tag_196\n      jump\t// in\n    tag_382:\n        /* \"#utility.yul\":19024:19026   */\n      0x20\n        /* \"#utility.yul\":19019:19022   */\n      dup3\n        /* \"#utility.yul\":19015:19027   */\n      add\n        /* \"#utility.yul\":19008:19027   */\n      swap1\n      pop\n        /* \"#utility.yul\":18667:19033   */\n      swap2\n      swap1\n      pop\n      jump\t// out\n        /* \"#utility.yul\":19039:19458   */\n    tag_124:\n        /* \"#utility.yul\":19205:19209   */\n      0x00\n        /* \"#utility.yul\":19243:19245   */\n      0x20\n        /* \"#utility.yul\":19232:19241   */\n      dup3\n        /* \"#utility.yul\":19228:19246   */\n      add\n        /* \"#utility.yul\":19220:19246   */\n      swap1\n      pop\n        /* \"#utility.yul\":19292:19301   */\n      dup2\n        /* \"#utility.yul\":19286:19290   */\n      dup2\n        /* \"#utility.yul\":19282:19302   */\n      sub\n        /* \"#utility.yul\":19278:19279   */\n      0x00\n        /* \"#utility.yul\":19267:19276   */\n      dup4\n        /* \"#utility.yul\":19263:19280   */\n      add\n        /* \"#utility.yul\":19256:19303   */\n      mstore\n        /* \"#utility.yul\":19320:19451   */\n      tag_384\n        /* \"#utility.yul\":19446:19450   */\n      dup2\n        /* \"#utility.yul\":19320:19451   */\n      tag_197\n      jump\t// in\n    tag_384:\n        /* \"#utility.yul\":19312:19451   */\n      swap1\n      pop\n        /* \"#utility.yul\":19039:19458   */\n      swap2\n      swap1\n      pop\n      jump\t// out\n        /* \"#utility.yul\":19464:19605   */\n    tag_198:\n        /* \"#utility.yul\":19513:19517   */\n      0x00\n        /* \"#utility.yul\":19536:19539   */\n      dup2\n        /* \"#utility.yul\":19528:19539   */\n      swap1\n      pop\n        /* \"#utility.yul\":19559:19562   */\n      dup2\n        /* \"#utility.yul\":19556:19557   */\n      0x00\n        /* \"#utility.yul\":19549:19563   */\n      mstore\n        /* \"#utility.yul\":19593:19597   */\n      0x20\n        /* \"#utility.yul\":19590:19591   */\n      0x00\n        /* \"#utility.yul\":19580:19598   */\n      keccak256\n        /* \"#utility.yul\":19572:19598   */\n      swap1\n      pop\n        /* \"#utility.yul\":19464:19605   */\n      swap2\n      swap1\n      pop\n      jump\t// out\n        /* \"#utility.yul\":19611:19704   */\n    tag_199:\n        /* \"#utility.yul\":19648:19654   */\n      0x00\n        /* \"#utility.yul\":19695:19697   */\n      0x20\n        /* \"#utility.yul\":19690:19692   */\n      0x1f\n        /* \"#utility.yul\":19683:19688   */\n      dup4\n        /* \"#utility.yul\":19679:19693   */\n      add\n        /* \"#utility.yul\":19675:19698   */\n      div\n        /* \"#utility.yul\":19665:19698   */\n      swap1\n      pop\n        /* \"#utility.yul\":19611:19704   */\n      swap2\n      swap1\n      pop\n      jump\t// out\n        /* \"#utility.yul\":19710:19817   */\n    tag_200:\n        /* \"#utility.yul\":19754:19762   */\n      0x00\n        /* \"#utility.yul\":19804:19809   */\n      dup3\n        /* \"#utility.yul\":19798:19802   */\n      dup3\n        /* \"#utility.yul\":19794:19810   */\n      shl\n        /* \"#utility.yul\":19773:19810   */\n      swap1\n      pop\n        /* \"#utility.yul\":19710:19817   */\n      swap3\n      swap2\n      pop\n      pop\n      jump\t// out\n        /* \"#utility.yul\":19823:20216   */\n    tag_201:\n        /* \"#utility.yul\":19892:19898   */\n      0x00\n        /* \"#utility.yul\":19942:19943   */\n      0x08\n        /* \"#utility.yul\":19930:19940   */\n      dup4\n        /* \"#utility.yul\":19926:19944   */\n      mul\n        /* \"#utility.yul\":19965:20062   */\n      tag_389\n        /* \"#utility.yul\":19995:20061   */\n      0xffffffffffffffffffffffffffffffffffffffffffffffffffffffffffffffff\n        /* \"#utility.yul\":19984:19993   */\n      dup3\n        /* \"#utility.yul\":19965:20062   */\n      tag_200\n      jump\t// in\n    tag_389:\n        /* \"#utility.yul\":20083:20122   */\n      tag_390\n        /* \"#utility.yul\":20113:20121   */\n      dup7\n        /* \"#utility.yul\":20102:20111   */\n      dup4\n        /* \"#utility.yul\":20083:20122   */\n      tag_200\n      jump\t// in\n    tag_390:\n        /* \"#utility.yul\":20071:20122   */\n      swap6\n      pop\n        /* \"#utility.yul\":20155:20159   */\n      dup1\n        /* \"#utility.yul\":20151:20160   */\n      not\n        /* \"#utility.yul\":20144:20149   */\n      dup5\n        /* \"#utility.yul\":20140:20161   */\n      and\n        /* \"#utility.yul\":20131:20161   */\n      swap4\n      pop\n        /* \"#utility.yul\":20204:20208   */\n      dup1\n        /* \"#utility.yul\":20194:20202   */\n      dup7\n        /* \"#utility.yul\":20190:20209   */\n      and\n        /* \"#utility.yul\":20183:20188   */\n      dup5\n        /* \"#utility.yul\":20180:20210   */\n      or\n        /* \"#utility.yul\":20170:20210   */\n      swap3\n      pop\n        /* \"#utility.yul\":19899:20216   */\n      pop\n      pop\n        /* \"#utility.yul\":19823:20216   */\n      swap4\n      swap3\n      pop\n      pop\n      pop\n      jump\t// out\n        /* \"#utility.yul\":20222:20282   */\n    tag_202:\n        /* \"#utility.yul\":20250:20253   */\n      0x00\n        /* \"#utility.yul\":20271:20276   */\n      dup2\n        /* \"#utility.yul\":20264:20276   */\n      swap1\n      pop\n        /* \"#utility.yul\":20222:20282   */\n      swap2\n      swap1\n      pop\n      jump\t// out\n        /* \"#utility.yul\":20288:20430   */\n    tag_203:\n        /* \"#utility.yul\":20338:20347   */\n      0x00\n        /* \"#utility.yul\":20371:20424   */\n      tag_393\n        /* \"#utility.yul\":20389:20423   */\n      tag_394\n        /* \"#utility.yul\":20398:20422   */\n      tag_395\n        /* \"#utility.yul\":20416:20421   */\n      dup5\n        /* \"#utility.yul\":20398:20422   */\n      tag_148\n      jump\t// in\n    tag_395:\n        /* \"#utility.yul\":20389:20423   */\n      tag_202\n      jump\t// in\n    tag_394:\n        /* \"#utility.yul\":20371:20424   */\n      tag_148\n      jump\t// in\n    tag_393:\n        /* \"#utility.yul\":20358:20424   */\n      swap1\n      pop\n        /* \"#utility.yul\":20288:20430   */\n      swap2\n      swap1\n      pop\n      jump\t// out\n        /* \"#utility.yul\":20436:20511   */\n    tag_204:\n        /* \"#utility.yul\":20479:20482   */\n      0x00\n        /* \"#utility.yul\":20500:20505   */\n      dup2\n        /* \"#utility.yul\":20493:20505   */\n      swap1\n      pop\n        /* \"#utility.yul\":20436:20511   */\n      swap2\n      swap1\n      pop\n      jump\t// out\n        /* \"#utility.yul\":20517:20786   */\n    tag_205:\n        /* \"#utility.yul\":20627:20666   */\n      tag_398\n        /* \"#utility.yul\":20658:20665   */\n      dup4\n        /* \"#utility.yul\":20627:20666   */\n      tag_203\n      jump\t// in\n    tag_398:\n        /* \"#utility.yul\":20688:20779   */\n      tag_399\n        /* \"#utility.yul\":20737:20778   */\n      tag_400\n        /* \"#utility.yul\":20761:20777   */\n      dup3\n        /* \"#utility.yul\":20737:20778   */\n      tag_204\n      jump\t// in\n    tag_400:\n        /* \"#utility.yul\":20729:20735   */\n      dup5\n        /* \"#utility.yul\":20722:20726   */\n      dup5\n        /* \"#utility.yul\":20716:20727   */\n      sload\n        /* \"#utility.yul\":20688:20779   */\n      tag_201\n      jump\t// in\n    tag_399:\n        /* \"#utility.yul\":20682:20686   */\n      dup3\n        /* \"#utility.yul\":20675:20780   */\n      sstore\n        /* \"#utility.yul\":20593:20786   */\n      pop\n        /* \"#utility.yul\":20517:20786   */\n      pop\n      pop\n      pop\n      jump\t// out\n        /* \"#utility.yul\":20792:20865   */\n    tag_206:\n        /* \"#utility.yul\":20837:20840   */\n      0x00\n        /* \"#utility.yul\":20792:20865   */\n      swap1\n      jump\t// out\n        /* \"#utility.yul\":20871:21060   */\n    tag_207:\n        /* \"#utility.yul\":20948:20980   */\n      tag_403\n      tag_206\n      jump\t// in\n    tag_403:\n        /* \"#utility.yul\":20989:21054   */\n      tag_404\n        /* \"#utility.yul\":21047:21053   */\n      dup2\n        /* \"#utility.yul\":21039:21045   */\n      dup5\n        /* \"#utility.yul\":21033:21037   */\n      dup5\n        /* \"#utility.yul\":20989:21054   */\n      tag_205\n      jump\t// in\n    tag_404:\n        /* \"#utility.yul\":20924:21060   */\n      pop\n        /* \"#utility.yul\":20871:21060   */\n      pop\n      pop\n      jump\t// out\n        /* \"#utility.yul\":21066:21252   */\n    tag_208:\n        /* \"#utility.yul\":21126:21246   */\n    tag_406:\n        /* \"#utility.yul\":21143:21146   */\n      dup2\n        /* \"#utility.yul\":21136:21141   */\n      dup2\n        /* \"#utility.yul\":21133:21147   */\n      lt\n        /* \"#utility.yul\":21126:21246   */\n      iszero\n      tag_408\n      jumpi\n        /* \"#utility.yul\":21197:21236   */\n      tag_409\n        /* \"#utility.yul\":21234:21235   */\n      0x00\n        /* \"#utility.yul\":21227:21232   */\n      dup3\n        /* \"#utility.yul\":21197:21236   */\n      tag_207\n      jump\t// in\n    tag_409:\n        /* \"#utility.yul\":21170:21171   */\n      0x01\n        /* \"#utility.yul\":21163:21168   */\n      dup2\n        /* \"#utility.yul\":21159:21172   */\n      add\n        /* \"#utility.yul\":21150:21172   */\n      swap1\n      pop\n        /* \"#utility.yul\":21126:21246   */\n      jump(tag_406)\n    tag_408:\n        /* \"#utility.yul\":21066:21252   */\n      pop\n      pop\n      jump\t// out\n        /* \"#utility.yul\":21258:21801   */\n    tag_209:\n        /* \"#utility.yul\":21359:21361   */\n      0x1f\n        /* \"#utility.yul\":21354:21357   */\n      dup3\n        /* \"#utility.yul\":21351:21362   */\n      gt\n        /* \"#utility.yul\":21348:21794   */\n      iszero\n      tag_411\n      jumpi\n        /* \"#utility.yul\":21393:21431   */\n      tag_412\n        /* \"#utility.yul\":21425:21430   */\n      dup2\n        /* \"#utility.yul\":21393:21431   */\n      tag_198\n      jump\t// in\n    tag_412:\n        /* \"#utility.yul\":21477:21506   */\n      tag_413\n        /* \"#utility.yul\":21495:21505   */\n      dup5\n        /* \"#utility.yul\":21477:21506   */\n      tag_199\n      jump\t// in\n    tag_413:\n        /* \"#utility.yul\":21467:21475   */\n      dup2\n        /* \"#utility.yul\":21463:21507   */\n      add\n        /* \"#utility.yul\":21660:21662   */\n      0x20\n        /* \"#utility.yul\":21648:21658   */\n      dup6\n        /* \"#utility.yul\":21645:21663   */\n      lt\n        /* \"#utility.yul\":21642:21691   */\n      iszero\n      tag_414\n      jumpi\n        /* \"#utility.yul\":21681:21689   */\n      dup2\n        /* \"#utility.yul\":21666:21689   */\n      swap1\n      pop\n        /* \"#utility.yul\":21642:21691   */\n    tag_414:\n        /* \"#utility.yul\":21704:21784   */\n      tag_415\n        /* \"#utility.yul\":21760:21782   */\n      tag_416\n        /* \"#utility.yul\":21778:21781   */\n      dup6\n        /* \"#utility.yul\":21760:21782   */\n      tag_199\n      jump\t// in\n    tag_416:\n        /* \"#utility.yul\":21750:21758   */\n      dup4\n        /* \"#utility.yul\":21746:21783   */\n      add\n        /* \"#utility.yul\":21733:21744   */\n      dup3\n        /* \"#utility.yul\":21704:21784   */\n      tag_208\n      jump\t// in\n    tag_415:\n        /* \"#utility.yul\":21363:21794   */\n      pop\n      pop\n        /* \"#utility.yul\":21348:21794   */\n    tag_411:\n        /* \"#utility.yul\":21258:21801   */\n      pop\n      pop\n      pop\n      jump\t// out\n        /* \"#utility.yul\":21807:21924   */\n    tag_210:\n        /* \"#utility.yul\":21861:21869   */\n      0x00\n        /* \"#utility.yul\":21911:21916   */\n      dup3\n        /* \"#utility.yul\":21905:21909   */\n      dup3\n        /* \"#utility.yul\":21901:21917   */\n      shr\n        /* \"#utility.yul\":21880:21917   */\n      swap1\n      pop\n        /* \"#utility.yul\":21807:21924   */\n      swap3\n      swap2\n      pop\n      pop\n      jump\t// out\n        /* \"#utility.yul\":21930:22099   */\n    tag_211:\n        /* \"#utility.yul\":21974:21980   */\n      0x00\n        /* \"#utility.yul\":22007:22058   */\n      tag_419\n        /* \"#utility.yul\":22055:22056   */\n      0x00\n        /* \"#utility.yul\":22051:22057   */\n      not\n        /* \"#utility.yul\":22043:22048   */\n      dup5\n        /* \"#utility.yul\":22040:22041   */\n      0x08\n        /* \"#utility.yul\":22036:22049   */\n      mul\n        /* \"#utility.yul\":22007:22058   */\n      tag_210\n      jump\t// in\n    tag_419:\n        /* \"#utility.yul\":22003:22059   */\n      not\n        /* \"#utility.yul\":22088:22092   */\n      dup1\n        /* \"#utility.yul\":22082:22086   */\n      dup4\n        /* \"#utility.yul\":22078:22093   */\n      and\n        /* \"#utility.yul\":22068:22093   */\n      swap2\n      pop\n        /* \"#utility.yul\":21981:22099   */\n      pop\n        /* \"#utility.yul\":21930:22099   */\n      swap3\n      swap2\n      pop\n      pop\n      jump\t// out\n        /* \"#utility.yul\":22104:22399   */\n    tag_212:\n        /* \"#utility.yul\":22180:22184   */\n      0x00\n        /* \"#utility.yul\":22326:22355   */\n      tag_421\n        /* \"#utility.yul\":22351:22354   */\n      dup4\n        /* \"#utility.yul\":22345:22349   */\n      dup4\n        /* \"#utility.yul\":22326:22355   */\n      tag_211\n      jump\t// in\n    tag_421:\n        /* \"#utility.yul\":22318:22355   */\n      swap2\n      pop\n        /* \"#utility.yul\":22388:22391   */\n      dup3\n        /* \"#utility.yul\":22385:22386   */\n      0x02\n        /* \"#utility.yul\":22381:22392   */\n      mul\n        /* \"#utility.yul\":22375:22379   */\n      dup3\n        /* \"#utility.yul\":22372:22393   */\n      or\n        /* \"#utility.yul\":22364:22393   */\n      swap1\n      pop\n        /* \"#utility.yul\":22104:22399   */\n      swap3\n      swap2\n      pop\n      pop\n      jump\t// out\n        /* \"#utility.yul\":22404:23799   */\n    tag_144:\n        /* \"#utility.yul\":22521:22558   */\n      tag_423\n        /* \"#utility.yul\":22554:22557   */\n      dup3\n        /* \"#utility.yul\":22521:22558   */\n      tag_161\n      jump\t// in\n    tag_423:\n        /* \"#utility.yul\":22623:22641   */\n      0xffffffffffffffff\n        /* \"#utility.yul\":22615:22621   */\n      dup2\n        /* \"#utility.yul\":22612:22642   */\n      gt\n        /* \"#utility.yul\":22609:22665   */\n      iszero\n      tag_424\n      jumpi\n        /* \"#utility.yul\":22645:22663   */\n      tag_425\n      tag_169\n      jump\t// in\n    tag_425:\n        /* \"#utility.yul\":22609:22665   */\n    tag_424:\n        /* \"#utility.yul\":22689:22727   */\n      tag_426\n        /* \"#utility.yul\":22721:22725   */\n      dup3\n        /* \"#utility.yul\":22715:22726   */\n      sload\n        /* \"#utility.yul\":22689:22727   */\n      tag_104\n      jump\t// in\n    tag_426:\n        /* \"#utility.yul\":22774:22841   */\n      tag_427\n        /* \"#utility.yul\":22834:22840   */\n      dup3\n        /* \"#utility.yul\":22826:22832   */\n      dup3\n        /* \"#utility.yul\":22820:22824   */\n      dup6\n        /* \"#utility.yul\":22774:22841   */\n      tag_209\n      jump\t// in\n    tag_427:\n        /* \"#utility.yul\":22868:22869   */\n      0x00\n        /* \"#utility.yul\":22892:22896   */\n      0x20\n        /* \"#utility.yul\":22879:22896   */\n      swap1\n      pop\n        /* \"#utility.yul\":22924:22926   */\n      0x1f\n        /* \"#utility.yul\":22916:22922   */\n      dup4\n        /* \"#utility.yul\":22913:22927   */\n      gt\n        /* \"#utility.yul\":22941:22942   */\n      0x01\n        /* \"#utility.yul\":22936:23554   */\n      dup2\n      eq\n      tag_429\n      jumpi\n        /* \"#utility.yul\":23598:23599   */\n      0x00\n        /* \"#utility.yul\":23615:23621   */\n      dup5\n        /* \"#utility.yul\":23612:23689   */\n      iszero\n      tag_430\n      jumpi\n        /* \"#utility.yul\":23664:23673   */\n      dup3\n        /* \"#utility.yul\":23659:23662   */\n      dup8\n        /* \"#utility.yul\":23655:23674   */\n      add\n        /* \"#utility.yul\":23649:23675   */\n      mload\n        /* \"#utility.yul\":23640:23675   */\n      swap1\n      pop\n        /* \"#utility.yul\":23612:23689   */\n    tag_430:\n        /* \"#utility.yul\":23715:23782   */\n      tag_431\n        /* \"#utility.yul\":23775:23781   */\n      dup6\n        /* \"#utility.yul\":23768:23773   */\n      dup3\n        /* \"#utility.yul\":23715:23782   */\n      tag_212\n      jump\t// in\n    tag_431:\n        /* \"#utility.yul\":23709:23713   */\n      dup7\n        /* \"#utility.yul\":23702:23783   */\n      sstore\n        /* \"#utility.yul\":23571:23793   */\n      pop\n        /* \"#utility.yul\":22906:23793   */\n      jump(tag_428)\n        /* \"#utility.yul\":22936:23554   */\n    tag_429:\n        /* \"#utility.yul\":22988:22992   */\n      0x1f\n        /* \"#utility.yul\":22984:22993   */\n      not\n        /* \"#utility.yul\":22976:22982   */\n      dup5\n        /* \"#utility.yul\":22972:22994   */\n      and\n        /* \"#utility.yul\":23022:23059   */\n      tag_432\n        /* \"#utility.yul\":23054:23058   */\n      dup7\n        /* \"#utility.yul\":23022:23059   */\n      tag_198\n      jump\t// in\n    tag_432:\n        /* \"#utility.yul\":23081:23082   */\n      0x00\n        /* \"#utility.yul\":23095:23303   */\n    tag_433:\n        /* \"#utility.yul\":23109:23116   */\n      dup3\n        /* \"#utility.yul\":23106:23107   */\n      dup2\n        /* \"#utility.yul\":23103:23117   */\n      lt\n        /* \"#utility.yul\":23095:23303   */\n      iszero\n      tag_435\n      jumpi\n        /* \"#utility.yul\":23188:23197   */\n      dup5\n        /* \"#utility.yul\":23183:23186   */\n      dup10\n        /* \"#utility.yul\":23179:23198   */\n      add\n        /* \"#utility.yul\":23173:23199   */\n      mload\n        /* \"#utility.yul\":23165:23171   */\n      dup3\n        /* \"#utility.yul\":23158:23200   */\n      sstore\n        /* \"#utility.yul\":23239:23240   */\n      0x01\n        /* \"#utility.yul\":23231:23237   */\n      dup3\n        /* \"#utility.yul\":23227:23241   */\n      add\n        /* \"#utility.yul\":23217:23241   */\n      swap2\n      pop\n        /* \"#utility.yul\":23286:23288   */\n      0x20\n        /* \"#utility.yul\":23275:23284   */\n      dup6\n        /* \"#utility.yul\":23271:23289   */\n      add\n        /* \"#utility.yul\":23258:23289   */\n      swap5\n      pop\n        /* \"#utility.yul\":23132:23136   */\n      0x20\n        /* \"#utility.yul\":23129:23130   */\n      dup2\n        /* \"#utility.yul\":23125:23137   */\n      add\n        /* \"#utility.yul\":23120:23137   */\n      swap1\n      pop\n        /* \"#utility.yul\":23095:23303   */\n      jump(tag_433)\n    tag_435:\n        /* \"#utility.yul\":23331:23337   */\n      dup7\n        /* \"#utility.yul\":23322:23329   */\n      dup4\n        /* \"#utility.yul\":23319:23338   */\n      lt\n        /* \"#utility.yul\":23316:23495   */\n      iszero\n      tag_436\n      jumpi\n        /* \"#utility.yul\":23389:23398   */\n      dup5\n        /* \"#utility.yul\":23384:23387   */\n      dup10\n        /* \"#utility.yul\":23380:23399   */\n      add\n        /* \"#utility.yul\":23374:23400   */\n      mload\n        /* \"#utility.yul\":23432:23480   */\n      tag_437\n        /* \"#utility.yul\":23474:23478   */\n      0x1f\n        /* \"#utility.yul\":23466:23472   */\n      dup10\n        /* \"#utility.yul\":23462:23479   */\n      and\n        /* \"#utility.yul\":23451:23460   */\n      dup3\n        /* \"#utility.yul\":23432:23480   */\n      tag_211\n      jump\t// in\n    tag_437:\n        /* \"#utility.yul\":23424:23430   */\n      dup4\n        /* \"#utility.yul\":23417:23481   */\n      sstore\n        /* \"#utility.yul\":23339:23495   */\n      pop\n        /* \"#utility.yul\":23316:23495   */\n    tag_436:\n        /* \"#utility.yul\":23541:23542   */\n      0x01\n        /* \"#utility.yul\":23537:23538   */\n      0x02\n        /* \"#utility.yul\":23529:23535   */\n      dup9\n        /* \"#utility.yul\":23525:23539   */\n      mul\n        /* \"#utility.yul\":23521:23543   */\n      add\n        /* \"#utility.yul\":23515:23519   */\n      dup9\n        /* \"#utility.yul\":23508:23544   */\n      sstore\n        /* \"#utility.yul\":22943:23554   */\n      pop\n      pop\n      pop\n        /* \"#utility.yul\":22906:23793   */\n    tag_428:\n      pop\n        /* \"#utility.yul\":22496:23799   */\n      pop\n      pop\n      pop\n        /* \"#utility.yul\":22404:23799   */\n      pop\n      pop\n      jump\t// out\n        /* \"#utility.yul\":23805:24429   */\n    tag_147:\n        /* \"#utility.yul\":23994:23998   */\n      0x00\n        /* \"#utility.yul\":24032:24034   */\n      0x60\n        /* \"#utility.yul\":24021:24030   */\n      dup3\n        /* \"#utility.yul\":24017:24035   */\n      add\n        /* \"#utility.yul\":24009:24035   */\n      swap1\n      pop\n        /* \"#utility.yul\":24081:24090   */\n      dup2\n        /* \"#utility.yul\":24075:24079   */\n      dup2\n        /* \"#utility.yul\":24071:24091   */\n      sub\n        /* \"#utility.yul\":24067:24068   */\n      0x00\n        /* \"#utility.yul\":24056:24065   */\n      dup4\n        /* \"#utility.yul\":24052:24069   */\n      add\n        /* \"#utility.yul\":24045:24092   */\n      mstore\n        /* \"#utility.yul\":24109:24187   */\n      tag_439\n        /* \"#utility.yul\":24182:24186   */\n      dup2\n        /* \"#utility.yul\":24173:24179   */\n      dup7\n        /* \"#utility.yul\":24109:24187   */\n      tag_165\n      jump\t// in\n    tag_439:\n        /* \"#utility.yul\":24101:24187   */\n      swap1\n      pop\n        /* \"#utility.yul\":24234:24243   */\n      dup2\n        /* \"#utility.yul\":24228:24232   */\n      dup2\n        /* \"#utility.yul\":24224:24244   */\n      sub\n        /* \"#utility.yul\":24219:24221   */\n      0x20\n        /* \"#utility.yul\":24208:24217   */\n      dup4\n        /* \"#utility.yul\":24204:24222   */\n      add\n        /* \"#utility.yul\":24197:24245   */\n      mstore\n        /* \"#utility.yul\":24262:24340   */\n      tag_440\n        /* \"#utility.yul\":24335:24339   */\n      dup2\n        /* \"#utility.yul\":24326:24332   */\n      dup6\n        /* \"#utility.yul\":24262:24340   */\n      tag_165\n      jump\t// in\n    tag_440:\n        /* \"#utility.yul\":24254:24340   */\n      swap1\n      pop\n        /* \"#utility.yul\":24350:24422   */\n      tag_441\n        /* \"#utility.yul\":24418:24420   */\n      0x40\n        /* \"#utility.yul\":24407:24416   */\n      dup4\n        /* \"#utility.yul\":24403:24421   */\n      add\n        /* \"#utility.yul\":24394:24400   */\n      dup5\n        /* \"#utility.yul\":24350:24422   */\n      tag_149\n      jump\t// in\n    tag_441:\n        /* \"#utility.yul\":23805:24429   */\n      swap5\n      swap4\n      pop\n      pop\n      pop\n      pop\n      jump\t// out\n\n    auxdata: 0xa26469706673582212205fe22d9410e08d7d6c01c65f909c770bd1566e0813ebd386faa406b700b0f4a964736f6c634300081a0033\n}\n",
				"bytecode": {
					"linkReferences": {},
					"object": "60806040526040518060400160405280600481526020017f79617368000000000000000000000000000000000000000000000000000000008152505f9081610047919061031d565b506040518060400160405280600581526020017f6b756d61720000000000000000000000000000000000000000000000000000008152506001908161008c919061031d565b50600a60025534801561009d575f80fd5b503360035f6101000a81548173ffffffffffffffffffffffffffffffffffffffff021916908373ffffffffffffffffffffffffffffffffffffffff1602179055506103ec565b5f81519050919050565b7f4e487b71000000000000000000000000000000000000000000000000000000005f52604160045260245ffd5b7f4e487b71000000000000000000000000000000000000000000000000000000005f52602260045260245ffd5b5f600282049050600182168061015e57607f821691505b6020821081036101715761017061011a565b5b50919050565b5f819050815f5260205f209050919050565b5f6020601f8301049050919050565b5f82821b905092915050565b5f600883026101d37fffffffffffffffffffffffffffffffffffffffffffffffffffffffffffffffff82610198565b6101dd8683610198565b95508019841693508086168417925050509392505050565b5f819050919050565b5f819050919050565b5f61022161021c610217846101f5565b6101fe565b6101f5565b9050919050565b5f819050919050565b61023a83610207565b61024e61024682610228565b8484546101a4565b825550505050565b5f90565b610262610256565b61026d818484610231565b505050565b5b81811015610290576102855f8261025a565b600181019050610273565b5050565b601f8211156102d5576102a681610177565b6102af84610189565b810160208510156102be578190505b6102d26102ca85610189565b830182610272565b50505b505050565b5f82821c905092915050565b5f6102f55f19846008026102da565b1980831691505092915050565b5f61030d83836102e6565b9150826002028217905092915050565b610326826100e3565b67ffffffffffffffff81111561033f5761033e6100ed565b5b6103498254610147565b610354828285610294565b5f60209050601f831160018114610385575f8415610373578287015190505b61037d8582610302565b8655506103e4565b601f19841661039386610177565b5f5b828110156103ba57848901518255600182019150602085019450602081019050610395565b868310156103d757848901516103d3601f8916826102e6565b8355505b6001600288020188555050505b505050505050565b611d2c806103f95f395ff3fe608060405234801561000f575f80fd5b50600436106100b2575f3560e01c80639ab03dcb1161006f5780639ab03dcb1461019e5780639dc29fac146101bc578063a9059cbb146101d8578063ce606ee0146101f4578063dd62ed3e14610212578063e544202614610242576100b2565b8063047fc9aa146100b6578063095ea7b3146100d457806323b872dd1461010457806340c10f19146101345780634589fe0c1461015057806370a082311461016e575b5f80fd5b6100be61025e565b6040516100cb91906110a3565b60405180910390f35b6100ee60048036038101906100e99190611151565b610264565b6040516100fb91906111a9565b60405180910390f35b61011e600480360381019061011991906111c2565b6103bf565b60405161012b91906111a9565b60405180910390f35b61014e60048036038101906101499190611151565b6107bd565b005b61015861094b565b6040516101659190611282565b60405180910390f35b610188600480360381019061018391906112a2565b6109d6565b60405161019591906110a3565b60405180910390f35b6101a6610a1c565b6040516101b39190611282565b60405180910390f35b6101d660048036038101906101d19190611151565b610aa8565b005b6101f260048036038101906101ed9190611151565b610cb6565b005b6101fc610ef5565b60405161020991906112dc565b60405180910390f35b61022c600480360381019061022791906112f5565b610f1a565b60405161023991906110a3565b60405180910390f35b61025c6004803603810190610257919061145f565b610f9c565b005b60025481565b5f8073ffffffffffffffffffffffffffffffffffffffff168373ffffffffffffffffffffffffffffffffffffffff16036102d3576040517f08c379a00000000000000000000000000000000000000000000000000000000081526004016102ca9061151f565b60405180910390fd5b8160055f3373ffffffffffffffffffffffffffffffffffffffff1673ffffffffffffffffffffffffffffffffffffffff1681526020019081526020015f205f8573ffffffffffffffffffffffffffffffffffffffff1673ffffffffffffffffffffffffffffffffffffffff1681526020019081526020015f20819055508273ffffffffffffffffffffffffffffffffffffffff163373ffffffffffffffffffffffffffffffffffffffff167f8c5be1e5ebec7d5bd14f71427d1e84f3dd0314c0f7b2291e5b200ac8c7c3b925846040516103ad91906110a3565b60405180910390a36001905092915050565b5f8073ffffffffffffffffffffffffffffffffffffffff168473ffffffffffffffffffffffffffffffffffffffff160361042e576040517f08c379a000000000000000000000000000000000000000000000000000000000815260040161042590611587565b60405180910390fd5b5f73ffffffffffffffffffffffffffffffffffffffff168373ffffffffffffffffffffffffffffffffffffffff160361049c576040517f08c379a0000000000000000000000000000000000000000000000000000000008152600401610493906115ef565b60405180910390fd5b5f82116104de576040517f08c379a00000000000000000000000000000000000000000000000000000000081526004016104d59061167d565b60405180910390fd5b8160045f8673ffffffffffffffffffffffffffffffffffffffff1673ffffffffffffffffffffffffffffffffffffffff1681526020019081526020015f2054101561055e576040517f08c379a00000000000000000000000000000000000000000000000000000000081526004016105559061170b565b60405180910390fd5b8160055f8673ffffffffffffffffffffffffffffffffffffffff1673ffffffffffffffffffffffffffffffffffffffff1681526020019081526020015f205f3373ffffffffffffffffffffffffffffffffffffffff1673ffffffffffffffffffffffffffffffffffffffff1681526020019081526020015f20541015610619576040517f08c379a000000000000000000000000000000000000000000000000000000000815260040161061090611799565b60405180910390fd5b8160045f8673ffffffffffffffffffffffffffffffffffffffff1673ffffffffffffffffffffffffffffffffffffffff1681526020019081526020015f205f82825461066591906117e4565b925050819055508160045f8573ffffffffffffffffffffffffffffffffffffffff1673ffffffffffffffffffffffffffffffffffffffff1681526020019081526020015f205f8282546106b89190611817565b925050819055508160055f8673ffffffffffffffffffffffffffffffffffffffff1673ffffffffffffffffffffffffffffffffffffffff1681526020019081526020015f205f3373ffffffffffffffffffffffffffffffffffffffff1673ffffffffffffffffffffffffffffffffffffffff1681526020019081526020015f205f82825461074691906117e4565b925050819055508273ffffffffffffffffffffffffffffffffffffffff168473ffffffffffffffffffffffffffffffffffffffff167fddf252ad1be2c89b69c2b068fc378daa952ba7f163c4a11628f55a4df523b3ef846040516107aa91906110a3565b60405180910390a3600190509392505050565b60035f9054906101000a900473ffffffffffffffffffffffffffffffffffffffff1673ffffffffffffffffffffffffffffffffffffffff163373ffffffffffffffffffffffffffffffffffffffff161461084c576040517f08c379a000000000000000000000000000000000000000000000000000000000815260040161084390611894565b60405180910390fd5b5f811161088e576040517f08c379a0000000000000000000000000000000000000000000000000000000008152600401610885906118fc565b60405180910390fd5b8060025f82825461089f9190611817565b925050819055508060045f8473ffffffffffffffffffffffffffffffffffffffff1673ffffffffffffffffffffffffffffffffffffffff1681526020019081526020015f205f8282546108f29190611817565b925050819055508173ffffffffffffffffffffffffffffffffffffffff167f0f6798a560793a54c3bcfe86a93cde1e73087d944c0ea20544137d41213968858260405161093f91906110a3565b60405180910390a25050565b5f805461095790611947565b80601f016020809104026020016040519081016040528092919081815260200182805461098390611947565b80156109ce5780601f106109a5576101008083540402835291602001916109ce565b820191905f5260205f20905b8154815290600101906020018083116109b157829003601f168201915b505050505081565b5f60045f8373ffffffffffffffffffffffffffffffffffffffff1673ffffffffffffffffffffffffffffffffffffffff1681526020019081526020015f20549050919050565b60018054610a2990611947565b80601f0160208091040260200160405190810160405280929190818152602001828054610a5590611947565b8015610aa05780601f10610a7757610100808354040283529160200191610aa0565b820191905f5260205f20905b815481529060010190602001808311610a8357829003601f168201915b505050505081565b60035f9054906101000a900473ffffffffffffffffffffffffffffffffffffffff1673ffffffffffffffffffffffffffffffffffffffff163373ffffffffffffffffffffffffffffffffffffffff1614610b37576040517f08c379a0000000000000000000000000000000000000000000000000000000008152600401610b2e90611894565b60405180910390fd5b5f8111610b79576040517f08c379a0000000000000000000000000000000000000000000000000000000008152600401610b70906119c1565b60405180910390fd5b8060045f8473ffffffffffffffffffffffffffffffffffffffff1673ffffffffffffffffffffffffffffffffffffffff1681526020019081526020015f20541015610bf9576040517f08c379a0000000000000000000000000000000000000000000000000000000008152600401610bf090611a29565b60405180910390fd5b8060025f828254610c0a91906117e4565b925050819055508060045f8473ffffffffffffffffffffffffffffffffffffffff1673ffffffffffffffffffffffffffffffffffffffff1681526020019081526020015f205f828254610c5d91906117e4565b925050819055508173ffffffffffffffffffffffffffffffffffffffff167fcc16f5dbb4873280815c1ee09dbd06736cffcc184412cf7a71a0fdb75d397ca582604051610caa91906110a3565b60405180910390a25050565b5f73ffffffffffffffffffffffffffffffffffffffff168273ffffffffffffffffffffffffffffffffffffffff1603610d24576040517f08c379a0000000000000000000000000000000000000000000000000000000008152600401610d1b906115ef565b60405180910390fd5b5f8111610d66576040517f08c379a0000000000000000000000000000000000000000000000000000000008152600401610d5d9061167d565b60405180910390fd5b8060045f3373ffffffffffffffffffffffffffffffffffffffff1673ffffffffffffffffffffffffffffffffffffffff1681526020019081526020015f20541015610de6576040517f08c379a0000000000000000000000000000000000000000000000000000000008152600401610ddd9061170b565b60405180910390fd5b8060045f3373ffffffffffffffffffffffffffffffffffffffff1673ffffffffffffffffffffffffffffffffffffffff1681526020019081526020015f205f828254610e3291906117e4565b925050819055508060045f8473ffffffffffffffffffffffffffffffffffffffff1673ffffffffffffffffffffffffffffffffffffffff1681526020019081526020015f205f828254610e859190611817565b925050819055508173ffffffffffffffffffffffffffffffffffffffff163373ffffffffffffffffffffffffffffffffffffffff167fddf252ad1be2c89b69c2b068fc378daa952ba7f163c4a11628f55a4df523b3ef83604051610ee991906110a3565b60405180910390a35050565b60035f9054906101000a900473ffffffffffffffffffffffffffffffffffffffff1681565b5f60055f8473ffffffffffffffffffffffffffffffffffffffff1673ffffffffffffffffffffffffffffffffffffffff1681526020019081526020015f205f8373ffffffffffffffffffffffffffffffffffffffff1673ffffffffffffffffffffffffffffffffffffffff1681526020019081526020015f2054905092915050565b60035f9054906101000a900473ffffffffffffffffffffffffffffffffffffffff1673ffffffffffffffffffffffffffffffffffffffff163373ffffffffffffffffffffffffffffffffffffffff161461102b576040517f08c379a000000000000000000000000000000000000000000000000000000000815260040161102290611894565b60405180910390fd5b815f90816110399190611be4565b5080600190816110499190611be4565b507fa53d071ca80001b0fad510bbeff77bca9ac9b36c4b2554b5fa503d25dd6e0cc3828260025460405161107f93929190611cb3565b60405180910390a15050565b5f819050919050565b61109d8161108b565b82525050565b5f6020820190506110b65f830184611094565b92915050565b5f604051905090565b5f80fd5b5f80fd5b5f73ffffffffffffffffffffffffffffffffffffffff82169050919050565b5f6110f6826110cd565b9050919050565b611106816110ec565b8114611110575f80fd5b50565b5f81359050611121816110fd565b92915050565b6111308161108b565b811461113a575f80fd5b50565b5f8135905061114b81611127565b92915050565b5f8060408385031215611167576111666110c5565b5b5f61117485828601611113565b92505060206111858582860161113d565b9150509250929050565b5f8115159050919050565b6111a38161118f565b82525050565b5f6020820190506111bc5f83018461119a565b92915050565b5f805f606084860312156111d9576111d86110c5565b5b5f6111e686828701611113565b93505060206111f786828701611113565b92505060406112088682870161113d565b9150509250925092565b5f81519050919050565b5f82825260208201905092915050565b8281835e5f83830152505050565b5f601f19601f8301169050919050565b5f61125482611212565b61125e818561121c565b935061126e81856020860161122c565b6112778161123a565b840191505092915050565b5f6020820190508181035f83015261129a818461124a565b905092915050565b5f602082840312156112b7576112b66110c5565b5b5f6112c484828501611113565b91505092915050565b6112d6816110ec565b82525050565b5f6020820190506112ef5f8301846112cd565b92915050565b5f806040838503121561130b5761130a6110c5565b5b5f61131885828601611113565b925050602061132985828601611113565b9150509250929050565b5f80fd5b5f80fd5b7f4e487b71000000000000000000000000000000000000000000000000000000005f52604160045260245ffd5b6113718261123a565b810181811067ffffffffffffffff821117156113905761138f61133b565b5b80604052505050565b5f6113a26110bc565b90506113ae8282611368565b919050565b5f67ffffffffffffffff8211156113cd576113cc61133b565b5b6113d68261123a565b9050602081019050919050565b828183375f83830152505050565b5f6114036113fe846113b3565b611399565b90508281526020810184848401111561141f5761141e611337565b5b61142a8482856113e3565b509392505050565b5f82601f83011261144657611445611333565b5b81356114568482602086016113f1565b91505092915050565b5f8060408385031215611475576114746110c5565b5b5f83013567ffffffffffffffff811115611492576114916110c9565b5b61149e85828601611432565b925050602083013567ffffffffffffffff8111156114bf576114be6110c9565b5b6114cb85828601611432565b9150509250929050565b7f496e76616c6964207370656e64657220616464726573732e00000000000000005f82015250565b5f61150960188361121c565b9150611514826114d5565b602082019050919050565b5f6020820190508181035f830152611536816114fd565b9050919050565b7f496e76616c69642073656e64657220616464726573732e0000000000000000005f82015250565b5f61157160178361121c565b915061157c8261153d565b602082019050919050565b5f6020820190508181035f83015261159e81611565565b9050919050565b7f496e76616c696420726563697069656e7420616464726573732e0000000000005f82015250565b5f6115d9601a8361121c565b91506115e4826115a5565b602082019050919050565b5f6020820190508181035f830152611606816115cd565b9050919050565b7f5472616e7366657220616d6f756e74206d75737420626520706f7369746976655f8201527f2e00000000000000000000000000000000000000000000000000000000000000602082015250565b5f61166760218361121c565b91506116728261160d565b604082019050919050565b5f6020820190508181035f8301526116948161165b565b9050919050565b7f496e73756666696369656e742062616c616e636520666f72207472616e7366655f8201527f722e000000000000000000000000000000000000000000000000000000000000602082015250565b5f6116f560228361121c565b91506117008261169b565b604082019050919050565b5f6020820190508181035f830152611722816116e9565b9050919050565b7f5472616e7366657220616d6f756e74206578636565647320616c6c6f77616e635f8201527f652e000000000000000000000000000000000000000000000000000000000000602082015250565b5f61178360228361121c565b915061178e82611729565b604082019050919050565b5f6020820190508181035f8301526117b081611777565b9050919050565b7f4e487b71000000000000000000000000000000000000000000000000000000005f52601160045260245ffd5b5f6117ee8261108b565b91506117f98361108b565b9250828203905081811115611811576118106117b7565b5b92915050565b5f6118218261108b565b915061182c8361108b565b9250828201905080821115611844576118436117b7565b5b92915050565b7f416363657373207265737472696374656420746f20746865206f776e65722e005f82015250565b5f61187e601f8361121c565b91506118898261184a565b602082019050919050565b5f6020820190508181035f8301526118ab81611872565b9050919050565b7f4d696e7420616d6f756e74206d75737420626520706f7369746976652e0000005f82015250565b5f6118e6601d8361121c565b91506118f1826118b2565b602082019050919050565b5f6020820190508181035f830152611913816118da565b9050919050565b7f4e487b71000000000000000000000000000000000000000000000000000000005f52602260045260245ffd5b5f600282049050600182168061195e57607f821691505b6020821081036119715761197061191a565b5b50919050565b7f4275726e20616d6f756e74206d75737420626520706f7369746976652e0000005f82015250565b5f6119ab601d8361121c565b91506119b682611977565b602082019050919050565b5f6020820190508181035f8301526119d88161199f565b9050919050565b7f496e73756666696369656e742062616c616e636520746f206275726e2e0000005f82015250565b5f611a13601d8361121c565b9150611a1e826119df565b602082019050919050565b5f6020820190508181035f830152611a4081611a07565b9050919050565b5f819050815f5260205f209050919050565b5f6020601f8301049050919050565b5f82821b905092915050565b5f60088302611aa37fffffffffffffffffffffffffffffffffffffffffffffffffffffffffffffffff82611a68565b611aad8683611a68565b95508019841693508086168417925050509392505050565b5f819050919050565b5f611ae8611ae3611ade8461108b565b611ac5565b61108b565b9050919050565b5f819050919050565b611b0183611ace565b611b15611b0d82611aef565b848454611a74565b825550505050565b5f90565b611b29611b1d565b611b34818484611af8565b505050565b5b81811015611b5757611b4c5f82611b21565b600181019050611b3a565b5050565b601f821115611b9c57611b6d81611a47565b611b7684611a59565b81016020851015611b85578190505b611b99611b9185611a59565b830182611b39565b50505b505050565b5f82821c905092915050565b5f611bbc5f1984600802611ba1565b1980831691505092915050565b5f611bd48383611bad565b9150826002028217905092915050565b611bed82611212565b67ffffffffffffffff811115611c0657611c0561133b565b5b611c108254611947565b611c1b828285611b5b565b5f60209050601f831160018114611c4c575f8415611c3a578287015190505b611c448582611bc9565b865550611cab565b601f198416611c5a86611a47565b5f5b82811015611c8157848901518255600182019150602085019450602081019050611c5c565b86831015611c9e5784890151611c9a601f891682611bad565b8355505b6001600288020188555050505b505050505050565b5f6060820190508181035f830152611ccb818661124a565b90508181036020830152611cdf818561124a565b9050611cee6040830184611094565b94935050505056fea26469706673582212205fe22d9410e08d7d6c01c65f909c770bd1566e0813ebd386faa406b700b0f4a964736f6c634300081a0033",
					"opcodes": "PUSH1 0x80 PUSH1 0x40 MSTORE PUSH1 0x40 MLOAD DUP1 PUSH1 0x40 ADD PUSH1 0x40 MSTORE DUP1 PUSH1 0x4 DUP2 MSTORE PUSH1 0x20 ADD PUSH32 0x7961736800000000000000000000000000000000000000000000000000000000 DUP2 MSTORE POP PUSH0 SWAP1 DUP2 PUSH2 0x47 SWAP2 SWAP1 PUSH2 0x31D JUMP JUMPDEST POP PUSH1 0x40 MLOAD DUP1 PUSH1 0x40 ADD PUSH1 0x40 MSTORE DUP1 PUSH1 0x5 DUP2 MSTORE PUSH1 0x20 ADD PUSH32 0x6B756D6172000000000000000000000000000000000000000000000000000000 DUP2 MSTORE POP PUSH1 0x1 SWAP1 DUP2 PUSH2 0x8C SWAP2 SWAP1 PUSH2 0x31D JUMP JUMPDEST POP PUSH1 0xA PUSH1 0x2 SSTORE CALLVALUE DUP1 ISZERO PUSH2 0x9D JUMPI PUSH0 DUP1 REVERT JUMPDEST POP CALLER PUSH1 0x3 PUSH0 PUSH2 0x100 EXP DUP2 SLOAD DUP2 PUSH20 0xFFFFFFFFFFFFFFFFFFFFFFFFFFFFFFFFFFFFFFFF MUL NOT AND SWAP1 DUP4 PUSH20 0xFFFFFFFFFFFFFFFFFFFFFFFFFFFFFFFFFFFFFFFF AND MUL OR SWAP1 SSTORE POP PUSH2 0x3EC JUMP JUMPDEST PUSH0 DUP2 MLOAD SWAP1 POP SWAP2 SWAP1 POP JUMP JUMPDEST PUSH32 0x4E487B7100000000000000000000000000000000000000000000000000000000 PUSH0 MSTORE PUSH1 0x41 PUSH1 0x4 MSTORE PUSH1 0x24 PUSH0 REVERT JUMPDEST PUSH32 0x4E487B7100000000000000000000000000000000000000000000000000000000 PUSH0 MSTORE PUSH1 0x22 PUSH1 0x4 MSTORE PUSH1 0x24 PUSH0 REVERT JUMPDEST PUSH0 PUSH1 0x2 DUP3 DIV SWAP1 POP PUSH1 0x1 DUP3 AND DUP1 PUSH2 0x15E JUMPI PUSH1 0x7F DUP3 AND SWAP2 POP JUMPDEST PUSH1 0x20 DUP3 LT DUP2 SUB PUSH2 0x171 JUMPI PUSH2 0x170 PUSH2 0x11A JUMP JUMPDEST JUMPDEST POP SWAP2 SWAP1 POP JUMP JUMPDEST PUSH0 DUP2 SWAP1 POP DUP2 PUSH0 MSTORE PUSH1 0x20 PUSH0 KECCAK256 SWAP1 POP SWAP2 SWAP1 POP JUMP JUMPDEST PUSH0 PUSH1 0x20 PUSH1 0x1F DUP4 ADD DIV SWAP1 POP SWAP2 SWAP1 POP JUMP JUMPDEST PUSH0 DUP3 DUP3 SHL SWAP1 POP SWAP3 SWAP2 POP POP JUMP JUMPDEST PUSH0 PUSH1 0x8 DUP4 MUL PUSH2 0x1D3 PUSH32 0xFFFFFFFFFFFFFFFFFFFFFFFFFFFFFFFFFFFFFFFFFFFFFFFFFFFFFFFFFFFFFFFF DUP3 PUSH2 0x198 JUMP JUMPDEST PUSH2 0x1DD DUP7 DUP4 PUSH2 0x198 JUMP JUMPDEST SWAP6 POP DUP1 NOT DUP5 AND SWAP4 POP DUP1 DUP7 AND DUP5 OR SWAP3 POP POP POP SWAP4 SWAP3 POP POP POP JUMP JUMPDEST PUSH0 DUP2 SWAP1 POP SWAP2 SWAP1 POP JUMP JUMPDEST PUSH0 DUP2 SWAP1 POP SWAP2 SWAP1 POP JUMP JUMPDEST PUSH0 PUSH2 0x221 PUSH2 0x21C PUSH2 0x217 DUP5 PUSH2 0x1F5 JUMP JUMPDEST PUSH2 0x1FE JUMP JUMPDEST PUSH2 0x1F5 JUMP JUMPDEST SWAP1 POP SWAP2 SWAP1 POP JUMP JUMPDEST PUSH0 DUP2 SWAP1 POP SWAP2 SWAP1 POP JUMP JUMPDEST PUSH2 0x23A DUP4 PUSH2 0x207 JUMP JUMPDEST PUSH2 0x24E PUSH2 0x246 DUP3 PUSH2 0x228 JUMP JUMPDEST DUP5 DUP5 SLOAD PUSH2 0x1A4 JUMP JUMPDEST DUP3 SSTORE POP POP POP POP JUMP JUMPDEST PUSH0 SWAP1 JUMP JUMPDEST PUSH2 0x262 PUSH2 0x256 JUMP JUMPDEST PUSH2 0x26D DUP2 DUP5 DUP5 PUSH2 0x231 JUMP JUMPDEST POP POP POP JUMP JUMPDEST JUMPDEST DUP2 DUP2 LT ISZERO PUSH2 0x290 JUMPI PUSH2 0x285 PUSH0 DUP3 PUSH2 0x25A JUMP JUMPDEST PUSH1 0x1 DUP2 ADD SWAP1 POP PUSH2 0x273 JUMP JUMPDEST POP POP JUMP JUMPDEST PUSH1 0x1F DUP3 GT ISZERO PUSH2 0x2D5 JUMPI PUSH2 0x2A6 DUP2 PUSH2 0x177 JUMP JUMPDEST PUSH2 0x2AF DUP5 PUSH2 0x189 JUMP JUMPDEST DUP2 ADD PUSH1 0x20 DUP6 LT ISZERO PUSH2 0x2BE JUMPI DUP2 SWAP1 POP JUMPDEST PUSH2 0x2D2 PUSH2 0x2CA DUP6 PUSH2 0x189 JUMP JUMPDEST DUP4 ADD DUP3 PUSH2 0x272 JUMP JUMPDEST POP POP JUMPDEST POP POP POP JUMP JUMPDEST PUSH0 DUP3 DUP3 SHR SWAP1 POP SWAP3 SWAP2 POP POP JUMP JUMPDEST PUSH0 PUSH2 0x2F5 PUSH0 NOT DUP5 PUSH1 0x8 MUL PUSH2 0x2DA JUMP JUMPDEST NOT DUP1 DUP4 AND SWAP2 POP POP SWAP3 SWAP2 POP POP JUMP JUMPDEST PUSH0 PUSH2 0x30D DUP4 DUP4 PUSH2 0x2E6 JUMP JUMPDEST SWAP2 POP DUP3 PUSH1 0x2 MUL DUP3 OR SWAP1 POP SWAP3 SWAP2 POP POP JUMP JUMPDEST PUSH2 0x326 DUP3 PUSH2 0xE3 JUMP JUMPDEST PUSH8 0xFFFFFFFFFFFFFFFF DUP2 GT ISZERO PUSH2 0x33F JUMPI PUSH2 0x33E PUSH2 0xED JUMP JUMPDEST JUMPDEST PUSH2 0x349 DUP3 SLOAD PUSH2 0x147 JUMP JUMPDEST PUSH2 0x354 DUP3 DUP3 DUP6 PUSH2 0x294 JUMP JUMPDEST PUSH0 PUSH1 0x20 SWAP1 POP PUSH1 0x1F DUP4 GT PUSH1 0x1 DUP2 EQ PUSH2 0x385 JUMPI PUSH0 DUP5 ISZERO PUSH2 0x373 JUMPI DUP3 DUP8 ADD MLOAD SWAP1 POP JUMPDEST PUSH2 0x37D DUP6 DUP3 PUSH2 0x302 JUMP JUMPDEST DUP7 SSTORE POP PUSH2 0x3E4 JUMP JUMPDEST PUSH1 0x1F NOT DUP5 AND PUSH2 0x393 DUP7 PUSH2 0x177 JUMP JUMPDEST PUSH0 JUMPDEST DUP3 DUP2 LT ISZERO PUSH2 0x3BA JUMPI DUP5 DUP10 ADD MLOAD DUP3 SSTORE PUSH1 0x1 DUP3 ADD SWAP2 POP PUSH1 0x20 DUP6 ADD SWAP5 POP PUSH1 0x20 DUP2 ADD SWAP1 POP PUSH2 0x395 JUMP JUMPDEST DUP7 DUP4 LT ISZERO PUSH2 0x3D7 JUMPI DUP5 DUP10 ADD MLOAD PUSH2 0x3D3 PUSH1 0x1F DUP10 AND DUP3 PUSH2 0x2E6 JUMP JUMPDEST DUP4 SSTORE POP JUMPDEST PUSH1 0x1 PUSH1 0x2 DUP9 MUL ADD DUP9 SSTORE POP POP POP JUMPDEST POP POP POP POP POP POP JUMP JUMPDEST PUSH2 0x1D2C DUP1 PUSH2 0x3F9 PUSH0 CODECOPY PUSH0 RETURN INVALID PUSH1 0x80 PUSH1 0x40 MSTORE CALLVALUE DUP1 ISZERO PUSH2 0xF JUMPI PUSH0 DUP1 REVERT JUMPDEST POP PUSH1 0x4 CALLDATASIZE LT PUSH2 0xB2 JUMPI PUSH0 CALLDATALOAD PUSH1 0xE0 SHR DUP1 PUSH4 0x9AB03DCB GT PUSH2 0x6F JUMPI DUP1 PUSH4 0x9AB03DCB EQ PUSH2 0x19E JUMPI DUP1 PUSH4 0x9DC29FAC EQ PUSH2 0x1BC JUMPI DUP1 PUSH4 0xA9059CBB EQ PUSH2 0x1D8 JUMPI DUP1 PUSH4 0xCE606EE0 EQ PUSH2 0x1F4 JUMPI DUP1 PUSH4 0xDD62ED3E EQ PUSH2 0x212 JUMPI DUP1 PUSH4 0xE5442026 EQ PUSH2 0x242 JUMPI PUSH2 0xB2 JUMP JUMPDEST DUP1 PUSH4 0x47FC9AA EQ PUSH2 0xB6 JUMPI DUP1 PUSH4 0x95EA7B3 EQ PUSH2 0xD4 JUMPI DUP1 PUSH4 0x23B872DD EQ PUSH2 0x104 JUMPI DUP1 PUSH4 0x40C10F19 EQ PUSH2 0x134 JUMPI DUP1 PUSH4 0x4589FE0C EQ PUSH2 0x150 JUMPI DUP1 PUSH4 0x70A08231 EQ PUSH2 0x16E JUMPI JUMPDEST PUSH0 DUP1 REVERT JUMPDEST PUSH2 0xBE PUSH2 0x25E JUMP JUMPDEST PUSH1 0x40 MLOAD PUSH2 0xCB SWAP2 SWAP1 PUSH2 0x10A3 JUMP JUMPDEST PUSH1 0x40 MLOAD DUP1 SWAP2 SUB SWAP1 RETURN JUMPDEST PUSH2 0xEE PUSH1 0x4 DUP1 CALLDATASIZE SUB DUP2 ADD SWAP1 PUSH2 0xE9 SWAP2 SWAP1 PUSH2 0x1151 JUMP JUMPDEST PUSH2 0x264 JUMP JUMPDEST PUSH1 0x40 MLOAD PUSH2 0xFB SWAP2 SWAP1 PUSH2 0x11A9 JUMP JUMPDEST PUSH1 0x40 MLOAD DUP1 SWAP2 SUB SWAP1 RETURN JUMPDEST PUSH2 0x11E PUSH1 0x4 DUP1 CALLDATASIZE SUB DUP2 ADD SWAP1 PUSH2 0x119 SWAP2 SWAP1 PUSH2 0x11C2 JUMP JUMPDEST PUSH2 0x3BF JUMP JUMPDEST PUSH1 0x40 MLOAD PUSH2 0x12B SWAP2 SWAP1 PUSH2 0x11A9 JUMP JUMPDEST PUSH1 0x40 MLOAD DUP1 SWAP2 SUB SWAP1 RETURN JUMPDEST PUSH2 0x14E PUSH1 0x4 DUP1 CALLDATASIZE SUB DUP2 ADD SWAP1 PUSH2 0x149 SWAP2 SWAP1 PUSH2 0x1151 JUMP JUMPDEST PUSH2 0x7BD JUMP JUMPDEST STOP JUMPDEST PUSH2 0x158 PUSH2 0x94B JUMP JUMPDEST PUSH1 0x40 MLOAD PUSH2 0x165 SWAP2 SWAP1 PUSH2 0x1282 JUMP JUMPDEST PUSH1 0x40 MLOAD DUP1 SWAP2 SUB SWAP1 RETURN JUMPDEST PUSH2 0x188 PUSH1 0x4 DUP1 CALLDATASIZE SUB DUP2 ADD SWAP1 PUSH2 0x183 SWAP2 SWAP1 PUSH2 0x12A2 JUMP JUMPDEST PUSH2 0x9D6 JUMP JUMPDEST PUSH1 0x40 MLOAD PUSH2 0x195 SWAP2 SWAP1 PUSH2 0x10A3 JUMP JUMPDEST PUSH1 0x40 MLOAD DUP1 SWAP2 SUB SWAP1 RETURN JUMPDEST PUSH2 0x1A6 PUSH2 0xA1C JUMP JUMPDEST PUSH1 0x40 MLOAD PUSH2 0x1B3 SWAP2 SWAP1 PUSH2 0x1282 JUMP JUMPDEST PUSH1 0x40 MLOAD DUP1 SWAP2 SUB SWAP1 RETURN JUMPDEST PUSH2 0x1D6 PUSH1 0x4 DUP1 CALLDATASIZE SUB DUP2 ADD SWAP1 PUSH2 0x1D1 SWAP2 SWAP1 PUSH2 0x1151 JUMP JUMPDEST PUSH2 0xAA8 JUMP JUMPDEST STOP JUMPDEST PUSH2 0x1F2 PUSH1 0x4 DUP1 CALLDATASIZE SUB DUP2 ADD SWAP1 PUSH2 0x1ED SWAP2 SWAP1 PUSH2 0x1151 JUMP JUMPDEST PUSH2 0xCB6 JUMP JUMPDEST STOP JUMPDEST PUSH2 0x1FC PUSH2 0xEF5 JUMP JUMPDEST PUSH1 0x40 MLOAD PUSH2 0x209 SWAP2 SWAP1 PUSH2 0x12DC JUMP JUMPDEST PUSH1 0x40 MLOAD DUP1 SWAP2 SUB SWAP1 RETURN JUMPDEST PUSH2 0x22C PUSH1 0x4 DUP1 CALLDATASIZE SUB DUP2 ADD SWAP1 PUSH2 0x227 SWAP2 SWAP1 PUSH2 0x12F5 JUMP JUMPDEST PUSH2 0xF1A JUMP JUMPDEST PUSH1 0x40 MLOAD PUSH2 0x239 SWAP2 SWAP1 PUSH2 0x10A3 JUMP JUMPDEST PUSH1 0x40 MLOAD DUP1 SWAP2 SUB SWAP1 RETURN JUMPDEST PUSH2 0x25C PUSH1 0x4 DUP1 CALLDATASIZE SUB DUP2 ADD SWAP1 PUSH2 0x257 SWAP2 SWAP1 PUSH2 0x145F JUMP JUMPDEST PUSH2 0xF9C JUMP JUMPDEST STOP JUMPDEST PUSH1 0x2 SLOAD DUP2 JUMP JUMPDEST PUSH0 DUP1 PUSH20 0xFFFFFFFFFFFFFFFFFFFFFFFFFFFFFFFFFFFFFFFF AND DUP4 PUSH20 0xFFFFFFFFFFFFFFFFFFFFFFFFFFFFFFFFFFFFFFFF AND SUB PUSH2 0x2D3 JUMPI PUSH1 0x40 MLOAD PUSH32 0x8C379A000000000000000000000000000000000000000000000000000000000 DUP2 MSTORE PUSH1 0x4 ADD PUSH2 0x2CA SWAP1 PUSH2 0x151F JUMP JUMPDEST PUSH1 0x40 MLOAD DUP1 SWAP2 SUB SWAP1 REVERT JUMPDEST DUP2 PUSH1 0x5 PUSH0 CALLER PUSH20 0xFFFFFFFFFFFFFFFFFFFFFFFFFFFFFFFFFFFFFFFF AND PUSH20 0xFFFFFFFFFFFFFFFFFFFFFFFFFFFFFFFFFFFFFFFF AND DUP2 MSTORE PUSH1 0x20 ADD SWAP1 DUP2 MSTORE PUSH1 0x20 ADD PUSH0 KECCAK256 PUSH0 DUP6 PUSH20 0xFFFFFFFFFFFFFFFFFFFFFFFFFFFFFFFFFFFFFFFF AND PUSH20 0xFFFFFFFFFFFFFFFFFFFFFFFFFFFFFFFFFFFFFFFF AND DUP2 MSTORE PUSH1 0x20 ADD SWAP1 DUP2 MSTORE PUSH1 0x20 ADD PUSH0 KECCAK256 DUP2 SWAP1 SSTORE POP DUP3 PUSH20 0xFFFFFFFFFFFFFFFFFFFFFFFFFFFFFFFFFFFFFFFF AND CALLER PUSH20 0xFFFFFFFFFFFFFFFFFFFFFFFFFFFFFFFFFFFFFFFF AND PUSH32 0x8C5BE1E5EBEC7D5BD14F71427D1E84F3DD0314C0F7B2291E5B200AC8C7C3B925 DUP5 PUSH1 0x40 MLOAD PUSH2 0x3AD SWAP2 SWAP1 PUSH2 0x10A3 JUMP JUMPDEST PUSH1 0x40 MLOAD DUP1 SWAP2 SUB SWAP1 LOG3 PUSH1 0x1 SWAP1 POP SWAP3 SWAP2 POP POP JUMP JUMPDEST PUSH0 DUP1 PUSH20 0xFFFFFFFFFFFFFFFFFFFFFFFFFFFFFFFFFFFFFFFF AND DUP5 PUSH20 0xFFFFFFFFFFFFFFFFFFFFFFFFFFFFFFFFFFFFFFFF AND SUB PUSH2 0x42E JUMPI PUSH1 0x40 MLOAD PUSH32 0x8C379A000000000000000000000000000000000000000000000000000000000 DUP2 MSTORE PUSH1 0x4 ADD PUSH2 0x425 SWAP1 PUSH2 0x1587 JUMP JUMPDEST PUSH1 0x40 MLOAD DUP1 SWAP2 SUB SWAP1 REVERT JUMPDEST PUSH0 PUSH20 0xFFFFFFFFFFFFFFFFFFFFFFFFFFFFFFFFFFFFFFFF AND DUP4 PUSH20 0xFFFFFFFFFFFFFFFFFFFFFFFFFFFFFFFFFFFFFFFF AND SUB PUSH2 0x49C JUMPI PUSH1 0x40 MLOAD PUSH32 0x8C379A000000000000000000000000000000000000000000000000000000000 DUP2 MSTORE PUSH1 0x4 ADD PUSH2 0x493 SWAP1 PUSH2 0x15EF JUMP JUMPDEST PUSH1 0x40 MLOAD DUP1 SWAP2 SUB SWAP1 REVERT JUMPDEST PUSH0 DUP3 GT PUSH2 0x4DE JUMPI PUSH1 0x40 MLOAD PUSH32 0x8C379A000000000000000000000000000000000000000000000000000000000 DUP2 MSTORE PUSH1 0x4 ADD PUSH2 0x4D5 SWAP1 PUSH2 0x167D JUMP JUMPDEST PUSH1 0x40 MLOAD DUP1 SWAP2 SUB SWAP1 REVERT JUMPDEST DUP2 PUSH1 0x4 PUSH0 DUP7 PUSH20 0xFFFFFFFFFFFFFFFFFFFFFFFFFFFFFFFFFFFFFFFF AND PUSH20 0xFFFFFFFFFFFFFFFFFFFFFFFFFFFFFFFFFFFFFFFF AND DUP2 MSTORE PUSH1 0x20 ADD SWAP1 DUP2 MSTORE PUSH1 0x20 ADD PUSH0 KECCAK256 SLOAD LT ISZERO PUSH2 0x55E JUMPI PUSH1 0x40 MLOAD PUSH32 0x8C379A000000000000000000000000000000000000000000000000000000000 DUP2 MSTORE PUSH1 0x4 ADD PUSH2 0x555 SWAP1 PUSH2 0x170B JUMP JUMPDEST PUSH1 0x40 MLOAD DUP1 SWAP2 SUB SWAP1 REVERT JUMPDEST DUP2 PUSH1 0x5 PUSH0 DUP7 PUSH20 0xFFFFFFFFFFFFFFFFFFFFFFFFFFFFFFFFFFFFFFFF AND PUSH20 0xFFFFFFFFFFFFFFFFFFFFFFFFFFFFFFFFFFFFFFFF AND DUP2 MSTORE PUSH1 0x20 ADD SWAP1 DUP2 MSTORE PUSH1 0x20 ADD PUSH0 KECCAK256 PUSH0 CALLER PUSH20 0xFFFFFFFFFFFFFFFFFFFFFFFFFFFFFFFFFFFFFFFF AND PUSH20 0xFFFFFFFFFFFFFFFFFFFFFFFFFFFFFFFFFFFFFFFF AND DUP2 MSTORE PUSH1 0x20 ADD SWAP1 DUP2 MSTORE PUSH1 0x20 ADD PUSH0 KECCAK256 SLOAD LT ISZERO PUSH2 0x619 JUMPI PUSH1 0x40 MLOAD PUSH32 0x8C379A000000000000000000000000000000000000000000000000000000000 DUP2 MSTORE PUSH1 0x4 ADD PUSH2 0x610 SWAP1 PUSH2 0x1799 JUMP JUMPDEST PUSH1 0x40 MLOAD DUP1 SWAP2 SUB SWAP1 REVERT JUMPDEST DUP2 PUSH1 0x4 PUSH0 DUP7 PUSH20 0xFFFFFFFFFFFFFFFFFFFFFFFFFFFFFFFFFFFFFFFF AND PUSH20 0xFFFFFFFFFFFFFFFFFFFFFFFFFFFFFFFFFFFFFFFF AND DUP2 MSTORE PUSH1 0x20 ADD SWAP1 DUP2 MSTORE PUSH1 0x20 ADD PUSH0 KECCAK256 PUSH0 DUP3 DUP3 SLOAD PUSH2 0x665 SWAP2 SWAP1 PUSH2 0x17E4 JUMP JUMPDEST SWAP3 POP POP DUP2 SWAP1 SSTORE POP DUP2 PUSH1 0x4 PUSH0 DUP6 PUSH20 0xFFFFFFFFFFFFFFFFFFFFFFFFFFFFFFFFFFFFFFFF AND PUSH20 0xFFFFFFFFFFFFFFFFFFFFFFFFFFFFFFFFFFFFFFFF AND DUP2 MSTORE PUSH1 0x20 ADD SWAP1 DUP2 MSTORE PUSH1 0x20 ADD PUSH0 KECCAK256 PUSH0 DUP3 DUP3 SLOAD PUSH2 0x6B8 SWAP2 SWAP1 PUSH2 0x1817 JUMP JUMPDEST SWAP3 POP POP DUP2 SWAP1 SSTORE POP DUP2 PUSH1 0x5 PUSH0 DUP7 PUSH20 0xFFFFFFFFFFFFFFFFFFFFFFFFFFFFFFFFFFFFFFFF AND PUSH20 0xFFFFFFFFFFFFFFFFFFFFFFFFFFFFFFFFFFFFFFFF AND DUP2 MSTORE PUSH1 0x20 ADD SWAP1 DUP2 MSTORE PUSH1 0x20 ADD PUSH0 KECCAK256 PUSH0 CALLER PUSH20 0xFFFFFFFFFFFFFFFFFFFFFFFFFFFFFFFFFFFFFFFF AND PUSH20 0xFFFFFFFFFFFFFFFFFFFFFFFFFFFFFFFFFFFFFFFF AND DUP2 MSTORE PUSH1 0x20 ADD SWAP1 DUP2 MSTORE PUSH1 0x20 ADD PUSH0 KECCAK256 PUSH0 DUP3 DUP3 SLOAD PUSH2 0x746 SWAP2 SWAP1 PUSH2 0x17E4 JUMP JUMPDEST SWAP3 POP POP DUP2 SWAP1 SSTORE POP DUP3 PUSH20 0xFFFFFFFFFFFFFFFFFFFFFFFFFFFFFFFFFFFFFFFF AND DUP5 PUSH20 0xFFFFFFFFFFFFFFFFFFFFFFFFFFFFFFFFFFFFFFFF AND PUSH32 0xDDF252AD1BE2C89B69C2B068FC378DAA952BA7F163C4A11628F55A4DF523B3EF DUP5 PUSH1 0x40 MLOAD PUSH2 0x7AA SWAP2 SWAP1 PUSH2 0x10A3 JUMP JUMPDEST PUSH1 0x40 MLOAD DUP1 SWAP2 SUB SWAP1 LOG3 PUSH1 0x1 SWAP1 POP SWAP4 SWAP3 POP POP POP JUMP JUMPDEST PUSH1 0x3 PUSH0 SWAP1 SLOAD SWAP1 PUSH2 0x100 EXP SWAP1 DIV PUSH20 0xFFFFFFFFFFFFFFFFFFFFFFFFFFFFFFFFFFFFFFFF AND PUSH20 0xFFFFFFFFFFFFFFFFFFFFFFFFFFFFFFFFFFFFFFFF AND CALLER PUSH20 0xFFFFFFFFFFFFFFFFFFFFFFFFFFFFFFFFFFFFFFFF AND EQ PUSH2 0x84C JUMPI PUSH1 0x40 MLOAD PUSH32 0x8C379A000000000000000000000000000000000000000000000000000000000 DUP2 MSTORE PUSH1 0x4 ADD PUSH2 0x843 SWAP1 PUSH2 0x1894 JUMP JUMPDEST PUSH1 0x40 MLOAD DUP1 SWAP2 SUB SWAP1 REVERT JUMPDEST PUSH0 DUP2 GT PUSH2 0x88E JUMPI PUSH1 0x40 MLOAD PUSH32 0x8C379A000000000000000000000000000000000000000000000000000000000 DUP2 MSTORE PUSH1 0x4 ADD PUSH2 0x885 SWAP1 PUSH2 0x18FC JUMP JUMPDEST PUSH1 0x40 MLOAD DUP1 SWAP2 SUB SWAP1 REVERT JUMPDEST DUP1 PUSH1 0x2 PUSH0 DUP3 DUP3 SLOAD PUSH2 0x89F SWAP2 SWAP1 PUSH2 0x1817 JUMP JUMPDEST SWAP3 POP POP DUP2 SWAP1 SSTORE POP DUP1 PUSH1 0x4 PUSH0 DUP5 PUSH20 0xFFFFFFFFFFFFFFFFFFFFFFFFFFFFFFFFFFFFFFFF AND PUSH20 0xFFFFFFFFFFFFFFFFFFFFFFFFFFFFFFFFFFFFFFFF AND DUP2 MSTORE PUSH1 0x20 ADD SWAP1 DUP2 MSTORE PUSH1 0x20 ADD PUSH0 KECCAK256 PUSH0 DUP3 DUP3 SLOAD PUSH2 0x8F2 SWAP2 SWAP1 PUSH2 0x1817 JUMP JUMPDEST SWAP3 POP POP DUP2 SWAP1 SSTORE POP DUP2 PUSH20 0xFFFFFFFFFFFFFFFFFFFFFFFFFFFFFFFFFFFFFFFF AND PUSH32 0xF6798A560793A54C3BCFE86A93CDE1E73087D944C0EA20544137D4121396885 DUP3 PUSH1 0x40 MLOAD PUSH2 0x93F SWAP2 SWAP1 PUSH2 0x10A3 JUMP JUMPDEST PUSH1 0x40 MLOAD DUP1 SWAP2 SUB SWAP1 LOG2 POP POP JUMP JUMPDEST PUSH0 DUP1 SLOAD PUSH2 0x957 SWAP1 PUSH2 0x1947 JUMP JUMPDEST DUP1 PUSH1 0x1F ADD PUSH1 0x20 DUP1 SWAP2 DIV MUL PUSH1 0x20 ADD PUSH1 0x40 MLOAD SWAP1 DUP2 ADD PUSH1 0x40 MSTORE DUP1 SWAP3 SWAP2 SWAP1 DUP2 DUP2 MSTORE PUSH1 0x20 ADD DUP3 DUP1 SLOAD PUSH2 0x983 SWAP1 PUSH2 0x1947 JUMP JUMPDEST DUP1 ISZERO PUSH2 0x9CE JUMPI DUP1 PUSH1 0x1F LT PUSH2 0x9A5 JUMPI PUSH2 0x100 DUP1 DUP4 SLOAD DIV MUL DUP4 MSTORE SWAP2 PUSH1 0x20 ADD SWAP2 PUSH2 0x9CE JUMP JUMPDEST DUP3 ADD SWAP2 SWAP1 PUSH0 MSTORE PUSH1 0x20 PUSH0 KECCAK256 SWAP1 JUMPDEST DUP2 SLOAD DUP2 MSTORE SWAP1 PUSH1 0x1 ADD SWAP1 PUSH1 0x20 ADD DUP1 DUP4 GT PUSH2 0x9B1 JUMPI DUP3 SWAP1 SUB PUSH1 0x1F AND DUP3 ADD SWAP2 JUMPDEST POP POP POP POP POP DUP2 JUMP JUMPDEST PUSH0 PUSH1 0x4 PUSH0 DUP4 PUSH20 0xFFFFFFFFFFFFFFFFFFFFFFFFFFFFFFFFFFFFFFFF AND PUSH20 0xFFFFFFFFFFFFFFFFFFFFFFFFFFFFFFFFFFFFFFFF AND DUP2 MSTORE PUSH1 0x20 ADD SWAP1 DUP2 MSTORE PUSH1 0x20 ADD PUSH0 KECCAK256 SLOAD SWAP1 POP SWAP2 SWAP1 POP JUMP JUMPDEST PUSH1 0x1 DUP1 SLOAD PUSH2 0xA29 SWAP1 PUSH2 0x1947 JUMP JUMPDEST DUP1 PUSH1 0x1F ADD PUSH1 0x20 DUP1 SWAP2 DIV MUL PUSH1 0x20 ADD PUSH1 0x40 MLOAD SWAP1 DUP2 ADD PUSH1 0x40 MSTORE DUP1 SWAP3 SWAP2 SWAP1 DUP2 DUP2 MSTORE PUSH1 0x20 ADD DUP3 DUP1 SLOAD PUSH2 0xA55 SWAP1 PUSH2 0x1947 JUMP JUMPDEST DUP1 ISZERO PUSH2 0xAA0 JUMPI DUP1 PUSH1 0x1F LT PUSH2 0xA77 JUMPI PUSH2 0x100 DUP1 DUP4 SLOAD DIV MUL DUP4 MSTORE SWAP2 PUSH1 0x20 ADD SWAP2 PUSH2 0xAA0 JUMP JUMPDEST DUP3 ADD SWAP2 SWAP1 PUSH0 MSTORE PUSH1 0x20 PUSH0 KECCAK256 SWAP1 JUMPDEST DUP2 SLOAD DUP2 MSTORE SWAP1 PUSH1 0x1 ADD SWAP1 PUSH1 0x20 ADD DUP1 DUP4 GT PUSH2 0xA83 JUMPI DUP3 SWAP1 SUB PUSH1 0x1F AND DUP3 ADD SWAP2 JUMPDEST POP POP POP POP POP DUP2 JUMP JUMPDEST PUSH1 0x3 PUSH0 SWAP1 SLOAD SWAP1 PUSH2 0x100 EXP SWAP1 DIV PUSH20 0xFFFFFFFFFFFFFFFFFFFFFFFFFFFFFFFFFFFFFFFF AND PUSH20 0xFFFFFFFFFFFFFFFFFFFFFFFFFFFFFFFFFFFFFFFF AND CALLER PUSH20 0xFFFFFFFFFFFFFFFFFFFFFFFFFFFFFFFFFFFFFFFF AND EQ PUSH2 0xB37 JUMPI PUSH1 0x40 MLOAD PUSH32 0x8C379A000000000000000000000000000000000000000000000000000000000 DUP2 MSTORE PUSH1 0x4 ADD PUSH2 0xB2E SWAP1 PUSH2 0x1894 JUMP JUMPDEST PUSH1 0x40 MLOAD DUP1 SWAP2 SUB SWAP1 REVERT JUMPDEST PUSH0 DUP2 GT PUSH2 0xB79 JUMPI PUSH1 0x40 MLOAD PUSH32 0x8C379A000000000000000000000000000000000000000000000000000000000 DUP2 MSTORE PUSH1 0x4 ADD PUSH2 0xB70 SWAP1 PUSH2 0x19C1 JUMP JUMPDEST PUSH1 0x40 MLOAD DUP1 SWAP2 SUB SWAP1 REVERT JUMPDEST DUP1 PUSH1 0x4 PUSH0 DUP5 PUSH20 0xFFFFFFFFFFFFFFFFFFFFFFFFFFFFFFFFFFFFFFFF AND PUSH20 0xFFFFFFFFFFFFFFFFFFFFFFFFFFFFFFFFFFFFFFFF AND DUP2 MSTORE PUSH1 0x20 ADD SWAP1 DUP2 MSTORE PUSH1 0x20 ADD PUSH0 KECCAK256 SLOAD LT ISZERO PUSH2 0xBF9 JUMPI PUSH1 0x40 MLOAD PUSH32 0x8C379A000000000000000000000000000000000000000000000000000000000 DUP2 MSTORE PUSH1 0x4 ADD PUSH2 0xBF0 SWAP1 PUSH2 0x1A29 JUMP JUMPDEST PUSH1 0x40 MLOAD DUP1 SWAP2 SUB SWAP1 REVERT JUMPDEST DUP1 PUSH1 0x2 PUSH0 DUP3 DUP3 SLOAD PUSH2 0xC0A SWAP2 SWAP1 PUSH2 0x17E4 JUMP JUMPDEST SWAP3 POP POP DUP2 SWAP1 SSTORE POP DUP1 PUSH1 0x4 PUSH0 DUP5 PUSH20 0xFFFFFFFFFFFFFFFFFFFFFFFFFFFFFFFFFFFFFFFF AND PUSH20 0xFFFFFFFFFFFFFFFFFFFFFFFFFFFFFFFFFFFFFFFF AND DUP2 MSTORE PUSH1 0x20 ADD SWAP1 DUP2 MSTORE PUSH1 0x20 ADD PUSH0 KECCAK256 PUSH0 DUP3 DUP3 SLOAD PUSH2 0xC5D SWAP2 SWAP1 PUSH2 0x17E4 JUMP JUMPDEST SWAP3 POP POP DUP2 SWAP1 SSTORE POP DUP2 PUSH20 0xFFFFFFFFFFFFFFFFFFFFFFFFFFFFFFFFFFFFFFFF AND PUSH32 0xCC16F5DBB4873280815C1EE09DBD06736CFFCC184412CF7A71A0FDB75D397CA5 DUP3 PUSH1 0x40 MLOAD PUSH2 0xCAA SWAP2 SWAP1 PUSH2 0x10A3 JUMP JUMPDEST PUSH1 0x40 MLOAD DUP1 SWAP2 SUB SWAP1 LOG2 POP POP JUMP JUMPDEST PUSH0 PUSH20 0xFFFFFFFFFFFFFFFFFFFFFFFFFFFFFFFFFFFFFFFF AND DUP3 PUSH20 0xFFFFFFFFFFFFFFFFFFFFFFFFFFFFFFFFFFFFFFFF AND SUB PUSH2 0xD24 JUMPI PUSH1 0x40 MLOAD PUSH32 0x8C379A000000000000000000000000000000000000000000000000000000000 DUP2 MSTORE PUSH1 0x4 ADD PUSH2 0xD1B SWAP1 PUSH2 0x15EF JUMP JUMPDEST PUSH1 0x40 MLOAD DUP1 SWAP2 SUB SWAP1 REVERT JUMPDEST PUSH0 DUP2 GT PUSH2 0xD66 JUMPI PUSH1 0x40 MLOAD PUSH32 0x8C379A000000000000000000000000000000000000000000000000000000000 DUP2 MSTORE PUSH1 0x4 ADD PUSH2 0xD5D SWAP1 PUSH2 0x167D JUMP JUMPDEST PUSH1 0x40 MLOAD DUP1 SWAP2 SUB SWAP1 REVERT JUMPDEST DUP1 PUSH1 0x4 PUSH0 CALLER PUSH20 0xFFFFFFFFFFFFFFFFFFFFFFFFFFFFFFFFFFFFFFFF AND PUSH20 0xFFFFFFFFFFFFFFFFFFFFFFFFFFFFFFFFFFFFFFFF AND DUP2 MSTORE PUSH1 0x20 ADD SWAP1 DUP2 MSTORE PUSH1 0x20 ADD PUSH0 KECCAK256 SLOAD LT ISZERO PUSH2 0xDE6 JUMPI PUSH1 0x40 MLOAD PUSH32 0x8C379A000000000000000000000000000000000000000000000000000000000 DUP2 MSTORE PUSH1 0x4 ADD PUSH2 0xDDD SWAP1 PUSH2 0x170B JUMP JUMPDEST PUSH1 0x40 MLOAD DUP1 SWAP2 SUB SWAP1 REVERT JUMPDEST DUP1 PUSH1 0x4 PUSH0 CALLER PUSH20 0xFFFFFFFFFFFFFFFFFFFFFFFFFFFFFFFFFFFFFFFF AND PUSH20 0xFFFFFFFFFFFFFFFFFFFFFFFFFFFFFFFFFFFFFFFF AND DUP2 MSTORE PUSH1 0x20 ADD SWAP1 DUP2 MSTORE PUSH1 0x20 ADD PUSH0 KECCAK256 PUSH0 DUP3 DUP3 SLOAD PUSH2 0xE32 SWAP2 SWAP1 PUSH2 0x17E4 JUMP JUMPDEST SWAP3 POP POP DUP2 SWAP1 SSTORE POP DUP1 PUSH1 0x4 PUSH0 DUP5 PUSH20 0xFFFFFFFFFFFFFFFFFFFFFFFFFFFFFFFFFFFFFFFF AND PUSH20 0xFFFFFFFFFFFFFFFFFFFFFFFFFFFFFFFFFFFFFFFF AND DUP2 MSTORE PUSH1 0x20 ADD SWAP1 DUP2 MSTORE PUSH1 0x20 ADD PUSH0 KECCAK256 PUSH0 DUP3 DUP3 SLOAD PUSH2 0xE85 SWAP2 SWAP1 PUSH2 0x1817 JUMP JUMPDEST SWAP3 POP POP DUP2 SWAP1 SSTORE POP DUP2 PUSH20 0xFFFFFFFFFFFFFFFFFFFFFFFFFFFFFFFFFFFFFFFF AND CALLER PUSH20 0xFFFFFFFFFFFFFFFFFFFFFFFFFFFFFFFFFFFFFFFF AND PUSH32 0xDDF252AD1BE2C89B69C2B068FC378DAA952BA7F163C4A11628F55A4DF523B3EF DUP4 PUSH1 0x40 MLOAD PUSH2 0xEE9 SWAP2 SWAP1 PUSH2 0x10A3 JUMP JUMPDEST PUSH1 0x40 MLOAD DUP1 SWAP2 SUB SWAP1 LOG3 POP POP JUMP JUMPDEST PUSH1 0x3 PUSH0 SWAP1 SLOAD SWAP1 PUSH2 0x100 EXP SWAP1 DIV PUSH20 0xFFFFFFFFFFFFFFFFFFFFFFFFFFFFFFFFFFFFFFFF AND DUP2 JUMP JUMPDEST PUSH0 PUSH1 0x5 PUSH0 DUP5 PUSH20 0xFFFFFFFFFFFFFFFFFFFFFFFFFFFFFFFFFFFFFFFF AND PUSH20 0xFFFFFFFFFFFFFFFFFFFFFFFFFFFFFFFFFFFFFFFF AND DUP2 MSTORE PUSH1 0x20 ADD SWAP1 DUP2 MSTORE PUSH1 0x20 ADD PUSH0 KECCAK256 PUSH0 DUP4 PUSH20 0xFFFFFFFFFFFFFFFFFFFFFFFFFFFFFFFFFFFFFFFF AND PUSH20 0xFFFFFFFFFFFFFFFFFFFFFFFFFFFFFFFFFFFFFFFF AND DUP2 MSTORE PUSH1 0x20 ADD SWAP1 DUP2 MSTORE PUSH1 0x20 ADD PUSH0 KECCAK256 SLOAD SWAP1 POP SWAP3 SWAP2 POP POP JUMP JUMPDEST PUSH1 0x3 PUSH0 SWAP1 SLOAD SWAP1 PUSH2 0x100 EXP SWAP1 DIV PUSH20 0xFFFFFFFFFFFFFFFFFFFFFFFFFFFFFFFFFFFFFFFF AND PUSH20 0xFFFFFFFFFFFFFFFFFFFFFFFFFFFFFFFFFFFFFFFF AND CALLER PUSH20 0xFFFFFFFFFFFFFFFFFFFFFFFFFFFFFFFFFFFFFFFF AND EQ PUSH2 0x102B JUMPI PUSH1 0x40 MLOAD PUSH32 0x8C379A000000000000000000000000000000000000000000000000000000000 DUP2 MSTORE PUSH1 0x4 ADD PUSH2 0x1022 SWAP1 PUSH2 0x1894 JUMP JUMPDEST PUSH1 0x40 MLOAD DUP1 SWAP2 SUB SWAP1 REVERT JUMPDEST DUP2 PUSH0 SWAP1 DUP2 PUSH2 0x1039 SWAP2 SWAP1 PUSH2 0x1BE4 JUMP JUMPDEST POP DUP1 PUSH1 0x1 SWAP1 DUP2 PUSH2 0x1049 SWAP2 SWAP1 PUSH2 0x1BE4 JUMP JUMPDEST POP PUSH32 0xA53D071CA80001B0FAD510BBEFF77BCA9AC9B36C4B2554B5FA503D25DD6E0CC3 DUP3 DUP3 PUSH1 0x2 SLOAD PUSH1 0x40 MLOAD PUSH2 0x107F SWAP4 SWAP3 SWAP2 SWAP1 PUSH2 0x1CB3 JUMP JUMPDEST PUSH1 0x40 MLOAD DUP1 SWAP2 SUB SWAP1 LOG1 POP POP JUMP JUMPDEST PUSH0 DUP2 SWAP1 POP SWAP2 SWAP1 POP JUMP JUMPDEST PUSH2 0x109D DUP2 PUSH2 0x108B JUMP JUMPDEST DUP3 MSTORE POP POP JUMP JUMPDEST PUSH0 PUSH1 0x20 DUP3 ADD SWAP1 POP PUSH2 0x10B6 PUSH0 DUP4 ADD DUP5 PUSH2 0x1094 JUMP JUMPDEST SWAP3 SWAP2 POP POP JUMP JUMPDEST PUSH0 PUSH1 0x40 MLOAD SWAP1 POP SWAP1 JUMP JUMPDEST PUSH0 DUP1 REVERT JUMPDEST PUSH0 DUP1 REVERT JUMPDEST PUSH0 PUSH20 0xFFFFFFFFFFFFFFFFFFFFFFFFFFFFFFFFFFFFFFFF DUP3 AND SWAP1 POP SWAP2 SWAP1 POP JUMP JUMPDEST PUSH0 PUSH2 0x10F6 DUP3 PUSH2 0x10CD JUMP JUMPDEST SWAP1 POP SWAP2 SWAP1 POP JUMP JUMPDEST PUSH2 0x1106 DUP2 PUSH2 0x10EC JUMP JUMPDEST DUP2 EQ PUSH2 0x1110 JUMPI PUSH0 DUP1 REVERT JUMPDEST POP JUMP JUMPDEST PUSH0 DUP2 CALLDATALOAD SWAP1 POP PUSH2 0x1121 DUP2 PUSH2 0x10FD JUMP JUMPDEST SWAP3 SWAP2 POP POP JUMP JUMPDEST PUSH2 0x1130 DUP2 PUSH2 0x108B JUMP JUMPDEST DUP2 EQ PUSH2 0x113A JUMPI PUSH0 DUP1 REVERT JUMPDEST POP JUMP JUMPDEST PUSH0 DUP2 CALLDATALOAD SWAP1 POP PUSH2 0x114B DUP2 PUSH2 0x1127 JUMP JUMPDEST SWAP3 SWAP2 POP POP JUMP JUMPDEST PUSH0 DUP1 PUSH1 0x40 DUP4 DUP6 SUB SLT ISZERO PUSH2 0x1167 JUMPI PUSH2 0x1166 PUSH2 0x10C5 JUMP JUMPDEST JUMPDEST PUSH0 PUSH2 0x1174 DUP6 DUP3 DUP7 ADD PUSH2 0x1113 JUMP JUMPDEST SWAP3 POP POP PUSH1 0x20 PUSH2 0x1185 DUP6 DUP3 DUP7 ADD PUSH2 0x113D JUMP JUMPDEST SWAP2 POP POP SWAP3 POP SWAP3 SWAP1 POP JUMP JUMPDEST PUSH0 DUP2 ISZERO ISZERO SWAP1 POP SWAP2 SWAP1 POP JUMP JUMPDEST PUSH2 0x11A3 DUP2 PUSH2 0x118F JUMP JUMPDEST DUP3 MSTORE POP POP JUMP JUMPDEST PUSH0 PUSH1 0x20 DUP3 ADD SWAP1 POP PUSH2 0x11BC PUSH0 DUP4 ADD DUP5 PUSH2 0x119A JUMP JUMPDEST SWAP3 SWAP2 POP POP JUMP JUMPDEST PUSH0 DUP1 PUSH0 PUSH1 0x60 DUP5 DUP7 SUB SLT ISZERO PUSH2 0x11D9 JUMPI PUSH2 0x11D8 PUSH2 0x10C5 JUMP JUMPDEST JUMPDEST PUSH0 PUSH2 0x11E6 DUP7 DUP3 DUP8 ADD PUSH2 0x1113 JUMP JUMPDEST SWAP4 POP POP PUSH1 0x20 PUSH2 0x11F7 DUP7 DUP3 DUP8 ADD PUSH2 0x1113 JUMP JUMPDEST SWAP3 POP POP PUSH1 0x40 PUSH2 0x1208 DUP7 DUP3 DUP8 ADD PUSH2 0x113D JUMP JUMPDEST SWAP2 POP POP SWAP3 POP SWAP3 POP SWAP3 JUMP JUMPDEST PUSH0 DUP2 MLOAD SWAP1 POP SWAP2 SWAP1 POP JUMP JUMPDEST PUSH0 DUP3 DUP3 MSTORE PUSH1 0x20 DUP3 ADD SWAP1 POP SWAP3 SWAP2 POP POP JUMP JUMPDEST DUP3 DUP2 DUP4 MCOPY PUSH0 DUP4 DUP4 ADD MSTORE POP POP POP JUMP JUMPDEST PUSH0 PUSH1 0x1F NOT PUSH1 0x1F DUP4 ADD AND SWAP1 POP SWAP2 SWAP1 POP JUMP JUMPDEST PUSH0 PUSH2 0x1254 DUP3 PUSH2 0x1212 JUMP JUMPDEST PUSH2 0x125E DUP2 DUP6 PUSH2 0x121C JUMP JUMPDEST SWAP4 POP PUSH2 0x126E DUP2 DUP6 PUSH1 0x20 DUP7 ADD PUSH2 0x122C JUMP JUMPDEST PUSH2 0x1277 DUP2 PUSH2 0x123A JUMP JUMPDEST DUP5 ADD SWAP2 POP POP SWAP3 SWAP2 POP POP JUMP JUMPDEST PUSH0 PUSH1 0x20 DUP3 ADD SWAP1 POP DUP2 DUP2 SUB PUSH0 DUP4 ADD MSTORE PUSH2 0x129A DUP2 DUP5 PUSH2 0x124A JUMP JUMPDEST SWAP1 POP SWAP3 SWAP2 POP POP JUMP JUMPDEST PUSH0 PUSH1 0x20 DUP3 DUP5 SUB SLT ISZERO PUSH2 0x12B7 JUMPI PUSH2 0x12B6 PUSH2 0x10C5 JUMP JUMPDEST JUMPDEST PUSH0 PUSH2 0x12C4 DUP5 DUP3 DUP6 ADD PUSH2 0x1113 JUMP JUMPDEST SWAP2 POP POP SWAP3 SWAP2 POP POP JUMP JUMPDEST PUSH2 0x12D6 DUP2 PUSH2 0x10EC JUMP JUMPDEST DUP3 MSTORE POP POP JUMP JUMPDEST PUSH0 PUSH1 0x20 DUP3 ADD SWAP1 POP PUSH2 0x12EF PUSH0 DUP4 ADD DUP5 PUSH2 0x12CD JUMP JUMPDEST SWAP3 SWAP2 POP POP JUMP JUMPDEST PUSH0 DUP1 PUSH1 0x40 DUP4 DUP6 SUB SLT ISZERO PUSH2 0x130B JUMPI PUSH2 0x130A PUSH2 0x10C5 JUMP JUMPDEST JUMPDEST PUSH0 PUSH2 0x1318 DUP6 DUP3 DUP7 ADD PUSH2 0x1113 JUMP JUMPDEST SWAP3 POP POP PUSH1 0x20 PUSH2 0x1329 DUP6 DUP3 DUP7 ADD PUSH2 0x1113 JUMP JUMPDEST SWAP2 POP POP SWAP3 POP SWAP3 SWAP1 POP JUMP JUMPDEST PUSH0 DUP1 REVERT JUMPDEST PUSH0 DUP1 REVERT JUMPDEST PUSH32 0x4E487B7100000000000000000000000000000000000000000000000000000000 PUSH0 MSTORE PUSH1 0x41 PUSH1 0x4 MSTORE PUSH1 0x24 PUSH0 REVERT JUMPDEST PUSH2 0x1371 DUP3 PUSH2 0x123A JUMP JUMPDEST DUP2 ADD DUP2 DUP2 LT PUSH8 0xFFFFFFFFFFFFFFFF DUP3 GT OR ISZERO PUSH2 0x1390 JUMPI PUSH2 0x138F PUSH2 0x133B JUMP JUMPDEST JUMPDEST DUP1 PUSH1 0x40 MSTORE POP POP POP JUMP JUMPDEST PUSH0 PUSH2 0x13A2 PUSH2 0x10BC JUMP JUMPDEST SWAP1 POP PUSH2 0x13AE DUP3 DUP3 PUSH2 0x1368 JUMP JUMPDEST SWAP2 SWAP1 POP JUMP JUMPDEST PUSH0 PUSH8 0xFFFFFFFFFFFFFFFF DUP3 GT ISZERO PUSH2 0x13CD JUMPI PUSH2 0x13CC PUSH2 0x133B JUMP JUMPDEST JUMPDEST PUSH2 0x13D6 DUP3 PUSH2 0x123A JUMP JUMPDEST SWAP1 POP PUSH1 0x20 DUP2 ADD SWAP1 POP SWAP2 SWAP1 POP JUMP JUMPDEST DUP3 DUP2 DUP4 CALLDATACOPY PUSH0 DUP4 DUP4 ADD MSTORE POP POP POP JUMP JUMPDEST PUSH0 PUSH2 0x1403 PUSH2 0x13FE DUP5 PUSH2 0x13B3 JUMP JUMPDEST PUSH2 0x1399 JUMP JUMPDEST SWAP1 POP DUP3 DUP2 MSTORE PUSH1 0x20 DUP2 ADD DUP5 DUP5 DUP5 ADD GT ISZERO PUSH2 0x141F JUMPI PUSH2 0x141E PUSH2 0x1337 JUMP JUMPDEST JUMPDEST PUSH2 0x142A DUP5 DUP3 DUP6 PUSH2 0x13E3 JUMP JUMPDEST POP SWAP4 SWAP3 POP POP POP JUMP JUMPDEST PUSH0 DUP3 PUSH1 0x1F DUP4 ADD SLT PUSH2 0x1446 JUMPI PUSH2 0x1445 PUSH2 0x1333 JUMP JUMPDEST JUMPDEST DUP2 CALLDATALOAD PUSH2 0x1456 DUP5 DUP3 PUSH1 0x20 DUP7 ADD PUSH2 0x13F1 JUMP JUMPDEST SWAP2 POP POP SWAP3 SWAP2 POP POP JUMP JUMPDEST PUSH0 DUP1 PUSH1 0x40 DUP4 DUP6 SUB SLT ISZERO PUSH2 0x1475 JUMPI PUSH2 0x1474 PUSH2 0x10C5 JUMP JUMPDEST JUMPDEST PUSH0 DUP4 ADD CALLDATALOAD PUSH8 0xFFFFFFFFFFFFFFFF DUP2 GT ISZERO PUSH2 0x1492 JUMPI PUSH2 0x1491 PUSH2 0x10C9 JUMP JUMPDEST JUMPDEST PUSH2 0x149E DUP6 DUP3 DUP7 ADD PUSH2 0x1432 JUMP JUMPDEST SWAP3 POP POP PUSH1 0x20 DUP4 ADD CALLDATALOAD PUSH8 0xFFFFFFFFFFFFFFFF DUP2 GT ISZERO PUSH2 0x14BF JUMPI PUSH2 0x14BE PUSH2 0x10C9 JUMP JUMPDEST JUMPDEST PUSH2 0x14CB DUP6 DUP3 DUP7 ADD PUSH2 0x1432 JUMP JUMPDEST SWAP2 POP POP SWAP3 POP SWAP3 SWAP1 POP JUMP JUMPDEST PUSH32 0x496E76616C6964207370656E64657220616464726573732E0000000000000000 PUSH0 DUP3 ADD MSTORE POP JUMP JUMPDEST PUSH0 PUSH2 0x1509 PUSH1 0x18 DUP4 PUSH2 0x121C JUMP JUMPDEST SWAP2 POP PUSH2 0x1514 DUP3 PUSH2 0x14D5 JUMP JUMPDEST PUSH1 0x20 DUP3 ADD SWAP1 POP SWAP2 SWAP1 POP JUMP JUMPDEST PUSH0 PUSH1 0x20 DUP3 ADD SWAP1 POP DUP2 DUP2 SUB PUSH0 DUP4 ADD MSTORE PUSH2 0x1536 DUP2 PUSH2 0x14FD JUMP JUMPDEST SWAP1 POP SWAP2 SWAP1 POP JUMP JUMPDEST PUSH32 0x496E76616C69642073656E64657220616464726573732E000000000000000000 PUSH0 DUP3 ADD MSTORE POP JUMP JUMPDEST PUSH0 PUSH2 0x1571 PUSH1 0x17 DUP4 PUSH2 0x121C JUMP JUMPDEST SWAP2 POP PUSH2 0x157C DUP3 PUSH2 0x153D JUMP JUMPDEST PUSH1 0x20 DUP3 ADD SWAP1 POP SWAP2 SWAP1 POP JUMP JUMPDEST PUSH0 PUSH1 0x20 DUP3 ADD SWAP1 POP DUP2 DUP2 SUB PUSH0 DUP4 ADD MSTORE PUSH2 0x159E DUP2 PUSH2 0x1565 JUMP JUMPDEST SWAP1 POP SWAP2 SWAP1 POP JUMP JUMPDEST PUSH32 0x496E76616C696420726563697069656E7420616464726573732E000000000000 PUSH0 DUP3 ADD MSTORE POP JUMP JUMPDEST PUSH0 PUSH2 0x15D9 PUSH1 0x1A DUP4 PUSH2 0x121C JUMP JUMPDEST SWAP2 POP PUSH2 0x15E4 DUP3 PUSH2 0x15A5 JUMP JUMPDEST PUSH1 0x20 DUP3 ADD SWAP1 POP SWAP2 SWAP1 POP JUMP JUMPDEST PUSH0 PUSH1 0x20 DUP3 ADD SWAP1 POP DUP2 DUP2 SUB PUSH0 DUP4 ADD MSTORE PUSH2 0x1606 DUP2 PUSH2 0x15CD JUMP JUMPDEST SWAP1 POP SWAP2 SWAP1 POP JUMP JUMPDEST PUSH32 0x5472616E7366657220616D6F756E74206D75737420626520706F736974697665 PUSH0 DUP3 ADD MSTORE PUSH32 0x2E00000000000000000000000000000000000000000000000000000000000000 PUSH1 0x20 DUP3 ADD MSTORE POP JUMP JUMPDEST PUSH0 PUSH2 0x1667 PUSH1 0x21 DUP4 PUSH2 0x121C JUMP JUMPDEST SWAP2 POP PUSH2 0x1672 DUP3 PUSH2 0x160D JUMP JUMPDEST PUSH1 0x40 DUP3 ADD SWAP1 POP SWAP2 SWAP1 POP JUMP JUMPDEST PUSH0 PUSH1 0x20 DUP3 ADD SWAP1 POP DUP2 DUP2 SUB PUSH0 DUP4 ADD MSTORE PUSH2 0x1694 DUP2 PUSH2 0x165B JUMP JUMPDEST SWAP1 POP SWAP2 SWAP1 POP JUMP JUMPDEST PUSH32 0x496E73756666696369656E742062616C616E636520666F72207472616E736665 PUSH0 DUP3 ADD MSTORE PUSH32 0x722E000000000000000000000000000000000000000000000000000000000000 PUSH1 0x20 DUP3 ADD MSTORE POP JUMP JUMPDEST PUSH0 PUSH2 0x16F5 PUSH1 0x22 DUP4 PUSH2 0x121C JUMP JUMPDEST SWAP2 POP PUSH2 0x1700 DUP3 PUSH2 0x169B JUMP JUMPDEST PUSH1 0x40 DUP3 ADD SWAP1 POP SWAP2 SWAP1 POP JUMP JUMPDEST PUSH0 PUSH1 0x20 DUP3 ADD SWAP1 POP DUP2 DUP2 SUB PUSH0 DUP4 ADD MSTORE PUSH2 0x1722 DUP2 PUSH2 0x16E9 JUMP JUMPDEST SWAP1 POP SWAP2 SWAP1 POP JUMP JUMPDEST PUSH32 0x5472616E7366657220616D6F756E74206578636565647320616C6C6F77616E63 PUSH0 DUP3 ADD MSTORE PUSH32 0x652E000000000000000000000000000000000000000000000000000000000000 PUSH1 0x20 DUP3 ADD MSTORE POP JUMP JUMPDEST PUSH0 PUSH2 0x1783 PUSH1 0x22 DUP4 PUSH2 0x121C JUMP JUMPDEST SWAP2 POP PUSH2 0x178E DUP3 PUSH2 0x1729 JUMP JUMPDEST PUSH1 0x40 DUP3 ADD SWAP1 POP SWAP2 SWAP1 POP JUMP JUMPDEST PUSH0 PUSH1 0x20 DUP3 ADD SWAP1 POP DUP2 DUP2 SUB PUSH0 DUP4 ADD MSTORE PUSH2 0x17B0 DUP2 PUSH2 0x1777 JUMP JUMPDEST SWAP1 POP SWAP2 SWAP1 POP JUMP JUMPDEST PUSH32 0x4E487B7100000000000000000000000000000000000000000000000000000000 PUSH0 MSTORE PUSH1 0x11 PUSH1 0x4 MSTORE PUSH1 0x24 PUSH0 REVERT JUMPDEST PUSH0 PUSH2 0x17EE DUP3 PUSH2 0x108B JUMP JUMPDEST SWAP2 POP PUSH2 0x17F9 DUP4 PUSH2 0x108B JUMP JUMPDEST SWAP3 POP DUP3 DUP3 SUB SWAP1 POP DUP2 DUP2 GT ISZERO PUSH2 0x1811 JUMPI PUSH2 0x1810 PUSH2 0x17B7 JUMP JUMPDEST JUMPDEST SWAP3 SWAP2 POP POP JUMP JUMPDEST PUSH0 PUSH2 0x1821 DUP3 PUSH2 0x108B JUMP JUMPDEST SWAP2 POP PUSH2 0x182C DUP4 PUSH2 0x108B JUMP JUMPDEST SWAP3 POP DUP3 DUP3 ADD SWAP1 POP DUP1 DUP3 GT ISZERO PUSH2 0x1844 JUMPI PUSH2 0x1843 PUSH2 0x17B7 JUMP JUMPDEST JUMPDEST SWAP3 SWAP2 POP POP JUMP JUMPDEST PUSH32 0x416363657373207265737472696374656420746F20746865206F776E65722E00 PUSH0 DUP3 ADD MSTORE POP JUMP JUMPDEST PUSH0 PUSH2 0x187E PUSH1 0x1F DUP4 PUSH2 0x121C JUMP JUMPDEST SWAP2 POP PUSH2 0x1889 DUP3 PUSH2 0x184A JUMP JUMPDEST PUSH1 0x20 DUP3 ADD SWAP1 POP SWAP2 SWAP1 POP JUMP JUMPDEST PUSH0 PUSH1 0x20 DUP3 ADD SWAP1 POP DUP2 DUP2 SUB PUSH0 DUP4 ADD MSTORE PUSH2 0x18AB DUP2 PUSH2 0x1872 JUMP JUMPDEST SWAP1 POP SWAP2 SWAP1 POP JUMP JUMPDEST PUSH32 0x4D696E7420616D6F756E74206D75737420626520706F7369746976652E000000 PUSH0 DUP3 ADD MSTORE POP JUMP JUMPDEST PUSH0 PUSH2 0x18E6 PUSH1 0x1D DUP4 PUSH2 0x121C JUMP JUMPDEST SWAP2 POP PUSH2 0x18F1 DUP3 PUSH2 0x18B2 JUMP JUMPDEST PUSH1 0x20 DUP3 ADD SWAP1 POP SWAP2 SWAP1 POP JUMP JUMPDEST PUSH0 PUSH1 0x20 DUP3 ADD SWAP1 POP DUP2 DUP2 SUB PUSH0 DUP4 ADD MSTORE PUSH2 0x1913 DUP2 PUSH2 0x18DA JUMP JUMPDEST SWAP1 POP SWAP2 SWAP1 POP JUMP JUMPDEST PUSH32 0x4E487B7100000000000000000000000000000000000000000000000000000000 PUSH0 MSTORE PUSH1 0x22 PUSH1 0x4 MSTORE PUSH1 0x24 PUSH0 REVERT JUMPDEST PUSH0 PUSH1 0x2 DUP3 DIV SWAP1 POP PUSH1 0x1 DUP3 AND DUP1 PUSH2 0x195E JUMPI PUSH1 0x7F DUP3 AND SWAP2 POP JUMPDEST PUSH1 0x20 DUP3 LT DUP2 SUB PUSH2 0x1971 JUMPI PUSH2 0x1970 PUSH2 0x191A JUMP JUMPDEST JUMPDEST POP SWAP2 SWAP1 POP JUMP JUMPDEST PUSH32 0x4275726E20616D6F756E74206D75737420626520706F7369746976652E000000 PUSH0 DUP3 ADD MSTORE POP JUMP JUMPDEST PUSH0 PUSH2 0x19AB PUSH1 0x1D DUP4 PUSH2 0x121C JUMP JUMPDEST SWAP2 POP PUSH2 0x19B6 DUP3 PUSH2 0x1977 JUMP JUMPDEST PUSH1 0x20 DUP3 ADD SWAP1 POP SWAP2 SWAP1 POP JUMP JUMPDEST PUSH0 PUSH1 0x20 DUP3 ADD SWAP1 POP DUP2 DUP2 SUB PUSH0 DUP4 ADD MSTORE PUSH2 0x19D8 DUP2 PUSH2 0x199F JUMP JUMPDEST SWAP1 POP SWAP2 SWAP1 POP JUMP JUMPDEST PUSH32 0x496E73756666696369656E742062616C616E636520746F206275726E2E000000 PUSH0 DUP3 ADD MSTORE POP JUMP JUMPDEST PUSH0 PUSH2 0x1A13 PUSH1 0x1D DUP4 PUSH2 0x121C JUMP JUMPDEST SWAP2 POP PUSH2 0x1A1E DUP3 PUSH2 0x19DF JUMP JUMPDEST PUSH1 0x20 DUP3 ADD SWAP1 POP SWAP2 SWAP1 POP JUMP JUMPDEST PUSH0 PUSH1 0x20 DUP3 ADD SWAP1 POP DUP2 DUP2 SUB PUSH0 DUP4 ADD MSTORE PUSH2 0x1A40 DUP2 PUSH2 0x1A07 JUMP JUMPDEST SWAP1 POP SWAP2 SWAP1 POP JUMP JUMPDEST PUSH0 DUP2 SWAP1 POP DUP2 PUSH0 MSTORE PUSH1 0x20 PUSH0 KECCAK256 SWAP1 POP SWAP2 SWAP1 POP JUMP JUMPDEST PUSH0 PUSH1 0x20 PUSH1 0x1F DUP4 ADD DIV SWAP1 POP SWAP2 SWAP1 POP JUMP JUMPDEST PUSH0 DUP3 DUP3 SHL SWAP1 POP SWAP3 SWAP2 POP POP JUMP JUMPDEST PUSH0 PUSH1 0x8 DUP4 MUL PUSH2 0x1AA3 PUSH32 0xFFFFFFFFFFFFFFFFFFFFFFFFFFFFFFFFFFFFFFFFFFFFFFFFFFFFFFFFFFFFFFFF DUP3 PUSH2 0x1A68 JUMP JUMPDEST PUSH2 0x1AAD DUP7 DUP4 PUSH2 0x1A68 JUMP JUMPDEST SWAP6 POP DUP1 NOT DUP5 AND SWAP4 POP DUP1 DUP7 AND DUP5 OR SWAP3 POP POP POP SWAP4 SWAP3 POP POP POP JUMP JUMPDEST PUSH0 DUP2 SWAP1 POP SWAP2 SWAP1 POP JUMP JUMPDEST PUSH0 PUSH2 0x1AE8 PUSH2 0x1AE3 PUSH2 0x1ADE DUP5 PUSH2 0x108B JUMP JUMPDEST PUSH2 0x1AC5 JUMP JUMPDEST PUSH2 0x108B JUMP JUMPDEST SWAP1 POP SWAP2 SWAP1 POP JUMP JUMPDEST PUSH0 DUP2 SWAP1 POP SWAP2 SWAP1 POP JUMP JUMPDEST PUSH2 0x1B01 DUP4 PUSH2 0x1ACE JUMP JUMPDEST PUSH2 0x1B15 PUSH2 0x1B0D DUP3 PUSH2 0x1AEF JUMP JUMPDEST DUP5 DUP5 SLOAD PUSH2 0x1A74 JUMP JUMPDEST DUP3 SSTORE POP POP POP POP JUMP JUMPDEST PUSH0 SWAP1 JUMP JUMPDEST PUSH2 0x1B29 PUSH2 0x1B1D JUMP JUMPDEST PUSH2 0x1B34 DUP2 DUP5 DUP5 PUSH2 0x1AF8 JUMP JUMPDEST POP POP POP JUMP JUMPDEST JUMPDEST DUP2 DUP2 LT ISZERO PUSH2 0x1B57 JUMPI PUSH2 0x1B4C PUSH0 DUP3 PUSH2 0x1B21 JUMP JUMPDEST PUSH1 0x1 DUP2 ADD SWAP1 POP PUSH2 0x1B3A JUMP JUMPDEST POP POP JUMP JUMPDEST PUSH1 0x1F DUP3 GT ISZERO PUSH2 0x1B9C JUMPI PUSH2 0x1B6D DUP2 PUSH2 0x1A47 JUMP JUMPDEST PUSH2 0x1B76 DUP5 PUSH2 0x1A59 JUMP JUMPDEST DUP2 ADD PUSH1 0x20 DUP6 LT ISZERO PUSH2 0x1B85 JUMPI DUP2 SWAP1 POP JUMPDEST PUSH2 0x1B99 PUSH2 0x1B91 DUP6 PUSH2 0x1A59 JUMP JUMPDEST DUP4 ADD DUP3 PUSH2 0x1B39 JUMP JUMPDEST POP POP JUMPDEST POP POP POP JUMP JUMPDEST PUSH0 DUP3 DUP3 SHR SWAP1 POP SWAP3 SWAP2 POP POP JUMP JUMPDEST PUSH0 PUSH2 0x1BBC PUSH0 NOT DUP5 PUSH1 0x8 MUL PUSH2 0x1BA1 JUMP JUMPDEST NOT DUP1 DUP4 AND SWAP2 POP POP SWAP3 SWAP2 POP POP JUMP JUMPDEST PUSH0 PUSH2 0x1BD4 DUP4 DUP4 PUSH2 0x1BAD JUMP JUMPDEST SWAP2 POP DUP3 PUSH1 0x2 MUL DUP3 OR SWAP1 POP SWAP3 SWAP2 POP POP JUMP JUMPDEST PUSH2 0x1BED DUP3 PUSH2 0x1212 JUMP JUMPDEST PUSH8 0xFFFFFFFFFFFFFFFF DUP2 GT ISZERO PUSH2 0x1C06 JUMPI PUSH2 0x1C05 PUSH2 0x133B JUMP JUMPDEST JUMPDEST PUSH2 0x1C10 DUP3 SLOAD PUSH2 0x1947 JUMP JUMPDEST PUSH2 0x1C1B DUP3 DUP3 DUP6 PUSH2 0x1B5B JUMP JUMPDEST PUSH0 PUSH1 0x20 SWAP1 POP PUSH1 0x1F DUP4 GT PUSH1 0x1 DUP2 EQ PUSH2 0x1C4C JUMPI PUSH0 DUP5 ISZERO PUSH2 0x1C3A JUMPI DUP3 DUP8 ADD MLOAD SWAP1 POP JUMPDEST PUSH2 0x1C44 DUP6 DUP3 PUSH2 0x1BC9 JUMP JUMPDEST DUP7 SSTORE POP PUSH2 0x1CAB JUMP JUMPDEST PUSH1 0x1F NOT DUP5 AND PUSH2 0x1C5A DUP7 PUSH2 0x1A47 JUMP JUMPDEST PUSH0 JUMPDEST DUP3 DUP2 LT ISZERO PUSH2 0x1C81 JUMPI DUP5 DUP10 ADD MLOAD DUP3 SSTORE PUSH1 0x1 DUP3 ADD SWAP2 POP PUSH1 0x20 DUP6 ADD SWAP5 POP PUSH1 0x20 DUP2 ADD SWAP1 POP PUSH2 0x1C5C JUMP JUMPDEST DUP7 DUP4 LT ISZERO PUSH2 0x1C9E JUMPI DUP5 DUP10 ADD MLOAD PUSH2 0x1C9A PUSH1 0x1F DUP10 AND DUP3 PUSH2 0x1BAD JUMP JUMPDEST DUP4 SSTORE POP JUMPDEST PUSH1 0x1 PUSH1 0x2 DUP9 MUL ADD DUP9 SSTORE POP POP POP JUMPDEST POP POP POP POP POP POP JUMP JUMPDEST PUSH0 PUSH1 0x60 DUP3 ADD SWAP1 POP DUP2 DUP2 SUB PUSH0 DUP4 ADD MSTORE PUSH2 0x1CCB DUP2 DUP7 PUSH2 0x124A JUMP JUMPDEST SWAP1 POP DUP2 DUP2 SUB PUSH1 0x20 DUP4 ADD MSTORE PUSH2 0x1CDF DUP2 DUP6 PUSH2 0x124A JUMP JUMPDEST SWAP1 POP PUSH2 0x1CEE PUSH1 0x40 DUP4 ADD DUP5 PUSH2 0x1094 JUMP JUMPDEST SWAP5 SWAP4 POP POP POP POP JUMP INVALID LOG2 PUSH5 0x6970667358 0x22 SLT KECCAK256 PUSH0 0xE2 0x2D SWAP5 LT 0xE0 DUP14 PUSH30 0x6C01C65F909C770BD1566E0813EBD386FAA406B700B0F4A964736F6C6343 STOP ADDMOD BYTE STOP CALLER "
				},
				"gasEstimates": {
					"creation": {
						"codeDepositCost": "1493600",
						"executionCost": "infinite",
						"totalCost": "infinite"
					},
					"external": {
						"allowance(address,address)": "infinite",
						"approve(address,uint256)": "infinite",
						"balanceOf(address)": "2940",
						"burn(address,uint256)": "infinite",
						"contractOwner()": "2574",
						"firstName()": "infinite",
						"lastName()": "infinite",
						"mint(address,uint256)": "infinite",
						"supply()": "2426",
						"transfer(address,uint256)": "infinite",
						"transferFrom(address,address,uint256)": "infinite",
						"updateTokenMetadata(string,string)": "infinite"
					}
				},
				"methodIdentifiers": {
					"allowance(address,address)": "dd62ed3e",
					"approve(address,uint256)": "095ea7b3",
					"balanceOf(address)": "70a08231",
					"burn(address,uint256)": "9dc29fac",
					"contractOwner()": "ce606ee0",
					"firstName()": "4589fe0c",
					"lastName()": "9ab03dcb",
					"mint(address,uint256)": "40c10f19",
					"supply()": "047fc9aa",
					"transfer(address,uint256)": "a9059cbb",
					"transferFrom(address,address,uint256)": "23b872dd",
					"updateTokenMetadata(string,string)": "e5442026"
				}
			},
			"storageLayout": {
				"storage": [
					{
						"astId": 4,
						"contract": "contracts/mod3.sol:TokenContract",
						"label": "firstName",
						"offset": 0,
						"slot": "0",
						"type": "t_string_storage"
					},
					{
						"astId": 7,
						"contract": "contracts/mod3.sol:TokenContract",
						"label": "lastName",
						"offset": 0,
						"slot": "1",
						"type": "t_string_storage"
					},
					{
						"astId": 10,
						"contract": "contracts/mod3.sol:TokenContract",
						"label": "supply",
						"offset": 0,
						"slot": "2",
						"type": "t_uint256"
					},
					{
						"astId": 12,
						"contract": "contracts/mod3.sol:TokenContract",
						"label": "contractOwner",
						"offset": 0,
						"slot": "3",
						"type": "t_address"
					},
					{
						"astId": 16,
						"contract": "contracts/mod3.sol:TokenContract",
						"label": "_balances",
						"offset": 0,
						"slot": "4",
						"type": "t_mapping(t_address,t_uint256)"
					},
					{
						"astId": 22,
						"contract": "contracts/mod3.sol:TokenContract",
						"label": "_allowances",
						"offset": 0,
						"slot": "5",
						"type": "t_mapping(t_address,t_mapping(t_address,t_uint256))"
					}
				],
				"types": {
					"t_address": {
						"encoding": "inplace",
						"label": "address",
						"numberOfBytes": "20"
					},
					"t_mapping(t_address,t_mapping(t_address,t_uint256))": {
						"encoding": "mapping",
						"key": "t_address",
						"label": "mapping(address => mapping(address => uint256))",
						"numberOfBytes": "32",
						"value": "t_mapping(t_address,t_uint256)"
					},
					"t_mapping(t_address,t_uint256)": {
						"encoding": "mapping",
						"key": "t_address",
						"label": "mapping(address => uint256)",
						"numberOfBytes": "32",
						"value": "t_uint256"
					},
					"t_string_storage": {
						"encoding": "bytes",
						"label": "string",
						"numberOfBytes": "32"
					},
					"t_uint256": {
						"encoding": "inplace",
						"label": "uint256",
						"numberOfBytes": "32"
					}
				}
			},
			"userdoc": {
				"kind": "user",
				"methods": {},
				"version": 1
			}
		}
	}
}